{
  "address": "0x9fE46736679d2D9a65F0992F2272dE9f3c7fa6e0",
  "abi": [
    {
      "inputs": [],
      "stateMutability": "payable",
      "type": "constructor"
    },
    {
      "anonymous": false,
      "inputs": [
        {
          "indexed": true,
          "internalType": "address",
          "name": "_createBy",
          "type": "address"
        },
        {
          "indexed": true,
          "internalType": "address",
          "name": "_token",
          "type": "address"
        },
        {
          "indexed": true,
          "internalType": "uint256",
          "name": "_id",
          "type": "uint256"
        }
      ],
      "name": "createPoolEvent",
      "type": "event"
    },
    {
      "anonymous": false,
      "inputs": [
        {
          "indexed": false,
          "internalType": "uint256",
          "name": "_amount",
          "type": "uint256"
        }
      ],
      "name": "getSwapAmount",
      "type": "event"
    },
    {
      "anonymous": false,
      "inputs": [
        {
          "indexed": true,
          "internalType": "address",
          "name": "_from",
          "type": "address"
        },
        {
          "indexed": true,
          "internalType": "uint256",
          "name": "_lpTokenSupply",
          "type": "uint256"
        },
        {
          "indexed": true,
          "internalType": "uint256",
          "name": "_mintedAmount",
          "type": "uint256"
        },
        {
          "indexed": false,
          "internalType": "uint256",
          "name": "_ethBalance",
          "type": "uint256"
        },
        {
          "indexed": false,
          "internalType": "address",
          "name": "_lpTokenAddress",
          "type": "address"
        },
        {
          "indexed": false,
          "internalType": "uint256",
          "name": "_amount",
          "type": "uint256"
        },
        {
          "indexed": false,
          "internalType": "uint256",
          "name": "_lpTokenBalance",
          "type": "uint256"
        },
        {
          "indexed": false,
          "internalType": "uint256",
          "name": "_tokenReserve",
          "type": "uint256"
        }
      ],
      "name": "liquidity",
      "type": "event"
    },
    {
      "anonymous": false,
      "inputs": [
        {
          "indexed": true,
          "internalType": "address",
          "name": "_from",
          "type": "address"
        },
        {
          "indexed": true,
          "internalType": "uint256",
          "name": "_lpTokenSupply",
          "type": "uint256"
        },
        {
          "indexed": true,
          "internalType": "uint256",
          "name": "_mintedAmount",
          "type": "uint256"
        },
        {
          "indexed": false,
          "internalType": "uint256",
          "name": "_ethBalance",
          "type": "uint256"
        },
        {
          "indexed": false,
          "internalType": "address",
          "name": "_lpTokenAddress",
          "type": "address"
        },
        {
          "indexed": false,
          "internalType": "uint256",
          "name": "_amount",
          "type": "uint256"
        },
        {
          "indexed": false,
          "internalType": "uint256",
          "name": "_lpTokenBalance",
          "type": "uint256"
        },
        {
          "indexed": false,
          "internalType": "uint256",
          "name": "_tokenReserve",
          "type": "uint256"
        }
      ],
      "name": "liquidityRemove",
      "type": "event"
    },
    {
      "anonymous": false,
      "inputs": [
        {
          "indexed": true,
          "internalType": "uint256",
          "name": "_ethReserve",
          "type": "uint256"
        },
        {
          "indexed": true,
          "internalType": "uint256",
          "name": "_inputAmountFee",
          "type": "uint256"
        },
        {
          "indexed": false,
          "internalType": "uint256",
          "name": "_fullEthReserve",
          "type": "uint256"
        },
        {
          "indexed": false,
          "internalType": "uint256",
          "name": "_outputAmount",
          "type": "uint256"
        },
        {
          "indexed": false,
          "internalType": "uint256",
          "name": "_msgValue",
          "type": "uint256"
        }
      ],
      "name": "swapToToken",
      "type": "event"
    },
    {
      "anonymous": false,
      "inputs": [
        {
          "indexed": true,
          "internalType": "address",
          "name": "_useraddress",
          "type": "address"
        }
      ],
      "name": "userAddress",
      "type": "event"
    },
    {
      "inputs": [
        {
          "internalType": "uint256",
          "name": "",
          "type": "uint256"
        }
      ],
      "name": "PoolMapping",
      "outputs": [
        {
          "internalType": "contract Pool",
          "name": "",
          "type": "address"
        }
      ],
      "stateMutability": "view",
      "type": "function"
    },
    {
      "inputs": [
        {
          "internalType": "uint256",
          "name": "",
          "type": "uint256"
        }
      ],
      "name": "PoolMappingAddress",
      "outputs": [
        {
          "internalType": "address",
          "name": "",
          "type": "address"
        }
      ],
      "stateMutability": "view",
      "type": "function"
    },
    {
      "inputs": [
        {
          "internalType": "uint256",
          "name": "_pool",
          "type": "uint256"
        },
        {
          "internalType": "uint256",
          "name": "_amount",
          "type": "uint256"
        }
      ],
      "name": "_addLiquidity",
      "outputs": [],
      "stateMutability": "payable",
      "type": "function"
    },
    {
      "inputs": [
        {
          "internalType": "uint256",
          "name": "_pool",
          "type": "uint256"
        },
        {
          "internalType": "uint256",
          "name": "_amount",
          "type": "uint256"
        }
      ],
      "name": "_getAmount",
      "outputs": [
        {
          "internalType": "uint256",
          "name": "",
          "type": "uint256"
        },
        {
          "internalType": "uint256",
          "name": "",
          "type": "uint256"
        }
      ],
      "stateMutability": "nonpayable",
      "type": "function"
    },
    {
      "inputs": [
        {
          "internalType": "uint256",
          "name": "_pool",
          "type": "uint256"
        },
        {
          "internalType": "uint256",
          "name": "_amount",
          "type": "uint256"
        }
      ],
      "name": "_getEthReserve",
      "outputs": [
        {
          "internalType": "uint256",
          "name": "",
          "type": "uint256"
        }
      ],
      "stateMutability": "nonpayable",
      "type": "function"
    },
    {
      "inputs": [
        {
          "internalType": "uint256",
          "name": "_pool",
          "type": "uint256"
        },
        {
          "internalType": "uint256",
          "name": "_amount",
          "type": "uint256"
        }
      ],
      "name": "_getLiquidityStatus",
      "outputs": [
        {
          "internalType": "uint256",
          "name": "",
          "type": "uint256"
        },
        {
          "internalType": "uint256",
          "name": "",
          "type": "uint256"
        }
      ],
      "stateMutability": "nonpayable",
      "type": "function"
    },
    {
      "inputs": [
        {
          "internalType": "uint256",
          "name": "_pool",
          "type": "uint256"
        },
        {
          "internalType": "uint256",
          "name": "_amount",
          "type": "uint256"
        }
      ],
      "name": "_getReserve",
      "outputs": [
        {
          "internalType": "uint256",
          "name": "",
          "type": "uint256"
        }
      ],
      "stateMutability": "nonpayable",
      "type": "function"
    },
    {
      "inputs": [
        {
          "internalType": "uint256",
          "name": "_pool",
          "type": "uint256"
        },
        {
          "internalType": "uint256",
          "name": "_amount",
          "type": "uint256"
        }
      ],
      "name": "_getSwapAmount",
      "outputs": [
        {
          "internalType": "uint256",
          "name": "",
          "type": "uint256"
        }
      ],
      "stateMutability": "nonpayable",
      "type": "function"
    },
    {
      "inputs": [
        {
          "internalType": "uint256",
          "name": "_pool",
          "type": "uint256"
        },
        {
          "internalType": "uint256",
          "name": "_amount",
          "type": "uint256"
        }
      ],
      "name": "_getSwapAmountEth",
      "outputs": [
        {
          "internalType": "uint256",
          "name": "",
          "type": "uint256"
        }
      ],
      "stateMutability": "nonpayable",
      "type": "function"
    },
    {
      "inputs": [
        {
          "internalType": "uint256",
          "name": "_pool",
          "type": "uint256"
        },
        {
          "internalType": "uint256",
          "name": "_amount",
          "type": "uint256"
        }
      ],
      "name": "_getfullEthReserve",
      "outputs": [
        {
          "internalType": "uint256",
          "name": "",
          "type": "uint256"
        }
      ],
      "stateMutability": "nonpayable",
      "type": "function"
    },
    {
      "inputs": [
        {
          "internalType": "uint256",
          "name": "_pool",
          "type": "uint256"
        },
        {
          "internalType": "uint256",
          "name": "_amount",
          "type": "uint256"
        }
      ],
      "name": "_getinputAmountFee",
      "outputs": [
        {
          "internalType": "uint256",
          "name": "",
          "type": "uint256"
        }
      ],
      "stateMutability": "nonpayable",
      "type": "function"
    },
    {
      "inputs": [
        {
          "internalType": "uint256",
          "name": "_pool",
          "type": "uint256"
        },
        {
          "internalType": "uint256",
          "name": "_amount",
          "type": "uint256"
        }
      ],
      "name": "_removeLiquidity",
      "outputs": [],
      "stateMutability": "payable",
      "type": "function"
    },
    {
      "inputs": [
        {
          "internalType": "uint256",
          "name": "_pool",
          "type": "uint256"
        },
        {
          "internalType": "uint256",
          "name": "_amount",
          "type": "uint256"
        },
        {
          "internalType": "uint256",
          "name": "_estimateamount",
          "type": "uint256"
        }
      ],
      "name": "_swapEthToToken",
      "outputs": [],
      "stateMutability": "payable",
      "type": "function"
    },
    {
      "inputs": [
        {
          "internalType": "uint256",
          "name": "_pool",
          "type": "uint256"
        },
        {
          "internalType": "uint256",
          "name": "_amount",
          "type": "uint256"
        },
        {
          "internalType": "uint256",
          "name": "_estimatedAmount",
          "type": "uint256"
        },
        {
          "internalType": "address",
          "name": "_account",
          "type": "address"
        }
      ],
      "name": "_swapTokenToEth",
      "outputs": [],
      "stateMutability": "payable",
      "type": "function"
    },
    {
      "inputs": [],
      "name": "counter",
      "outputs": [
        {
          "internalType": "uint256",
          "name": "",
          "type": "uint256"
        }
      ],
      "stateMutability": "view",
      "type": "function"
    },
    {
      "inputs": [
        {
          "internalType": "address",
          "name": "tokenA",
          "type": "address"
        }
      ],
      "name": "createPool",
      "outputs": [],
      "stateMutability": "payable",
      "type": "function"
    },
    {
      "inputs": [
        {
          "internalType": "uint256",
          "name": "_pool",
          "type": "uint256"
        }
      ],
      "name": "getPoolAddress",
      "outputs": [
        {
          "internalType": "address",
          "name": "",
          "type": "address"
        }
      ],
      "stateMutability": "view",
      "type": "function"
    },
    {
      "inputs": [],
      "name": "pool",
      "outputs": [
        {
          "internalType": "contract Pool",
          "name": "",
          "type": "address"
        }
      ],
      "stateMutability": "view",
      "type": "function"
    }
  ],
  "transactionHash": "0x80e5249fc7d7787bf7e3f3ba68165bb4246b605ba0668decee60a301170232ec",
  "args": [],
  "numDeployments": 1,
  "solcInputHash": "fb409f49855a655116fdcbb13b102f9a",
  "bytecode": "0x6080604052614233806100136000396000f3fe6080604052600436106200011e5760003560e01c806355b7768c11620000a157806383fea74c116200006c57806383fea74c146200034d5780639049f9d214620003725780639e8af2af1462000389578063e905730314620003a0578063ecc861d014620003c557600080fd5b806355b7768c14620002d457806361bc221a14620002f9578063684d4cd014620003115780636d7fd8fe146200032857600080fd5b806316095f6c11620000ee57806316095f6c146200020757806316f0115b146200023b5780631be7f700146200025d5780632f812b8c14620002985780635405755a14620002af57600080fd5b8062a5ae21146200012357806304c55b92146200017a5780630b6af77614620001b457806315f08f2c14620001cd575b600080fd5b3480156200013057600080fd5b506200015d6200014236600462000cee565b6000908152600160205260409020546001600160a01b031690565b6040516001600160a01b0390911681526020015b60405180910390f35b3480156200018757600080fd5b506200015d6200019936600462000cee565b6001602052600090815260409020546001600160a01b031681565b620001cb620001c536600462000d08565b620003ea565b005b348015620001da57600080fd5b506200015d620001ec36600462000cee565b6002602052600090815260409020546001600160a01b031681565b3480156200021457600080fd5b506200022c6200022636600462000d08565b62000526565b60405190815260200162000171565b3480156200024857600080fd5b506000546200015d906001600160a01b031681565b3480156200026a57600080fd5b50620002826200027c36600462000d08565b620005fa565b6040805192835260208301919091520162000171565b620001cb620002a936600462000d2b565b620006d7565b348015620002bc57600080fd5b506200022c620002ce36600462000d08565b62000790565b348015620002e157600080fd5b506200022c620002f336600462000d08565b620007f4565b3480156200030657600080fd5b506200022c60035481565b620001cb6200032236600462000d71565b62000858565b3480156200033557600080fd5b506200022c6200034736600462000d08565b62000915565b3480156200035a57600080fd5b50620002826200036c36600462000d08565b62000979565b620001cb6200038336600462000db5565b620009ce565b620001cb6200039a36600462000d08565b62000acb565b348015620003ad57600080fd5b506200022c620003bf36600462000d08565b62000c3e565b348015620003d257600080fd5b506200022c620003e436600462000d08565b62000c8f565b6000828152600160205260408082205482546001600160a01b0319166001600160a01b03909116908117835590516305fe138b60e01b8152600481018490523360248201528291829182918291829182916305fe138b9060440160e060405180830381600087803b1580156200045f57600080fd5b505af115801562000474573d6000803e3d6000fd5b505050506040513d601f19601f820116820180604052508101906200049a919062000ddc565b96509650965096509650965096508486886001600160a01b03167fba8167b20fb82b32203505d2af31a84cccc310ee858a21f2b99a19b09956840c87878d8888604051620005139594939291909485526001600160a01b0393909316602085015260408401919091526060830152608082015260a00190565b60405180910390a4505050505050505050565b6000828152600160205260408082205482546001600160a01b0319166001600160a01b039091169081178355905163582cf78160e01b81526004810184905282919063582cf781906024015b602060405180830381600087803b1580156200058d57600080fd5b505af1158015620005a2573d6000803e3d6000fd5b505050506040513d601f19601f82011682018060405250810190620005c8919062000e4c565b9050600080516020620041de83398151915281604051620005eb91815260200190565b60405180910390a19392505050565b6000828152600160205260408082205482546001600160a01b0319166001600160a01b0390911690811783559051631ae6a0d760e11b815260048101849052829182918291906335cd41ae906024015b6040805180830381600087803b1580156200066457600080fd5b505af115801562000679573d6000803e3d6000fd5b505050506040513d601f19601f820116820180604052508101906200069f919062000e66565b91509150600080516020620041de83398151915281604051620006c491815260200190565b60405180910390a1909590945092505050565b6000838152600160205260408082205482546001600160a01b0319166001600160a01b039091169081179092555163a68bb24960e01b8152600481018490526024810183905233604482015263a68bb2499034906064016000604051808303818588803b1580156200074857600080fd5b505af11580156200075d573d6000803e3d6000fd5b5050505050600080516020620041de833981519152346040516200078391815260200190565b60405180910390a1505050565b60008281526001602090815260408083205483546001600160a01b0319166001600160a01b03909116908117845581516359bf5d3960e01b81529151849391926359bf5d3992600480830193919282900301818787803b1580156200058d57600080fd5b60008281526001602090815260408083205483546001600160a01b0319166001600160a01b039091169081178455815163022a446360e61b8152915184939192638a9118c092600480830193919282900301818787803b1580156200058d57600080fd5b6000848152600160205260408082205482546001600160a01b0319166001600160a01b039182169081179093559051635e16d9df60e01b815260048101869052602481018590529083166044820152635e16d9df9034906064016000604051808303818588803b158015620008cc57600080fd5b505af1158015620008e1573d6000803e3d6000fd5b5050505050600080516020620041de833981519152346040516200090791815260200190565b60405180910390a150505050565b60008281526001602090815260408083205483546001600160a01b0319166001600160a01b0390911690811784558151638703694360e01b8152915184939192638703694392600480830193919282900301818787803b1580156200058d57600080fd5b6000828152600160205260408082205482546001600160a01b0319166001600160a01b0390911690811783559051635e9bc2f960e01b81526004810184905282918291829190635e9bc2f9906024016200064a565b80604051620009dd9062000ce0565b6001600160a01b039091168152602001604051809103906000f08015801562000a0a573d6000803e3d6000fd5b50600080546001600160a01b039283166001600160a01b0319918216811783556003805484526001602052604080852080549094169092179092559054825491519093919091169133917ff86e3d2fc794443a042a24aab307e2450c5ea5ddde4894a5db19df1339e0e23b9190a4600080546040516001600160a01b03909116917f360500cc0bb9908acbdda3a2865dcefc4ae2dbe309f4fbedf074eb0a9a9a16ac91a260016003600082825462000ac3919062000e8b565b909155505050565b3481101562000b135760405162461bcd60e51b815260206004820152601060248201526f1d1bc81b1a5d1d1b1948185b5bdd5b9d60821b604482015260640160405180910390fd5b6000828152600160205260408082205482546001600160a01b0319166001600160a01b03909116908117835590516364afce8760e11b81526004810184905233602482015282918291829182918291829163c95f9d0e90349060440160e0604051808303818588803b15801562000b8957600080fd5b505af115801562000b9e573d6000803e3d6000fd5b50505050506040513d601f19601f8201168201806040525081019062000bc5919062000ddc565b96509650965096509650965096508486886001600160a01b03167f8df84fafdab28db8aea5e9eb3a42bac9e9dddfddf14d579c198c13489729e1e187878d8888604051620005139594939291909485526001600160a01b0393909316602085015260408401919091526060830152608082015260a00190565b6000828152600160205260408082205482546001600160a01b0319166001600160a01b0390911690811783559051630a72275360e01b815260048101849052829190630a7227539060240162000572565b6000828152600160205260408082205482546001600160a01b0319166001600160a01b0390911690811783559051630de703e160e41b81526004810184905282919063de703e109060240162000572565b61332b8062000eb383390190565b60006020828403121562000d0157600080fd5b5035919050565b6000806040838503121562000d1c57600080fd5b50508035926020909101359150565b60008060006060848603121562000d4157600080fd5b505081359360208301359350604090920135919050565b6001600160a01b038116811462000d6e57600080fd5b50565b6000806000806080858703121562000d8857600080fd5b843593506020850135925060408501359150606085013562000daa8162000d58565b939692955090935050565b60006020828403121562000dc857600080fd5b813562000dd58162000d58565b9392505050565b600080600080600080600060e0888a03121562000df857600080fd5b875162000e058162000d58565b80975050602088015195506040880151945060608801519350608088015162000e2e8162000d58565b8093505060a0880151915060c0880151905092959891949750929550565b60006020828403121562000e5f57600080fd5b5051919050565b6000806040838503121562000e7a57600080fd5b505080516020909101519092909150565b6000821982111562000ead57634e487b7160e01b600052601160045260246000fd5b50019056fe60806040523480156200001157600080fd5b506040516200332b3803806200332b8339810160408190526200003491620001cc565b604080518082018252600281526104c760f41b60208083019182528351808501909452600784526626282a37b5b2b760c91b9084015281519192916200007d9160039162000118565b5080516200009390600490602084019062000118565b5050506001600160a01b038116620000aa57600080fd5b600680546001600160a01b0319166001600160a01b038316179055604051620000d390620001a7565b604051809103906000f080158015620000f0573d6000803e3d6000fd5b50600580546001600160a01b0319166001600160a01b0392909216919091179055506200023b565b8280546200012690620001fe565b90600052602060002090601f0160209004810192826200014a576000855562000195565b82601f106200016557805160ff191683800117855562000195565b8280016001018555821562000195579182015b828111156200019557825182559160200191906001019062000178565b50620001a3929150620001b5565b5090565b610d6280620025c983390190565b5b80821115620001a35760008155600101620001b6565b600060208284031215620001df57600080fd5b81516001600160a01b0381168114620001f757600080fd5b9392505050565b600181811c908216806200021357607f821691505b602082108114156200023557634e487b7160e01b600052602260045260246000fd5b50919050565b61237e806200024b6000396000f3fe6080604052600436106101b95760003560e01c80635fcbd285116100eb578063a457c2d71161008f578063cca3e83211610061578063cca3e832146104cd578063dd62ed3e146104ed578063de703e101461050d578063f835cd3c1461052d57005b8063a457c2d714610467578063a68bb24914610487578063a9059cbb1461049a578063c95f9d0e146104ba57005b80638a9118c0116100c85780638a9118c01461041957806394d0851d1461041f57806395d89b41146104325780639dc29fac1461044757005b80635fcbd285146103a357806370a08231146103db578063870369431461041157005b806335cd41ae1161015d578063582cf7811161012f578063582cf7811461036257806359bf5d39146103755780635e16d9df1461037d5780635e9bc2f91461039057005b806335cd41ae146102e5578063395093511461030d5780633eaaf86b1461032d57806340c10f191461034257005b80630a722753116101965780630a7227531461027357806318160ddd1461029457806323b872dd146102a9578063313ce567146102c957005b806305fe138b146101c257806306fdde0314610221578063095ea7b31461024357005b366101c057005b005b6101d56101d0366004612077565b61054d565b604080516001600160a01b03988916815260208101979097528601949094526060850192909252909316608083015260a082019290925260c081019190915260e0015b60405180910390f35b34801561022d57600080fd5b50610236610af3565b60405161021891906120a3565b34801561024f57600080fd5b5061026361025e3660046120f8565b610b85565b6040519015158152602001610218565b610286610281366004612122565b610b9d565b604051908152602001610218565b3480156102a057600080fd5b50600254610286565b3480156102b557600080fd5b506102636102c436600461213b565b610bb2565b3480156102d557600080fd5b5060405160128152602001610218565b6102f86102f3366004612122565b610bd6565b60408051928352602083019190915201610218565b34801561031957600080fd5b506102636103283660046120f8565b610c97565b34801561033957600080fd5b50610286610cb9565b34801561034e57600080fd5b506101c061035d3660046120f8565b610cc9565b610286610370366004612122565b610d0d565b610286610dcc565b6101c061038b366004612177565b610e52565b6102f861039e366004612122565b611136565b3480156103af57600080fd5b506005546103c3906001600160a01b031681565b6040516001600160a01b039091168152602001610218565b3480156103e757600080fd5b506102866103f63660046121ac565b6001600160a01b031660009081526020819052604090205490565b61028661116d565b47610286565b34801561042b57600080fd5b50306103c3565b34801561043e57600080fd5b5061023661117b565b34801561045357600080fd5b506101c06104623660046120f8565b61118a565b34801561047357600080fd5b506102636104823660046120f8565b6111ca565b6101c0610495366004612177565b611245565b3480156104a657600080fd5b506102636104b53660046120f8565b611441565b6101d56104c8366004612077565b61144f565b3480156104d957600080fd5b506102866104e83660046121ac565b6119ce565b3480156104f957600080fd5b506102866105083660046121c7565b6119ec565b34801561051957600080fd5b50610286610528366004612122565b611a17565b34801561053957600080fd5b506006546103c3906001600160a01b031681565b6000808080808080610563565b60405180910390fd5b600554604051632770a7eb60e21b81526001600160a01b038a81166004830152602482018c905290911690639dc29fac90604401600060405180830381600087803b1580156105b157600080fd5b505af11580156105c5573d6000803e3d6000fd5b505060065460055460408051633eaaf86b60e01b815290516001600160a01b03938416955063095ea7b39450309390921691633eaaf86b91600480820192602092909190829003018186803b15801561061d57600080fd5b505afa158015610631573d6000803e3d6000fd5b505050506040513d601f19601f8201168201806040525081019061065591906121f1565b6006546040516370a0823160e01b81523060048201528e916001600160a01b0316906370a082319060240160206040518083038186803b15801561069857600080fd5b505afa1580156106ac573d6000803e3d6000fd5b505050506040513d601f19601f820116820180604052508101906106d091906121f1565b6106da9190612220565b6106e4919061223f565b6040516001600160e01b031960e085901b1681526001600160a01b0390921660048301526024820152604401602060405180830381600087803b15801561072a57600080fd5b505af115801561073e573d6000803e3d6000fd5b505050506040513d601f19601f820116820180604052508101906107629190612261565b5060065460055460408051633eaaf86b60e01b815290516001600160a01b03938416936323b872dd9330938e939190921691633eaaf86b916004808301926020929190829003018186803b1580156107b957600080fd5b505afa1580156107cd573d6000803e3d6000fd5b505050506040513d601f19601f820116820180604052508101906107f191906121f1565b6006546040516370a0823160e01b81523060048201528f916001600160a01b0316906370a082319060240160206040518083038186803b15801561083457600080fd5b505afa158015610848573d6000803e3d6000fd5b505050506040513d601f19601f8201168201806040525081019061086c91906121f1565b6108769190612220565b610880919061223f565b6040518463ffffffff1660e01b815260040161089e93929190612283565b602060405180830381600087803b1580156108b857600080fd5b505af11580156108cc573d6000803e3d6000fd5b505050506040513d601f19601f820116820180604052508101906108f09190612261565b5060055460408051633eaaf86b60e01b815290516001600160a01b03808c16931691633eaaf86b916004808301926020929190829003018186803b15801561093757600080fd5b505afa15801561094b573d6000803e3d6000fd5b505050506040513d601f19601f8201168201806040525081019061096f91906121f1565b6109798b47612220565b610983919061223f565b604051600081818185875af1925050503d80600081146109bf576040519150601f19603f3d011682016040523d82523d6000602084013e6109c4565b606091505b50505087600560009054906101000a90046001600160a01b03166001600160a01b0316633eaaf86b6040518163ffffffff1660e01b815260040160206040518083038186803b158015610a1657600080fd5b505afa158015610a2a573d6000803e3d6000fd5b505050506040513d601f19601f82011682018060405250810190610a4e91906121f1565b600554604051636651f41960e11b81526001600160a01b038c811660048301528d924792911690819063cca3e8329060240160206040518083038186803b158015610a9857600080fd5b505afa158015610aac573d6000803e3d6000fd5b505050506040513d601f19601f82011682018060405250810190610ad091906121f1565b610ad8610dcc565b96509650965096509650965096505b92959891949750929550565b606060038054610b02906122a7565b80601f0160208091040260200160405190810160405280929190818152602001828054610b2e906122a7565b8015610b7b5780601f10610b5057610100808354040283529160200191610b7b565b820191906000526020600020905b815481529060010190602001808311610b5e57829003601f168201915b5050505050905090565b600033610b93818585611ac9565b5060019392505050565b600080610bab836063612220565b9392505050565b600033610bc0858285611bee565b610bcb858585611c68565b506001949350505050565b6000806000610be3610dcc565b90506000610bf185476122e2565b90506000610c00866063612220565b90506000610c0f836064612220565b9050600083118015610c215750600084115b610c3d5760405162461bcd60e51b815260040161055a906122f9565b6000610c498289612330565b610c538685612220565b610c5d919061223f565b905080887fcfaa9fe844caafbeed42965f22ddbb67532fa515e7284d5c317af5c8ab8d3e9e60405160405180910390a39795505050505050565b600033610b93818585610caa83836119ec565b610cb49190612330565b611ac9565b6000610cc460025490565b905090565b60405181906001600160a01b038416907fb7656808f0e04b4af7a20f7ef1caa7669f0d781f1ca4cba31a3ba467880766c990600090a3610d098282611e36565b5050565b600080610d18610dcc565b90506000610d2684476122e2565b90506000610d35856063612220565b90506000610d44836064612220565b9050600083118015610d565750600084115b610d725760405162461bcd60e51b815260040161055a906122f9565b6000610d7e8288612330565b610d888685612220565b610d92919061223f565b905080877fcfaa9fe844caafbeed42965f22ddbb67532fa515e7284d5c317af5c8ab8d3e9e60405160405180910390a39695505050505050565b6006546040516370a0823160e01b815230600482015260009182916001600160a01b03909116906370a082319060240160206040518083038186803b158015610e1457600080fd5b505afa158015610e28573d6000803e3d6000fd5b505050506040513d601f19601f82011682018060405250810190610e4c91906121f1565b92915050565b6000610e5c610dcc565b9050476000610e6c346063612220565b90506000610e7b846064612220565b9050600084118015610e8d5750600083115b610ea95760405162461bcd60e51b815260040161055a906122f9565b6000610eb58234612330565b610ebf8585612220565b610ec9919061223f565b905086811015610f1b5760405162461bcd60e51b815260206004820152601d60248201527f746f206c6974746c6520616d6f756e7420666f72207377617070696e67000000604482015260640161055a565b60065460405163095ea7b360e01b81526001600160a01b0388811660048301523460248301529091169063095ea7b390604401602060405180830381600087803b158015610f6857600080fd5b505af1158015610f7c573d6000803e3d6000fd5b505050506040513d601f19601f82011682018060405250810190610fa09190612261565b506006546040516323b872dd60e01b81526001600160a01b03909116906323b872dd90610fd590899030903490600401612283565b602060405180830381600087803b158015610fef57600080fd5b505af1158015611003573d6000803e3d6000fd5b505050506040513d601f19601f820116820180604052508101906110279190612261565b50600080876001600160a01b03168960405160006040518083038185875af1925050503d8060008114611076576040519150601f19603f3d011682016040523d82523d6000602084013e61107b565b606091505b50604051680e8ded6cadc5ecae8d60bb1b8152919350915060090160405190819003812060065485835290916001600160a01b038b81169216907fce9f99712c8bc2e049d7626ab6410b1a43910ca5354c5de77a14024599156ba89060200160405180910390a4604080516001600160a01b038a168152602081018590528691869189917f442eeca641ffac06d7005f2ef6bc3f115b4e51a3324d56430545e2561f174f75910160405180910390a450505050505050505050565b6000808061114484476122e2565b9050600081611151610dcc565b61115b9087612220565b611165919061223f565b959350505050565b600080610e4c476064612220565b606060048054610b02906122a7565b60405181906001600160a01b038416907f8b1897d4e7a3b42570088bb1182eb6518c96a754d44bc9edd4669568bfa9832690600090a3610d098282611f15565b600033816111d882866119ec565b9050838110156112385760405162461bcd60e51b815260206004820152602560248201527f45524332303a2064656372656173656420616c6c6f77616e63652062656c6f77604482015264207a65726f60d81b606482015260840161055a565b610bcb8286868403611ac9565b600061124f610dcc565b9050600061125d34476122e2565b9050600061126c346063612220565b9050600061127b836064612220565b905060008311801561128d5750600084115b6112a95760405162461bcd60e51b815260040161055a906122f9565b60006112b58234612330565b6112bf8685612220565b6112c9919061223f565b60065460405163095ea7b360e01b8152306004820152602481018a90529192506001600160a01b03169063095ea7b390604401602060405180830381600087803b15801561131657600080fd5b505af115801561132a573d6000803e3d6000fd5b505050506040513d601f19601f8201168201806040525081019061134e9190612261565b506006546040516323b872dd60e01b81526001600160a01b03909116906323b872dd906113839030908a908c90600401612283565b602060405180830381600087803b15801561139d57600080fd5b505af11580156113b1573d6000803e3d6000fd5b505050506040513d601f19601f820116820180604052508101906113d59190612261565b506040516832ba3417ba37b5b2b760b91b81526009016040519081900381206006548a835290916001600160a01b038981169216907fce9f99712c8bc2e049d7626ab6410b1a43910ca5354c5de77a14024599156ba89060200160405180910390a45050505050505050565b600033610b93818585611c68565b60008080808080808061146234476122e2565b905061146c610dcc565b61167c576005546040516340c10f1960e01b81526001600160a01b038b81166004830152602482018d9052909116906340c10f1990604401600060405180830381600087803b1580156114be57600080fd5b505af11580156114d2573d6000803e3d6000fd5b50506006546040516323b872dd60e01b81526001600160a01b0390911692506323b872dd915061150a908c9030908f90600401612283565b602060405180830381600087803b15801561152457600080fd5b505af1158015611538573d6000803e3d6000fd5b505050506040513d601f19601f8201168201806040525081019061155c9190612261565b5060055460408051633eaaf86b60e01b815290518b926001600160a01b031691633eaaf86b916004808301926020929190829003018186803b1580156115a157600080fd5b505afa1580156115b5573d6000803e3d6000fd5b505050506040513d601f19601f820116820180604052508101906115d991906121f1565b6115e1610dcc565b600554604051636651f41960e11b81526001600160a01b038e8116600483015247921690819063cca3e8329060240160206040518083038186803b15801561162857600080fd5b505afa15801561163c573d6000803e3d6000fd5b505050506040513d601f19601f8201168201806040525081019061166091906121f1565b611668610dcc565b975097509750975097509750975050610ae7565b80611685610dcc565b61168f9034612220565b611699919061223f565b8a101561170e5760405162461bcd60e51b815260206004820152603c60248201527f6e6f74206163636570746564206c6971756964697479206c657373207468656e60448201527f20746865206d696e696d756d20616d6f756e7420616363657074656400000000606482015260840161055a565b6006546001600160a01b03166323b872dd8a308461172a610dcc565b6117349034612220565b61173e919061223f565b6040518463ffffffff1660e01b815260040161175c93929190612283565b602060405180830381600087803b15801561177657600080fd5b505af115801561178a573d6000803e3d6000fd5b505050506040513d601f19601f820116820180604052508101906117ae9190612261565b5060055460408051633eaaf86b60e01b815290516001600160a01b03909216916340c10f19918c91859134918691633eaaf86b916004808301926020929190829003018186803b15801561180157600080fd5b505afa158015611815573d6000803e3d6000fd5b505050506040513d601f19601f8201168201806040525081019061183991906121f1565b6118439190612220565b61184d919061223f565b6040516001600160e01b031960e085901b1681526001600160a01b0390921660048301526024820152604401600060405180830381600087803b15801561189357600080fd5b505af11580156118a7573d6000803e3d6000fd5b5050505088600560009054906101000a90046001600160a01b03166001600160a01b0316633eaaf86b6040518163ffffffff1660e01b815260040160206040518083038186803b1580156118fa57600080fd5b505afa15801561190e573d6000803e3d6000fd5b505050506040513d601f19601f8201168201806040525081019061193291906121f1565b8234600560009054906101000a90046001600160a01b03166001600160a01b0316633eaaf86b6040518163ffffffff1660e01b815260040160206040518083038186803b15801561198257600080fd5b505afa158015611996573d6000803e3d6000fd5b505050506040513d601f19601f820116820180604052508101906119ba91906121f1565b6119c49190612220565b6115e1919061223f565b6001600160a01b038116600090815260208190526040812054610e4c565b6001600160a01b03918216600090815260016020908152604080832093909416825291909152205490565b600080611a22610dcc565b9050476000611a32856063612220565b90506000611a41846064612220565b9050600084118015611a535750600083115b611a6f5760405162461bcd60e51b815260040161055a906122f9565b6000611a7b8288612330565b611a858585612220565b611a8f919061223f565b905081817fcfaa9fe844caafbeed42965f22ddbb67532fa515e7284d5c317af5c8ab8d3e9e60405160405180910390a39695505050505050565b6001600160a01b038316611b2b5760405162461bcd60e51b8152602060048201526024808201527f45524332303a20617070726f76652066726f6d20746865207a65726f206164646044820152637265737360e01b606482015260840161055a565b6001600160a01b038216611b8c5760405162461bcd60e51b815260206004820152602260248201527f45524332303a20617070726f766520746f20746865207a65726f206164647265604482015261737360f01b606482015260840161055a565b6001600160a01b0383811660008181526001602090815260408083209487168084529482529182902085905590518481527f8c5be1e5ebec7d5bd14f71427d1e84f3dd0314c0f7b2291e5b200ac8c7c3b92591015b60405180910390a3505050565b6000611bfa84846119ec565b90506000198114611c625781811015611c555760405162461bcd60e51b815260206004820152601d60248201527f45524332303a20696e73756666696369656e7420616c6c6f77616e6365000000604482015260640161055a565b611c628484848403611ac9565b50505050565b6001600160a01b038316611ccc5760405162461bcd60e51b815260206004820152602560248201527f45524332303a207472616e736665722066726f6d20746865207a65726f206164604482015264647265737360d81b606482015260840161055a565b6001600160a01b038216611d2e5760405162461bcd60e51b815260206004820152602360248201527f45524332303a207472616e7366657220746f20746865207a65726f206164647260448201526265737360e81b606482015260840161055a565b6001600160a01b03831660009081526020819052604090205481811015611da65760405162461bcd60e51b815260206004820152602660248201527f45524332303a207472616e7366657220616d6f756e7420657863656564732062604482015265616c616e636560d01b606482015260840161055a565b6001600160a01b03808516600090815260208190526040808220858503905591851681529081208054849290611ddd908490612330565b92505081905550826001600160a01b0316846001600160a01b03167fddf252ad1be2c89b69c2b068fc378daa952ba7f163c4a11628f55a4df523b3ef84604051611e2991815260200190565b60405180910390a3611c62565b6001600160a01b038216611e8c5760405162461bcd60e51b815260206004820152601f60248201527f45524332303a206d696e7420746f20746865207a65726f206164647265737300604482015260640161055a565b8060026000828254611e9e9190612330565b90915550506001600160a01b03821660009081526020819052604081208054839290611ecb908490612330565b90915550506040518181526001600160a01b038316906000907fddf252ad1be2c89b69c2b068fc378daa952ba7f163c4a11628f55a4df523b3ef9060200160405180910390a35050565b6001600160a01b038216611f755760405162461bcd60e51b815260206004820152602160248201527f45524332303a206275726e2066726f6d20746865207a65726f206164647265736044820152607360f81b606482015260840161055a565b6001600160a01b03821660009081526020819052604090205481811015611fe95760405162461bcd60e51b815260206004820152602260248201527f45524332303a206275726e20616d6f756e7420657863656564732062616c616e604482015261636560f01b606482015260840161055a565b6001600160a01b03831660009081526020819052604081208383039055600280548492906120189084906122e2565b90915550506040518281526000906001600160a01b038516907fddf252ad1be2c89b69c2b068fc378daa952ba7f163c4a11628f55a4df523b3ef90602001611be1565b80356001600160a01b038116811461207257600080fd5b919050565b6000806040838503121561208a57600080fd5b8235915061209a6020840161205b565b90509250929050565b600060208083528351808285015260005b818110156120d0578581018301518582016040015282016120b4565b818111156120e2576000604083870101525b50601f01601f1916929092016040019392505050565b6000806040838503121561210b57600080fd5b6121148361205b565b946020939093013593505050565b60006020828403121561213457600080fd5b5035919050565b60008060006060848603121561215057600080fd5b6121598461205b565b92506121676020850161205b565b9150604084013590509250925092565b60008060006060848603121561218c57600080fd5b83359250602084013591506121a36040850161205b565b90509250925092565b6000602082840312156121be57600080fd5b610bab8261205b565b600080604083850312156121da57600080fd5b6121e38361205b565b915061209a6020840161205b565b60006020828403121561220357600080fd5b5051919050565b634e487b7160e01b600052601160045260246000fd5b600081600019048311821515161561223a5761223a61220a565b500290565b60008261225c57634e487b7160e01b600052601260045260246000fd5b500490565b60006020828403121561227357600080fd5b81518015158114610bab57600080fd5b6001600160a01b039384168152919092166020820152604081019190915260600190565b600181811c908216806122bb57607f821691505b602082108114156122dc57634e487b7160e01b600052602260045260246000fd5b50919050565b6000828210156122f4576122f461220a565b500390565b60208082526017908201527f696e76616c696465207265736572766520616d6f756e74000000000000000000604082015260600190565b600082198211156123435761234361220a565b50019056fea2646970667358221220d75d7772459e7671cb972ef6bf7cca2c1d1e51090107c842b8b30500f8a92c8e64736f6c6343000808003360806040523480156200001157600080fd5b50604080518082018252600281526104c760f41b60208083019182528351808501909452600784526626282a37b5b2b760c91b9084015281519192916200005b916003916200007a565b508051620000719060049060208401906200007a565b5050506200015d565b828054620000889062000120565b90600052602060002090601f016020900481019282620000ac5760008555620000f7565b82601f10620000c757805160ff1916838001178555620000f7565b82800160010185558215620000f7579182015b82811115620000f7578251825591602001919060010190620000da565b506200010592915062000109565b5090565b5b808211156200010557600081556001016200010a565b600181811c908216806200013557607f821691505b602082108114156200015757634e487b7160e01b600052602260045260246000fd5b50919050565b610bf5806200016d6000396000f3fe608060405234801561001057600080fd5b50600436106101005760003560e01c806370a0823111610097578063a457c2d711610066578063a457c2d7146101fc578063a9059cbb1461020f578063cca3e832146101aa578063dd62ed3e1461022257600080fd5b806370a08231146101aa57806394d0851d146101d357806395d89b41146101e15780639dc29fac146101e957600080fd5b8063313ce567116100d3578063313ce5671461016b578063395093511461017a5780633eaaf86b1461018d57806340c10f191461019557600080fd5b806306fdde0314610105578063095ea7b31461012357806318160ddd1461014657806323b872dd14610158575b600080fd5b61010d610235565b60405161011a9190610a13565b60405180910390f35b610136610131366004610a84565b6102c7565b604051901515815260200161011a565b6002545b60405190815260200161011a565b610136610166366004610aae565b6102df565b6040516012815260200161011a565b610136610188366004610a84565b610303565b61014a610325565b6101a86101a3366004610a84565b610335565b005b61014a6101b8366004610aea565b6001600160a01b031660009081526020819052604090205490565b60405130815260200161011a565b61010d610379565b6101a86101f7366004610a84565b610388565b61013661020a366004610a84565b6103c8565b61013661021d366004610a84565b610448565b61014a610230366004610b0c565b610456565b60606003805461024490610b3f565b80601f016020809104026020016040519081016040528092919081815260200182805461027090610b3f565b80156102bd5780601f10610292576101008083540402835291602001916102bd565b820191906000526020600020905b8154815290600101906020018083116102a057829003601f168201915b5050505050905090565b6000336102d5818585610481565b5060019392505050565b6000336102ed8582856105a6565b6102f8858585610620565b506001949350505050565b6000336102d58185856103168383610456565b6103209190610b90565b610481565b600061033060025490565b905090565b60405181906001600160a01b038416907fb7656808f0e04b4af7a20f7ef1caa7669f0d781f1ca4cba31a3ba467880766c990600090a361037582826107ee565b5050565b60606004805461024490610b3f565b60405181906001600160a01b038416907f8b1897d4e7a3b42570088bb1182eb6518c96a754d44bc9edd4669568bfa9832690600090a361037582826108cd565b600033816103d68286610456565b90508381101561043b5760405162461bcd60e51b815260206004820152602560248201527f45524332303a2064656372656173656420616c6c6f77616e63652062656c6f77604482015264207a65726f60d81b60648201526084015b60405180910390fd5b6102f88286868403610481565b6000336102d5818585610620565b6001600160a01b03918216600090815260016020908152604080832093909416825291909152205490565b6001600160a01b0383166104e35760405162461bcd60e51b8152602060048201526024808201527f45524332303a20617070726f76652066726f6d20746865207a65726f206164646044820152637265737360e01b6064820152608401610432565b6001600160a01b0382166105445760405162461bcd60e51b815260206004820152602260248201527f45524332303a20617070726f766520746f20746865207a65726f206164647265604482015261737360f01b6064820152608401610432565b6001600160a01b0383811660008181526001602090815260408083209487168084529482529182902085905590518481527f8c5be1e5ebec7d5bd14f71427d1e84f3dd0314c0f7b2291e5b200ac8c7c3b92591015b60405180910390a3505050565b60006105b28484610456565b9050600019811461061a578181101561060d5760405162461bcd60e51b815260206004820152601d60248201527f45524332303a20696e73756666696369656e7420616c6c6f77616e63650000006044820152606401610432565b61061a8484848403610481565b50505050565b6001600160a01b0383166106845760405162461bcd60e51b815260206004820152602560248201527f45524332303a207472616e736665722066726f6d20746865207a65726f206164604482015264647265737360d81b6064820152608401610432565b6001600160a01b0382166106e65760405162461bcd60e51b815260206004820152602360248201527f45524332303a207472616e7366657220746f20746865207a65726f206164647260448201526265737360e81b6064820152608401610432565b6001600160a01b0383166000908152602081905260409020548181101561075e5760405162461bcd60e51b815260206004820152602660248201527f45524332303a207472616e7366657220616d6f756e7420657863656564732062604482015265616c616e636560d01b6064820152608401610432565b6001600160a01b03808516600090815260208190526040808220858503905591851681529081208054849290610795908490610b90565b92505081905550826001600160a01b0316846001600160a01b03167fddf252ad1be2c89b69c2b068fc378daa952ba7f163c4a11628f55a4df523b3ef846040516107e191815260200190565b60405180910390a361061a565b6001600160a01b0382166108445760405162461bcd60e51b815260206004820152601f60248201527f45524332303a206d696e7420746f20746865207a65726f2061646472657373006044820152606401610432565b80600260008282546108569190610b90565b90915550506001600160a01b03821660009081526020819052604081208054839290610883908490610b90565b90915550506040518181526001600160a01b038316906000907fddf252ad1be2c89b69c2b068fc378daa952ba7f163c4a11628f55a4df523b3ef9060200160405180910390a35050565b6001600160a01b03821661092d5760405162461bcd60e51b815260206004820152602160248201527f45524332303a206275726e2066726f6d20746865207a65726f206164647265736044820152607360f81b6064820152608401610432565b6001600160a01b038216600090815260208190526040902054818110156109a15760405162461bcd60e51b815260206004820152602260248201527f45524332303a206275726e20616d6f756e7420657863656564732062616c616e604482015261636560f01b6064820152608401610432565b6001600160a01b03831660009081526020819052604081208383039055600280548492906109d0908490610ba8565b90915550506040518281526000906001600160a01b038516907fddf252ad1be2c89b69c2b068fc378daa952ba7f163c4a11628f55a4df523b3ef90602001610599565b600060208083528351808285015260005b81811015610a4057858101830151858201604001528201610a24565b81811115610a52576000604083870101525b50601f01601f1916929092016040019392505050565b80356001600160a01b0381168114610a7f57600080fd5b919050565b60008060408385031215610a9757600080fd5b610aa083610a68565b946020939093013593505050565b600080600060608486031215610ac357600080fd5b610acc84610a68565b9250610ada60208501610a68565b9150604084013590509250925092565b600060208284031215610afc57600080fd5b610b0582610a68565b9392505050565b60008060408385031215610b1f57600080fd5b610b2883610a68565b9150610b3660208401610a68565b90509250929050565b600181811c90821680610b5357607f821691505b60208210811415610b7457634e487b7160e01b600052602260045260246000fd5b50919050565b634e487b7160e01b600052601160045260246000fd5b60008219821115610ba357610ba3610b7a565b500190565b600082821015610bba57610bba610b7a565b50039056fea2646970667358221220c1cad5f121f7371680e535ac51af499ee9735c4dcda66ea809a69819c1245be564736f6c634300080800333c997e25e3fcbbf139bd19b21a519faded9566e7faa33e5eda2d70d3edb95250a2646970667358221220b16c439ac0d5cb50ce8eb2c1632fe6e6c903feaf14d6858e38c448f431dcceca64736f6c63430008080033",
  "devdoc": {
    "kind": "dev",
    "methods": {},
    "version": 1
  },
  "userdoc": {
    "kind": "user",
    "methods": {},
    "version": 1
  },
  "storageLayout": {
    "storage": [
      {
        "astId": 717,
        "contract": "contracts/Dex.sol:Dex",
        "label": "pool",
        "offset": 0,
        "slot": "0",
        "type": "t_contract(Pool)2339"
      },
      {
        "astId": 786,
        "contract": "contracts/Dex.sol:Dex",
        "label": "PoolMapping",
        "offset": 0,
        "slot": "1",
        "type": "t_mapping(t_uint256,t_contract(Pool)2339)"
      },
      {
        "astId": 790,
        "contract": "contracts/Dex.sol:Dex",
        "label": "PoolMappingAddress",
        "offset": 0,
        "slot": "2",
        "type": "t_mapping(t_uint256,t_address)"
      },
      {
        "astId": 792,
        "contract": "contracts/Dex.sol:Dex",
        "label": "counter",
        "offset": 0,
        "slot": "3",
        "type": "t_uint256"
      }
    ],
    "types": {
      "t_address": {
        "encoding": "inplace",
        "label": "address",
        "numberOfBytes": "20"
      },
      "t_contract(Pool)2339": {
        "encoding": "inplace",
        "label": "contract Pool",
        "numberOfBytes": "20"
      },
      "t_mapping(t_uint256,t_address)": {
        "encoding": "mapping",
        "key": "t_uint256",
        "label": "mapping(uint256 => address)",
        "numberOfBytes": "32",
        "value": "t_address"
      },
      "t_mapping(t_uint256,t_contract(Pool)2339)": {
        "encoding": "mapping",
        "key": "t_uint256",
        "label": "mapping(uint256 => contract Pool)",
        "numberOfBytes": "32",
        "value": "t_contract(Pool)2339"
      },
      "t_uint256": {
        "encoding": "inplace",
        "label": "uint256",
        "numberOfBytes": "32"
      }
    }
  }
}