{
  "address": "0x9fE46736679d2D9a65F0992F2272dE9f3c7fa6e0",
  "abi": [
    {
      "inputs": [],
      "stateMutability": "payable",
      "type": "constructor"
    },
    {
      "anonymous": false,
      "inputs": [
        {
          "indexed": true,
          "internalType": "address",
          "name": "_createBy",
          "type": "address"
        },
        {
          "indexed": true,
          "internalType": "address",
          "name": "_token",
          "type": "address"
        },
        {
          "indexed": true,
          "internalType": "uint256",
          "name": "_id",
          "type": "uint256"
        }
      ],
      "name": "createPoolEvent",
      "type": "event"
    },
    {
      "anonymous": false,
      "inputs": [
        {
          "indexed": true,
          "internalType": "address",
          "name": "_from",
          "type": "address"
        },
        {
          "indexed": true,
          "internalType": "uint256",
          "name": "_ldSupply",
          "type": "uint256"
        },
        {
          "indexed": true,
          "internalType": "uint256",
          "name": "_mintedAmount",
          "type": "uint256"
        },
        {
          "indexed": false,
          "internalType": "uint256",
          "name": "_eth",
          "type": "uint256"
        },
        {
          "indexed": false,
          "internalType": "uint256",
          "name": "_lpTokenBalance",
          "type": "uint256"
        },
        {
          "indexed": false,
          "internalType": "uint256",
          "name": "_amount",
          "type": "uint256"
        }
      ],
      "name": "liquidity",
      "type": "event"
    },
    {
      "anonymous": false,
      "inputs": [
        {
          "indexed": true,
          "internalType": "address",
          "name": "_from",
          "type": "address"
        },
        {
          "indexed": true,
          "internalType": "uint256",
          "name": "_ldSupply",
          "type": "uint256"
        },
        {
          "indexed": true,
          "internalType": "uint256",
          "name": "_tokenBack",
          "type": "uint256"
        },
        {
          "indexed": false,
          "internalType": "uint256",
          "name": "_ethBack",
          "type": "uint256"
        },
        {
          "indexed": false,
          "internalType": "uint256",
          "name": "_lpTokenBalance",
          "type": "uint256"
        },
        {
          "indexed": false,
          "internalType": "uint256",
          "name": "_amount",
          "type": "uint256"
        }
      ],
      "name": "liquidityRemove",
      "type": "event"
    },
    {
      "anonymous": false,
      "inputs": [
        {
          "indexed": true,
          "internalType": "uint256",
          "name": "_first",
          "type": "uint256"
        },
        {
          "indexed": true,
          "internalType": "uint256",
          "name": "_second",
          "type": "uint256"
        }
      ],
      "name": "test",
      "type": "event"
    },
    {
      "anonymous": false,
      "inputs": [
        {
          "indexed": true,
          "internalType": "address",
          "name": "_useraddress",
          "type": "address"
        }
      ],
      "name": "userAddress",
      "type": "event"
    },
    {
      "inputs": [
        {
          "internalType": "uint256",
          "name": "",
          "type": "uint256"
        }
      ],
      "name": "PoolMapping",
      "outputs": [
        {
          "internalType": "contract Pool",
          "name": "",
          "type": "address"
        }
      ],
      "stateMutability": "view",
      "type": "function"
    },
    {
      "inputs": [
        {
          "internalType": "uint256",
          "name": "",
          "type": "uint256"
        }
      ],
      "name": "PoolMappingAddress",
      "outputs": [
        {
          "internalType": "address",
          "name": "",
          "type": "address"
        }
      ],
      "stateMutability": "view",
      "type": "function"
    },
    {
      "inputs": [
        {
          "internalType": "uint256",
          "name": "_pool",
          "type": "uint256"
        },
        {
          "internalType": "uint256",
          "name": "_amount",
          "type": "uint256"
        }
      ],
      "name": "_addLiquidity",
      "outputs": [],
      "stateMutability": "payable",
      "type": "function"
    },
    {
      "inputs": [
        {
          "internalType": "uint256",
          "name": "_pool",
          "type": "uint256"
        },
        {
          "internalType": "uint256",
          "name": "_amount",
          "type": "uint256"
        }
      ],
      "name": "_getSwapAmount",
      "outputs": [
        {
          "internalType": "uint256",
          "name": "",
          "type": "uint256"
        }
      ],
      "stateMutability": "nonpayable",
      "type": "function"
    },
    {
      "inputs": [
        {
          "internalType": "uint256",
          "name": "_pool",
          "type": "uint256"
        },
        {
          "internalType": "uint256",
          "name": "_amount",
          "type": "uint256"
        }
      ],
      "name": "_getSwapAmountEth",
      "outputs": [
        {
          "internalType": "uint256",
          "name": "",
          "type": "uint256"
        }
      ],
      "stateMutability": "payable",
      "type": "function"
    },
    {
      "inputs": [
        {
          "internalType": "uint256",
          "name": "_pool",
          "type": "uint256"
        },
        {
          "internalType": "uint256",
          "name": "_amount",
          "type": "uint256"
        }
      ],
      "name": "_removeLiquidity",
      "outputs": [],
      "stateMutability": "payable",
      "type": "function"
    },
    {
      "inputs": [
        {
          "internalType": "uint256",
          "name": "_pool",
          "type": "uint256"
        },
        {
          "internalType": "uint256",
          "name": "_amount",
          "type": "uint256"
        }
      ],
      "name": "_swapEthToToken",
      "outputs": [],
      "stateMutability": "payable",
      "type": "function"
    },
    {
      "inputs": [
        {
          "internalType": "uint256",
          "name": "_pool",
          "type": "uint256"
        },
        {
          "internalType": "uint256",
          "name": "_amount",
          "type": "uint256"
        },
        {
          "internalType": "uint256",
          "name": "_estimatedAmount",
          "type": "uint256"
        }
      ],
      "name": "_swapTokenToEth",
      "outputs": [],
      "stateMutability": "payable",
      "type": "function"
    },
    {
      "inputs": [
        {
          "internalType": "uint256",
          "name": "_pool",
          "type": "uint256"
        },
        {
          "internalType": "uint256",
          "name": "_amount",
          "type": "uint256"
        }
      ],
      "name": "_test",
      "outputs": [],
      "stateMutability": "payable",
      "type": "function"
    },
    {
      "inputs": [],
      "name": "counter",
      "outputs": [
        {
          "internalType": "uint256",
          "name": "",
          "type": "uint256"
        }
      ],
      "stateMutability": "view",
      "type": "function"
    },
    {
      "inputs": [
        {
          "internalType": "address",
          "name": "tokenA",
          "type": "address"
        }
      ],
      "name": "createPool",
      "outputs": [],
      "stateMutability": "payable",
      "type": "function"
    },
    {
      "inputs": [
        {
          "internalType": "uint256",
          "name": "_pool",
          "type": "uint256"
        }
      ],
      "name": "getPoolAddress",
      "outputs": [
        {
          "internalType": "address",
          "name": "",
          "type": "address"
        }
      ],
      "stateMutability": "view",
      "type": "function"
    },
    {
      "inputs": [],
      "name": "pool",
      "outputs": [
        {
          "internalType": "contract Pool",
          "name": "",
          "type": "address"
        }
      ],
      "stateMutability": "view",
      "type": "function"
    }
  ],
  "transactionHash": "0xa0147085781f34fab27e0a5d067d6a6d931e501059586f762fdf3b8a46f193cb",
  "args": [],
  "numDeployments": 1,
  "solcInputHash": "e1a1fead98be46dbe2c4f5f2e36a9516",
  "bytecode": "0x60806040526137f6806100136000396000f3fe6080604052600436106100c15760003560e01c80631697b54d1161007f5780637fcc8d51116100595780637fcc8d51146102175780639049f9d21461022a5780639e8af2af14610217578063ecc861d01461023d57600080fd5b80631697b54d146101ce57806316f0115b146101e157806361bc221a1461020157600080fd5b8062a5ae21146100c657806304c55b92146101195780630b6af7761461014f5780631269e22f1461016457806315f08f2c1461017757806316095f6c146101ad575b600080fd5b3480156100d257600080fd5b506100fc6100e13660046106f8565b6000908152600160205260409020546001600160a01b031690565b6040516001600160a01b0390911681526020015b60405180910390f35b34801561012557600080fd5b506100fc6101343660046106f8565b6001602052600090815260409020546001600160a01b031681565b61016261015d366004610711565b61025d565b005b610162610172366004610711565b610370565b34801561018357600080fd5b506100fc6101923660046106f8565b6002602052600090815260409020546001600160a01b031681565b6101c06101bb366004610711565b6103f6565b604051908152602001610110565b6101626101dc366004610733565b610499565b3480156101ed57600080fd5b506000546100fc906001600160a01b031681565b34801561020d57600080fd5b506101c060035481565b610162610225366004610711565b610527565b610162610238366004610777565b610558565b34801561024957600080fd5b506101c0610258366004610711565b610650565b6000828152600160205260408082205482546001600160a01b0319166001600160a01b03909116908117835590516305fe138b60e01b81526004810184905233602482015282918291829182916305fe138b9060440160a060405180830381600087803b1580156102cd57600080fd5b505af11580156102e1573d6000803e3d6000fd5b505050506040513d601f19601f82011682018060405250810190610305919061079b565b945094509450945094508284866001600160a01b03167f02613a8c3409a4eef205ce5358961a11bccee91adbb07c6aa1ad1435b17f3fc685858b60405161035f939291909283526020830191909152604082015260600190565b60405180910390a450505050505050565b6000828152600160205260408082205482546001600160a01b0319166001600160a01b0390911690811790925551636208d8e560e11b81526004810183905233602482015263c411b1ca9034906044016000604051808303818588803b1580156103d957600080fd5b505af11580156103ed573d6000803e3d6000fd5b50505050505050565b6000828152600160205260408082205482546001600160a01b0319166001600160a01b039091169081178355905163582cf78160e01b81526004810184905263582cf7819034906024016020604051808303818588803b15801561045957600080fd5b505af115801561046d573d6000803e3d6000fd5b50505050506040513d601f19601f8201168201806040525081019061049291906107e4565b5092915050565b6000838152600160205260408082205482546001600160a01b0319166001600160a01b0390911690811790925551635e16d9df60e01b81526004810184905260248101839052336044820152635e16d9df9034906064016000604051808303818588803b15801561050957600080fd5b505af115801561051d573d6000803e3d6000fd5b5050505050505050565b604051819083907feb8ac9210327650aab0044de896b150391af3be06f43d0f74c01f05633b97a7090600090a35050565b80604051610565906106ea565b6001600160a01b039091168152602001604051809103906000f080158015610591573d6000803e3d6000fd5b50600080546001600160a01b039283166001600160a01b0319918216811783556003805484526001602052604080852080549094169092179092559054825491519093919091169133917ff86e3d2fc794443a042a24aab307e2450c5ea5ddde4894a5db19df1339e0e23b9190a4600080546040516001600160a01b03909116917f360500cc0bb9908acbdda3a2865dcefc4ae2dbe309f4fbedf074eb0a9a9a16ac91a260016003600082825461064891906107fd565b909155505050565b6000828152600160205260408082205482546001600160a01b0319166001600160a01b0390911690811783559051630de703e160e41b81526004810184905263de703e1090602401602060405180830381600087803b1580156106b257600080fd5b505af11580156106c6573d6000803e3d6000fd5b505050506040513d601f19601f8201168201806040525081019061049291906107e4565b612f9d806200082483390190565b60006020828403121561070a57600080fd5b5035919050565b6000806040838503121561072457600080fd5b50508035926020909101359150565b60008060006060848603121561074857600080fd5b505081359360208301359350604090920135919050565b6001600160a01b038116811461077457600080fd5b50565b60006020828403121561078957600080fd5b81356107948161075f565b9392505050565b600080600080600060a086880312156107b357600080fd5b85516107be8161075f565b602087015160408801516060890151608090990151929a91995097965090945092505050565b6000602082840312156107f657600080fd5b5051919050565b6000821982111561081e57634e487b7160e01b600052601160045260246000fd5b50019056fe60806040523480156200001157600080fd5b5060405162002f9d38038062002f9d8339810160408190526200003491620001cc565b604080518082018252600281526104c760f41b60208083019182528351808501909452600784526626282a37b5b2b760c91b9084015281519192916200007d9160039162000118565b5080516200009390600490602084019062000118565b5050506001600160a01b038116620000aa57600080fd5b600680546001600160a01b0319166001600160a01b038316179055604051620000d390620001a7565b604051809103906000f080158015620000f0573d6000803e3d6000fd5b50600580546001600160a01b0319166001600160a01b0392909216919091179055506200023b565b8280546200012690620001fe565b90600052602060002090601f0160209004810192826200014a576000855562000195565b82601f106200016557805160ff191683800117855562000195565b8280016001018555821562000195579182015b828111156200019557825182559160200191906001019062000178565b50620001a3929150620001b5565b5090565b610d49806200225483390190565b5b80821115620001a35760008155600101620001b6565b600060208284031215620001df57600080fd5b81516001600160a01b0381168114620001f757600080fd5b9392505050565b600181811c908216806200021357607f821691505b602082108114156200023557634e487b7160e01b600052602260045260246000fd5b50919050565b612009806200024b6000396000f3fe6080604052600436106101435760003560e01c80635fcbd285116100b0578063c411b1ca1161006c578063c411b1ca146103a9578063c95f9d0e146103bc578063cca3e832146103cf578063dd62ed3e146103ef578063de703e101461040f578063f835cd3c1461042f57005b80635fcbd285146102c657806370a08231146102fe57806395d89b41146103345780639dc29fac14610349578063a457c2d714610369578063a9059cbb1461038957005b806339509351116100ff57806339509351146102435780633eaaf86b1461026357806340c10f1914610278578063582cf7811461029857806359bf5d39146102ab5780635e16d9df146102b357005b806305fe138b1461014c57806306fdde0314610196578063095ea7b3146101b857806318160ddd146101e857806323b872dd14610207578063313ce5671461022757005b3661014a57005b005b61015f61015a366004611cfb565b61044f565b604080516001600160a01b0390961686526020860194909452928401919091526060830152608082015260a0015b60405180910390f35b3480156101a257600080fd5b506101ab61082e565b60405161018d9190611d27565b3480156101c457600080fd5b506101d86101d3366004611d7c565b6108c0565b604051901515815260200161018d565b3480156101f457600080fd5b506002545b60405190815260200161018d565b34801561021357600080fd5b506101d8610222366004611da6565b6108d8565b34801561023357600080fd5b506040516012815260200161018d565b34801561024f57600080fd5b506101d861025e366004611d7c565b6108fc565b34801561026f57600080fd5b506101f961091e565b34801561028457600080fd5b5061014a610293366004611d7c565b61092e565b6101f96102a6366004611de2565b610972565b6101f9610a31565b61014a6102c1366004611dfb565b610ab7565b3480156102d257600080fd5b506005546102e6906001600160a01b031681565b6040516001600160a01b03909116815260200161018d565b34801561030a57600080fd5b506101f9610319366004611e30565b6001600160a01b031660009081526020819052604090205490565b34801561034057600080fd5b506101ab610d9c565b34801561035557600080fd5b5061014a610364366004611d7c565b610dab565b34801561037557600080fd5b506101d8610384366004611d7c565b610deb565b34801561039557600080fd5b506101d86103a4366004611d7c565b610e66565b61014a6103b7366004611cfb565b610e74565b61015f6103ca366004611cfb565b6110c0565b3480156103db57600080fd5b506101f96103ea366004611e30565b611652565b3480156103fb57600080fd5b506101f961040a366004611e52565b611670565b34801561041b57600080fd5b506101f961042a366004611de2565b61169b565b34801561043b57600080fd5b506006546102e6906001600160a01b031681565b600080808080610463565b60405180910390fd5b60055460408051633eaaf86b60e01b8152905147926000926001600160a01b0390911691633eaaf86b91600480820192602092909190829003018186803b1580156104ad57600080fd5b505afa1580156104c1573d6000803e3d6000fd5b505050506040513d601f19601f820116820180604052508101906104e59190611e7c565b6006546040516370a0823160e01b81523060048201529192506000916001600160a01b03909116906370a082319060240160206040518083038186803b15801561052e57600080fd5b505afa158015610542573d6000803e3d6000fd5b505050506040513d601f19601f820116820180604052508101906105669190611e7c565b90506000826105758c86611eab565b61057f9190611eca565b905060008361058e8d85611eab565b6105989190611eca565b9050600560009054906101000a90046001600160a01b03166001600160a01b0316639dc29fac8c8e6040518363ffffffff1660e01b81526004016105f19291906001600160a01b03929092168252602082015260400190565b600060405180830381600087803b15801561060b57600080fd5b505af115801561061f573d6000803e3d6000fd5b505060065460405163095ea7b360e01b8152306004820152602481018590526001600160a01b03909116925063095ea7b39150604401602060405180830381600087803b15801561066f57600080fd5b505af1158015610683573d6000803e3d6000fd5b505050506040513d601f19601f820116820180604052508101906106a79190611eec565b506006546040516323b872dd60e01b81526001600160a01b03909116906323b872dd906106dc9030908f908690600401611f0e565b602060405180830381600087803b1580156106f657600080fd5b505af115801561070a573d6000803e3d6000fd5b505050506040513d601f19601f8201168201806040525081019061072e9190611eec565b506000808c6001600160a01b03168460405160006040518083038185875af1925050503d806000811461077d576040519150601f19603f3d011682016040523d82523d6000602084013e610782565b606091505b509150915060008d600560009054906101000a90046001600160a01b03166001600160a01b0316633eaaf86b6040518163ffffffff1660e01b815260040160206040518083038186803b1580156107d857600080fd5b505afa1580156107ec573d6000803e3d6000fd5b505050506040513d601f19601f820116820180604052508101906108109190611e7c565b909d509b5092995092975090955050505050505b9295509295909350565b60606003805461083d90611f32565b80601f016020809104026020016040519081016040528092919081815260200182805461086990611f32565b80156108b65780601f1061088b576101008083540402835291602001916108b6565b820191906000526020600020905b81548152906001019060200180831161089957829003601f168201915b5050505050905090565b6000336108ce81858561174d565b5060019392505050565b6000336108e6858285611872565b6108f18585856118ec565b506001949350505050565b6000336108ce81858561090f8383611670565b6109199190611f6d565b61174d565b600061092960025490565b905090565b60405181906001600160a01b038416907fb7656808f0e04b4af7a20f7ef1caa7669f0d781f1ca4cba31a3ba467880766c990600090a361096e8282611aba565b5050565b60008061097d610a31565b9050600061098b8447611f85565b9050600061099a856063611eab565b905060006109a9836064611eab565b90506000831180156109bb5750600084115b6109d75760405162461bcd60e51b815260040161045a90611f9c565b60006109e38288611f6d565b6109ed8685611eab565b6109f79190611eca565b905080877fcfaa9fe844caafbeed42965f22ddbb67532fa515e7284d5c317af5c8ab8d3e9e60405160405180910390a39695505050505050565b6006546040516370a0823160e01b815230600482015260009182916001600160a01b03909116906370a082319060240160206040518083038186803b158015610a7957600080fd5b505afa158015610a8d573d6000803e3d6000fd5b505050506040513d601f19601f82011682018060405250810190610ab19190611e7c565b92915050565b6000610ac1610a31565b9050476000610ad1866063611eab565b90506000610ae0846064611eab565b9050600084118015610af25750600083115b610b0e5760405162461bcd60e51b815260040161045a90611f9c565b6000610b1a8289611f6d565b610b248585611eab565b610b2e9190611eca565b905086811015610b805760405162461bcd60e51b815260206004820152601d60248201527f746f206c6974746c6520616d6f756e7420666f72207377617070696e67000000604482015260640161045a565b60065460405163095ea7b360e01b81526001600160a01b038881166004830152602482018490529091169063095ea7b390604401602060405180830381600087803b158015610bce57600080fd5b505af1158015610be2573d6000803e3d6000fd5b505050506040513d601f19601f82011682018060405250810190610c069190611eec565b506006546040516323b872dd60e01b81526001600160a01b03909116906323b872dd90610c3b90899030908690600401611f0e565b602060405180830381600087803b158015610c5557600080fd5b505af1158015610c69573d6000803e3d6000fd5b505050506040513d601f19601f82011682018060405250810190610c8d9190611eec565b50600080876001600160a01b03168360405160006040518083038185875af1925050503d8060008114610cdc576040519150601f19603f3d011682016040523d82523d6000602084013e610ce1565b606091505b50604051680e8ded6cadc5ecae8d60bb1b8152919350915060090160405190819003812060065485835290916001600160a01b038b81169216907fce9f99712c8bc2e049d7626ab6410b1a43910ca5354c5de77a14024599156ba89060200160405180910390a4604080516001600160a01b038a168152602081018590528691869189917f442eeca641ffac06d7005f2ef6bc3f115b4e51a3324d56430545e2561f174f75910160405180910390a450505050505050505050565b60606004805461083d90611f32565b60405181906001600160a01b038416907f8b1897d4e7a3b42570088bb1182eb6518c96a754d44bc9edd4669568bfa9832690600090a361096e8282611b99565b60003381610df98286611670565b905083811015610e595760405162461bcd60e51b815260206004820152602560248201527f45524332303a2064656372656173656420616c6c6f77616e63652062656c6f77604482015264207a65726f60d81b606482015260840161045a565b6108f1828686840361174d565b6000336108ce8185856118ec565b6000610e7e610a31565b90506000610e8c3447611f85565b90506000610e9b346063611eab565b90506000610eaa836064611eab565b9050600083118015610ebc5750600084115b610ed85760405162461bcd60e51b815260040161045a90611f9c565b6000610ee48234611f6d565b610eee8685611eab565b610ef89190611eca565b905086811015610f4a5760405162461bcd60e51b815260206004820152601d60248201527f746f206c6974746c6520616d6f756e7420666f72207377617070696e67000000604482015260640161045a565b60065460405163095ea7b360e01b8152306004820152602481018390526001600160a01b039091169063095ea7b390604401602060405180830381600087803b158015610f9657600080fd5b505af1158015610faa573d6000803e3d6000fd5b505050506040513d601f19601f82011682018060405250810190610fce9190611eec565b506006546040516323b872dd60e01b81526001600160a01b03909116906323b872dd906110039030908a908690600401611f0e565b602060405180830381600087803b15801561101d57600080fd5b505af1158015611031573d6000803e3d6000fd5b505050506040513d601f19601f820116820180604052508101906110559190611eec565b506040516832ba3417ba37b5b2b760b91b815260090160405190819003812060065483835290916001600160a01b038981169216907fce9f99712c8bc2e049d7626ab6410b1a43910ca5354c5de77a14024599156ba89060200160405180910390a450505050505050565b6000806000806000806110d1610a31565b905060006110df3447611f85565b9050816112e0576005546040516340c10f1960e01b81526001600160a01b038a81166004830152602482018c9052909116906340c10f1990604401600060405180830381600087803b15801561113457600080fd5b505af1158015611148573d6000803e3d6000fd5b50506006546040516323b872dd60e01b81526001600160a01b0390911692506323b872dd9150611180908b9030908e90600401611f0e565b602060405180830381600087803b15801561119a57600080fd5b505af11580156111ae573d6000803e3d6000fd5b505050506040513d601f19601f820116820180604052508101906111d29190611eec565b5060055460408051633eaaf86b60e01b815290518a926001600160a01b031691633eaaf86b916004808301926020929190829003018186803b15801561121757600080fd5b505afa15801561122b573d6000803e3d6000fd5b505050506040513d601f19601f8201168201806040525081019061124f9190611e7c565b600554604051636651f41960e11b81526001600160a01b038c811660048301528692869291169063cca3e8329060240160206040518083038186803b15801561129757600080fd5b505afa1580156112ab573d6000803e3d6000fd5b505050506040513d601f19601f820116820180604052508101906112cf9190611e7c565b965096509650965096505050610824565b6000816112ed8434611eab565b6112f79190611eca565b9050808a101561136f5760405162461bcd60e51b815260206004820152603c60248201527f6e6f74206163636570746564206c6971756964697479206c657373207468656e60448201527f20746865206d696e696d756d20616d6f756e7420616363657074656400000000606482015260840161045a565b6006546040516323b872dd60e01b81526001600160a01b03909116906323b872dd906113a3908c9030908690600401611f0e565b602060405180830381600087803b1580156113bd57600080fd5b505af11580156113d1573d6000803e3d6000fd5b505050506040513d601f19601f820116820180604052508101906113f59190611eec565b5060008234600560009054906101000a90046001600160a01b03166001600160a01b0316633eaaf86b6040518163ffffffff1660e01b815260040160206040518083038186803b15801561144857600080fd5b505afa15801561145c573d6000803e3d6000fd5b505050506040513d601f19601f820116820180604052508101906114809190611e7c565b61148a9190611eab565b6114949190611eca565b6005546040516340c10f1960e01b81526001600160a01b038d81166004830152602482018490529293509116906340c10f1990604401600060405180830381600087803b1580156114e457600080fd5b505af11580156114f8573d6000803e3d6000fd5b5050604080516001600160a01b038e1681523460208201528693508592508e917f442eeca641ffac06d7005f2ef6bc3f115b4e51a3324d56430545e2561f174f75910160405180910390a460055460408051633eaaf86b60e01b815290518c926001600160a01b031691633eaaf86b916004808301926020929190829003018186803b15801561158757600080fd5b505afa15801561159b573d6000803e3d6000fd5b505050506040513d601f19601f820116820180604052508101906115bf9190611e7c565b600554604051636651f41960e11b81526001600160a01b038e811660048301528592889291169063cca3e8329060240160206040518083038186803b15801561160757600080fd5b505afa15801561161b573d6000803e3d6000fd5b505050506040513d601f19601f8201168201806040525081019061163f9190611e7c565b9850985098509850985050505050610824565b6001600160a01b038116600090815260208190526040812054610ab1565b6001600160a01b03918216600090815260016020908152604080832093909416825291909152205490565b6000806116a6610a31565b90504760006116b6856063611eab565b905060006116c5846064611eab565b90506000841180156116d75750600083115b6116f35760405162461bcd60e51b815260040161045a90611f9c565b60006116ff8288611f6d565b6117098585611eab565b6117139190611eca565b905081817fcfaa9fe844caafbeed42965f22ddbb67532fa515e7284d5c317af5c8ab8d3e9e60405160405180910390a39695505050505050565b6001600160a01b0383166117af5760405162461bcd60e51b8152602060048201526024808201527f45524332303a20617070726f76652066726f6d20746865207a65726f206164646044820152637265737360e01b606482015260840161045a565b6001600160a01b0382166118105760405162461bcd60e51b815260206004820152602260248201527f45524332303a20617070726f766520746f20746865207a65726f206164647265604482015261737360f01b606482015260840161045a565b6001600160a01b0383811660008181526001602090815260408083209487168084529482529182902085905590518481527f8c5be1e5ebec7d5bd14f71427d1e84f3dd0314c0f7b2291e5b200ac8c7c3b92591015b60405180910390a3505050565b600061187e8484611670565b905060001981146118e657818110156118d95760405162461bcd60e51b815260206004820152601d60248201527f45524332303a20696e73756666696369656e7420616c6c6f77616e6365000000604482015260640161045a565b6118e6848484840361174d565b50505050565b6001600160a01b0383166119505760405162461bcd60e51b815260206004820152602560248201527f45524332303a207472616e736665722066726f6d20746865207a65726f206164604482015264647265737360d81b606482015260840161045a565b6001600160a01b0382166119b25760405162461bcd60e51b815260206004820152602360248201527f45524332303a207472616e7366657220746f20746865207a65726f206164647260448201526265737360e81b606482015260840161045a565b6001600160a01b03831660009081526020819052604090205481811015611a2a5760405162461bcd60e51b815260206004820152602660248201527f45524332303a207472616e7366657220616d6f756e7420657863656564732062604482015265616c616e636560d01b606482015260840161045a565b6001600160a01b03808516600090815260208190526040808220858503905591851681529081208054849290611a61908490611f6d565b92505081905550826001600160a01b0316846001600160a01b03167fddf252ad1be2c89b69c2b068fc378daa952ba7f163c4a11628f55a4df523b3ef84604051611aad91815260200190565b60405180910390a36118e6565b6001600160a01b038216611b105760405162461bcd60e51b815260206004820152601f60248201527f45524332303a206d696e7420746f20746865207a65726f206164647265737300604482015260640161045a565b8060026000828254611b229190611f6d565b90915550506001600160a01b03821660009081526020819052604081208054839290611b4f908490611f6d565b90915550506040518181526001600160a01b038316906000907fddf252ad1be2c89b69c2b068fc378daa952ba7f163c4a11628f55a4df523b3ef9060200160405180910390a35050565b6001600160a01b038216611bf95760405162461bcd60e51b815260206004820152602160248201527f45524332303a206275726e2066726f6d20746865207a65726f206164647265736044820152607360f81b606482015260840161045a565b6001600160a01b03821660009081526020819052604090205481811015611c6d5760405162461bcd60e51b815260206004820152602260248201527f45524332303a206275726e20616d6f756e7420657863656564732062616c616e604482015261636560f01b606482015260840161045a565b6001600160a01b0383166000908152602081905260408120838303905560028054849290611c9c908490611f85565b90915550506040518281526000906001600160a01b038516907fddf252ad1be2c89b69c2b068fc378daa952ba7f163c4a11628f55a4df523b3ef90602001611865565b80356001600160a01b0381168114611cf657600080fd5b919050565b60008060408385031215611d0e57600080fd5b82359150611d1e60208401611cdf565b90509250929050565b600060208083528351808285015260005b81811015611d5457858101830151858201604001528201611d38565b81811115611d66576000604083870101525b50601f01601f1916929092016040019392505050565b60008060408385031215611d8f57600080fd5b611d9883611cdf565b946020939093013593505050565b600080600060608486031215611dbb57600080fd5b611dc484611cdf565b9250611dd260208501611cdf565b9150604084013590509250925092565b600060208284031215611df457600080fd5b5035919050565b600080600060608486031215611e1057600080fd5b8335925060208401359150611e2760408501611cdf565b90509250925092565b600060208284031215611e4257600080fd5b611e4b82611cdf565b9392505050565b60008060408385031215611e6557600080fd5b611e6e83611cdf565b9150611d1e60208401611cdf565b600060208284031215611e8e57600080fd5b5051919050565b634e487b7160e01b600052601160045260246000fd5b6000816000190483118215151615611ec557611ec5611e95565b500290565b600082611ee757634e487b7160e01b600052601260045260246000fd5b500490565b600060208284031215611efe57600080fd5b81518015158114611e4b57600080fd5b6001600160a01b039384168152919092166020820152604081019190915260600190565b600181811c90821680611f4657607f821691505b60208210811415611f6757634e487b7160e01b600052602260045260246000fd5b50919050565b60008219821115611f8057611f80611e95565b500190565b600082821015611f9757611f97611e95565b500390565b60208082526017908201527f696e76616c696465207265736572766520616d6f756e7400000000000000000060408201526060019056fea264697066735822122068ab7397098842d140fc07c856adf3ef347be8bc827fd1955daf3753a088acb264736f6c6343000808003360806040523480156200001157600080fd5b50604080518082018252600281526104c760f41b60208083019182528351808501909452600784526626282a37b5b2b760c91b9084015281519192916200005b916003916200007a565b508051620000719060049060208401906200007a565b5050506200015d565b828054620000889062000120565b90600052602060002090601f016020900481019282620000ac5760008555620000f7565b82601f10620000c757805160ff1916838001178555620000f7565b82800160010185558215620000f7579182015b82811115620000f7578251825591602001919060010190620000da565b506200010592915062000109565b5090565b5b808211156200010557600081556001016200010a565b600181811c908216806200013557607f821691505b602082108114156200015757634e487b7160e01b600052602260045260246000fd5b50919050565b610bdc806200016d6000396000f3fe608060405234801561001057600080fd5b50600436106100f55760003560e01c806340c10f1911610097578063a457c2d711610066578063a457c2d7146101e3578063a9059cbb146101f6578063cca3e8321461019f578063dd62ed3e1461020957600080fd5b806340c10f191461018a57806370a082311461019f57806395d89b41146101c85780639dc29fac146101d057600080fd5b806323b872dd116100d357806323b872dd1461014d578063313ce56714610160578063395093511461016f5780633eaaf86b1461018257600080fd5b806306fdde03146100fa578063095ea7b31461011857806318160ddd1461013b575b600080fd5b61010261021c565b60405161010f91906109fa565b60405180910390f35b61012b610126366004610a6b565b6102ae565b604051901515815260200161010f565b6002545b60405190815260200161010f565b61012b61015b366004610a95565b6102c6565b6040516012815260200161010f565b61012b61017d366004610a6b565b6102ea565b61013f61030c565b61019d610198366004610a6b565b61031c565b005b61013f6101ad366004610ad1565b6001600160a01b031660009081526020819052604090205490565b610102610360565b61019d6101de366004610a6b565b61036f565b61012b6101f1366004610a6b565b6103af565b61012b610204366004610a6b565b61042f565b61013f610217366004610af3565b61043d565b60606003805461022b90610b26565b80601f016020809104026020016040519081016040528092919081815260200182805461025790610b26565b80156102a45780601f10610279576101008083540402835291602001916102a4565b820191906000526020600020905b81548152906001019060200180831161028757829003601f168201915b5050505050905090565b6000336102bc818585610468565b5060019392505050565b6000336102d485828561058d565b6102df858585610607565b506001949350505050565b6000336102bc8185856102fd838361043d565b6103079190610b77565b610468565b600061031760025490565b905090565b60405181906001600160a01b038416907fb7656808f0e04b4af7a20f7ef1caa7669f0d781f1ca4cba31a3ba467880766c990600090a361035c82826107d5565b5050565b60606004805461022b90610b26565b60405181906001600160a01b038416907f8b1897d4e7a3b42570088bb1182eb6518c96a754d44bc9edd4669568bfa9832690600090a361035c82826108b4565b600033816103bd828661043d565b9050838110156104225760405162461bcd60e51b815260206004820152602560248201527f45524332303a2064656372656173656420616c6c6f77616e63652062656c6f77604482015264207a65726f60d81b60648201526084015b60405180910390fd5b6102df8286868403610468565b6000336102bc818585610607565b6001600160a01b03918216600090815260016020908152604080832093909416825291909152205490565b6001600160a01b0383166104ca5760405162461bcd60e51b8152602060048201526024808201527f45524332303a20617070726f76652066726f6d20746865207a65726f206164646044820152637265737360e01b6064820152608401610419565b6001600160a01b03821661052b5760405162461bcd60e51b815260206004820152602260248201527f45524332303a20617070726f766520746f20746865207a65726f206164647265604482015261737360f01b6064820152608401610419565b6001600160a01b0383811660008181526001602090815260408083209487168084529482529182902085905590518481527f8c5be1e5ebec7d5bd14f71427d1e84f3dd0314c0f7b2291e5b200ac8c7c3b92591015b60405180910390a3505050565b6000610599848461043d565b9050600019811461060157818110156105f45760405162461bcd60e51b815260206004820152601d60248201527f45524332303a20696e73756666696369656e7420616c6c6f77616e63650000006044820152606401610419565b6106018484848403610468565b50505050565b6001600160a01b03831661066b5760405162461bcd60e51b815260206004820152602560248201527f45524332303a207472616e736665722066726f6d20746865207a65726f206164604482015264647265737360d81b6064820152608401610419565b6001600160a01b0382166106cd5760405162461bcd60e51b815260206004820152602360248201527f45524332303a207472616e7366657220746f20746865207a65726f206164647260448201526265737360e81b6064820152608401610419565b6001600160a01b038316600090815260208190526040902054818110156107455760405162461bcd60e51b815260206004820152602660248201527f45524332303a207472616e7366657220616d6f756e7420657863656564732062604482015265616c616e636560d01b6064820152608401610419565b6001600160a01b0380851660009081526020819052604080822085850390559185168152908120805484929061077c908490610b77565b92505081905550826001600160a01b0316846001600160a01b03167fddf252ad1be2c89b69c2b068fc378daa952ba7f163c4a11628f55a4df523b3ef846040516107c891815260200190565b60405180910390a3610601565b6001600160a01b03821661082b5760405162461bcd60e51b815260206004820152601f60248201527f45524332303a206d696e7420746f20746865207a65726f2061646472657373006044820152606401610419565b806002600082825461083d9190610b77565b90915550506001600160a01b0382166000908152602081905260408120805483929061086a908490610b77565b90915550506040518181526001600160a01b038316906000907fddf252ad1be2c89b69c2b068fc378daa952ba7f163c4a11628f55a4df523b3ef9060200160405180910390a35050565b6001600160a01b0382166109145760405162461bcd60e51b815260206004820152602160248201527f45524332303a206275726e2066726f6d20746865207a65726f206164647265736044820152607360f81b6064820152608401610419565b6001600160a01b038216600090815260208190526040902054818110156109885760405162461bcd60e51b815260206004820152602260248201527f45524332303a206275726e20616d6f756e7420657863656564732062616c616e604482015261636560f01b6064820152608401610419565b6001600160a01b03831660009081526020819052604081208383039055600280548492906109b7908490610b8f565b90915550506040518281526000906001600160a01b038516907fddf252ad1be2c89b69c2b068fc378daa952ba7f163c4a11628f55a4df523b3ef90602001610580565b600060208083528351808285015260005b81811015610a2757858101830151858201604001528201610a0b565b81811115610a39576000604083870101525b50601f01601f1916929092016040019392505050565b80356001600160a01b0381168114610a6657600080fd5b919050565b60008060408385031215610a7e57600080fd5b610a8783610a4f565b946020939093013593505050565b600080600060608486031215610aaa57600080fd5b610ab384610a4f565b9250610ac160208501610a4f565b9150604084013590509250925092565b600060208284031215610ae357600080fd5b610aec82610a4f565b9392505050565b60008060408385031215610b0657600080fd5b610b0f83610a4f565b9150610b1d60208401610a4f565b90509250929050565b600181811c90821680610b3a57607f821691505b60208210811415610b5b57634e487b7160e01b600052602260045260246000fd5b50919050565b634e487b7160e01b600052601160045260246000fd5b60008219821115610b8a57610b8a610b61565b500190565b600082821015610ba157610ba1610b61565b50039056fea2646970667358221220bad6fe7a7b6f4a27ea984750192acf26a46c9f8109322387e09d27c06b35803864736f6c63430008080033a2646970667358221220cf7313704890963f7289994c72bc11c260bb7a71e9c5b99c38156d12e729545e64736f6c63430008080033",
  "devdoc": {
    "kind": "dev",
    "methods": {},
    "version": 1
  },
  "userdoc": {
    "kind": "user",
    "methods": {},
    "version": 1
  },
  "storageLayout": {
    "storage": [
      {
        "astId": 737,
        "contract": "contracts/Dex.sol:Dex",
        "label": "pool",
        "offset": 0,
        "slot": "0",
        "type": "t_contract(Pool)1855"
      },
      {
        "astId": 788,
        "contract": "contracts/Dex.sol:Dex",
        "label": "PoolMapping",
        "offset": 0,
        "slot": "1",
        "type": "t_mapping(t_uint256,t_contract(Pool)1855)"
      },
      {
        "astId": 792,
        "contract": "contracts/Dex.sol:Dex",
        "label": "PoolMappingAddress",
        "offset": 0,
        "slot": "2",
        "type": "t_mapping(t_uint256,t_address)"
      },
      {
        "astId": 794,
        "contract": "contracts/Dex.sol:Dex",
        "label": "counter",
        "offset": 0,
        "slot": "3",
        "type": "t_uint256"
      }
    ],
    "types": {
      "t_address": {
        "encoding": "inplace",
        "label": "address",
        "numberOfBytes": "20"
      },
      "t_contract(Pool)1855": {
        "encoding": "inplace",
        "label": "contract Pool",
        "numberOfBytes": "20"
      },
      "t_mapping(t_uint256,t_address)": {
        "encoding": "mapping",
        "key": "t_uint256",
        "label": "mapping(uint256 => address)",
        "numberOfBytes": "32",
        "value": "t_address"
      },
      "t_mapping(t_uint256,t_contract(Pool)1855)": {
        "encoding": "mapping",
        "key": "t_uint256",
        "label": "mapping(uint256 => contract Pool)",
        "numberOfBytes": "32",
        "value": "t_contract(Pool)1855"
      },
      "t_uint256": {
        "encoding": "inplace",
        "label": "uint256",
        "numberOfBytes": "32"
      }
    }
  }
}