{
  "address": "0x9fE46736679d2D9a65F0992F2272dE9f3c7fa6e0",
  "abi": [
    {
      "inputs": [],
      "stateMutability": "payable",
      "type": "constructor"
    },
    {
      "anonymous": false,
      "inputs": [
        {
          "indexed": true,
          "internalType": "address",
          "name": "_createBy",
          "type": "address"
        },
        {
          "indexed": true,
          "internalType": "address",
          "name": "_token",
          "type": "address"
        },
        {
          "indexed": true,
          "internalType": "uint256",
          "name": "_id",
          "type": "uint256"
        }
      ],
      "name": "createPoolEvent",
      "type": "event"
    },
    {
      "anonymous": false,
      "inputs": [
        {
          "indexed": true,
          "internalType": "address",
          "name": "_from",
          "type": "address"
        },
        {
          "indexed": true,
          "internalType": "uint256",
          "name": "_lpTokenSupply",
          "type": "uint256"
        },
        {
          "indexed": true,
          "internalType": "uint256",
          "name": "_mintedAmount",
          "type": "uint256"
        },
        {
          "indexed": false,
          "internalType": "uint256",
          "name": "_ethBalance",
          "type": "uint256"
        },
        {
          "indexed": false,
          "internalType": "address",
          "name": "_lpTokenAddress",
          "type": "address"
        },
        {
          "indexed": false,
          "internalType": "uint256",
          "name": "_amount",
          "type": "uint256"
        },
        {
          "indexed": false,
          "internalType": "uint256",
          "name": "_lpTokenBalance",
          "type": "uint256"
        },
        {
          "indexed": false,
          "internalType": "uint256",
          "name": "_tokenReserve",
          "type": "uint256"
        }
      ],
      "name": "liquidity",
      "type": "event"
    },
    {
      "anonymous": false,
      "inputs": [
        {
          "indexed": true,
          "internalType": "address",
          "name": "_from",
          "type": "address"
        },
        {
          "indexed": true,
          "internalType": "uint256",
          "name": "_lpTokenSupply",
          "type": "uint256"
        },
        {
          "indexed": true,
          "internalType": "uint256",
          "name": "_mintedAmount",
          "type": "uint256"
        },
        {
          "indexed": false,
          "internalType": "uint256",
          "name": "_ethBalance",
          "type": "uint256"
        },
        {
          "indexed": false,
          "internalType": "address",
          "name": "_lpTokenAddress",
          "type": "address"
        },
        {
          "indexed": false,
          "internalType": "uint256",
          "name": "_amount",
          "type": "uint256"
        },
        {
          "indexed": false,
          "internalType": "uint256",
          "name": "_lpTokenBalance",
          "type": "uint256"
        },
        {
          "indexed": false,
          "internalType": "uint256",
          "name": "_tokenReserve",
          "type": "uint256"
        }
      ],
      "name": "liquidityRemove",
      "type": "event"
    },
    {
      "anonymous": false,
      "inputs": [
        {
          "indexed": true,
          "internalType": "address",
          "name": "_useraddress",
          "type": "address"
        }
      ],
      "name": "userAddress",
      "type": "event"
    },
    {
      "inputs": [
        {
          "internalType": "uint256",
          "name": "",
          "type": "uint256"
        }
      ],
      "name": "PoolMapping",
      "outputs": [
        {
          "internalType": "contract Pool",
          "name": "",
          "type": "address"
        }
      ],
      "stateMutability": "view",
      "type": "function"
    },
    {
      "inputs": [
        {
          "internalType": "uint256",
          "name": "_pool",
          "type": "uint256"
        },
        {
          "internalType": "uint256",
          "name": "_amount",
          "type": "uint256"
        }
      ],
      "name": "_addLiquidity",
      "outputs": [],
      "stateMutability": "payable",
      "type": "function"
    },
    {
      "inputs": [
        {
          "internalType": "uint256",
          "name": "_pool",
          "type": "uint256"
        },
        {
          "internalType": "uint256",
          "name": "_amount",
          "type": "uint256"
        }
      ],
      "name": "_getSwapEthToToken",
      "outputs": [
        {
          "internalType": "uint256",
          "name": "",
          "type": "uint256"
        }
      ],
      "stateMutability": "nonpayable",
      "type": "function"
    },
    {
      "inputs": [
        {
          "internalType": "uint256",
          "name": "_pool",
          "type": "uint256"
        },
        {
          "internalType": "uint256",
          "name": "_amount",
          "type": "uint256"
        }
      ],
      "name": "_getSwapTokenToEth",
      "outputs": [
        {
          "internalType": "uint256",
          "name": "",
          "type": "uint256"
        }
      ],
      "stateMutability": "nonpayable",
      "type": "function"
    },
    {
      "inputs": [
        {
          "internalType": "uint256",
          "name": "_pool",
          "type": "uint256"
        },
        {
          "internalType": "uint256",
          "name": "_amount",
          "type": "uint256"
        }
      ],
      "name": "_removeLiquidity",
      "outputs": [],
      "stateMutability": "payable",
      "type": "function"
    },
    {
      "inputs": [
        {
          "internalType": "uint256",
          "name": "_pool",
          "type": "uint256"
        },
        {
          "internalType": "uint256",
          "name": "_estimateamount",
          "type": "uint256"
        }
      ],
      "name": "_swapEthToToken",
      "outputs": [],
      "stateMutability": "payable",
      "type": "function"
    },
    {
      "inputs": [
        {
          "internalType": "uint256",
          "name": "_pool",
          "type": "uint256"
        },
        {
          "internalType": "uint256",
          "name": "_estimatedAmount",
          "type": "uint256"
        },
        {
          "internalType": "address",
          "name": "_account",
          "type": "address"
        }
      ],
      "name": "_swapTokenToEth",
      "outputs": [],
      "stateMutability": "payable",
      "type": "function"
    },
    {
      "inputs": [],
      "name": "counter",
      "outputs": [
        {
          "internalType": "uint256",
          "name": "",
          "type": "uint256"
        }
      ],
      "stateMutability": "view",
      "type": "function"
    },
    {
      "inputs": [
        {
          "internalType": "address",
          "name": "tokenA",
          "type": "address"
        }
      ],
      "name": "createPool",
      "outputs": [],
      "stateMutability": "payable",
      "type": "function"
    },
    {
      "inputs": [
        {
          "internalType": "uint256",
          "name": "_pool",
          "type": "uint256"
        }
      ],
      "name": "getPoolAddress",
      "outputs": [
        {
          "internalType": "address",
          "name": "",
          "type": "address"
        }
      ],
      "stateMutability": "view",
      "type": "function"
    },
    {
      "inputs": [],
      "name": "pool",
      "outputs": [
        {
          "internalType": "contract Pool",
          "name": "",
          "type": "address"
        }
      ],
      "stateMutability": "view",
      "type": "function"
    }
  ],
  "transactionHash": "0x9c397788cf220704ca0fe76b62aeb1bea35557cabb248913775023423bc0df29",
  "args": [],
  "numDeployments": 1,
  "solcInputHash": "547a79f312b889d9b833334b00af147a",
  "bytecode": "0x6080604052613a76806100136000396000f3fe60806040526004361061009b5760003560e01c80631b6b69a2116100645780631b6b69a21461017157806361bc221a1461019f5780639049f9d2146101b55780639e8af2af146101c85780639ff3ccde146101db578063d5babe67146101fb57600080fd5b8062a5ae21146100a057806304c55b92146100f35780630b6af776146101295780631269e22f1461013e57806316f0115b14610151575b600080fd5b3480156100ac57600080fd5b506100d66100bb3660046107be565b6000908152600160205260409020546001600160a01b031690565b6040516001600160a01b0390911681526020015b60405180910390f35b3480156100ff57600080fd5b506100d661010e3660046107be565b6001602052600090815260409020546001600160a01b031681565b61013c6101373660046107d7565b61020e565b005b61013c61014c3660046107d7565b610345565b34801561015d57600080fd5b506000546100d6906001600160a01b031681565b34801561017d57600080fd5b5061019161018c3660046107d7565b6103cb565b6040519081526020016100ea565b3480156101ab57600080fd5b5061019160025481565b61013c6101c3366004610811565b610471565b61013c6101d63660046107d7565b610569565b3480156101e757600080fd5b506101916101f63660046107d7565b6106d6565b61013c610209366004610835565b610726565b6000828152600160205260408082205482546001600160a01b0319166001600160a01b03909116908117835590516305fe138b60e01b8152600481018490523360248201528291829182918291829182916305fe138b9060440160e060405180830381600087803b15801561028257600080fd5b505af1158015610296573d6000803e3d6000fd5b505050506040513d601f19601f820116820180604052508101906102ba919061086e565b96509650965096509650965096508486886001600160a01b03167fba8167b20fb82b32203505d2af31a84cccc310ee858a21f2b99a19b09956840c87878d88886040516103329594939291909485526001600160a01b0393909316602085015260408401919091526060830152608082015260a00190565b60405180910390a4505050505050505050565b6000828152600160205260408082205482546001600160a01b0319166001600160a01b0390911690811790925551636208d8e560e11b81526004810183905233602482015263c411b1ca9034906044016000604051808303818588803b1580156103ae57600080fd5b505af11580156103c2573d6000803e3d6000fd5b50505050505050565b6000828152600160205260408082205482546001600160a01b0319166001600160a01b0390911690811783559051635b3b700b60e11b81526004810184905282919063b676e016906024015b602060405180830381600087803b15801561043157600080fd5b505af1158015610445573d6000803e3d6000fd5b505050506040513d601f19601f8201168201806040525081019061046991906108d9565b949350505050565b8060405161047e906107b0565b6001600160a01b039091168152602001604051809103906000f0801580156104aa573d6000803e3d6000fd5b50600080546001600160a01b039283166001600160a01b0319918216811783556002805484526001602052604080852080549094169092179092559054825491519093919091169133917ff86e3d2fc794443a042a24aab307e2450c5ea5ddde4894a5db19df1339e0e23b9190a4600080546040516001600160a01b03909116917f360500cc0bb9908acbdda3a2865dcefc4ae2dbe309f4fbedf074eb0a9a9a16ac91a260016002600082825461056191906108f2565b909155505050565b348110156105b05760405162461bcd60e51b815260206004820152601060248201526f1d1bc81b1a5d1d1b1948185b5bdd5b9d60821b604482015260640160405180910390fd5b6000828152600160205260408082205482546001600160a01b0319166001600160a01b03909116908117835590516364afce8760e11b81526004810184905233602482015282918291829182918291829163c95f9d0e90349060440160e0604051808303818588803b15801561062557600080fd5b505af1158015610639573d6000803e3d6000fd5b50505050506040513d601f19601f8201168201806040525081019061065e919061086e565b96509650965096509650965096508486886001600160a01b03167f8df84fafdab28db8aea5e9eb3a42bac9e9dddfddf14d579c198c13489729e1e187878d88886040516103329594939291909485526001600160a01b0393909316602085015260408401919091526060830152608082015260a00190565b6000828152600160205260408082205482546001600160a01b0319166001600160a01b0390911690811783559051630ce8325760e01b815260048101849052829190630ce8325790602401610417565b6000838152600160205260408082205482546001600160a01b0319166001600160a01b039182169081179093559051632623944f60e21b815260048101859052908316602482015263988e513c9034906044016000604051808303818588803b15801561079257600080fd5b505af11580156107a6573d6000803e3d6000fd5b5050505050505050565b613128806200091983390190565b6000602082840312156107d057600080fd5b5035919050565b600080604083850312156107ea57600080fd5b50508035926020909101359150565b6001600160a01b038116811461080e57600080fd5b50565b60006020828403121561082357600080fd5b813561082e816107f9565b9392505050565b60008060006060848603121561084a57600080fd5b83359250602084013591506040840135610863816107f9565b809150509250925092565b600080600080600080600060e0888a03121561088957600080fd5b8751610894816107f9565b8097505060208801519550604088015194506060880151935060808801516108bb816107f9565b8093505060a0880151915060c0880151905092959891949750929550565b6000602082840312156108eb57600080fd5b5051919050565b6000821982111561091357634e487b7160e01b600052601160045260246000fd5b50019056fe60806040523480156200001157600080fd5b5060405162003128380380620031288339810160408190526200003491620001cc565b604080518082018252600281526104c760f41b60208083019182528351808501909452600784526626282a37b5b2b760c91b9084015281519192916200007d9160039162000118565b5080516200009390600490602084019062000118565b5050506001600160a01b038116620000aa57600080fd5b600680546001600160a01b0319166001600160a01b038316179055604051620000d390620001a7565b604051809103906000f080158015620000f0573d6000803e3d6000fd5b50600580546001600160a01b0319166001600160a01b0392909216919091179055506200023b565b8280546200012690620001fe565b90600052602060002090601f0160209004810192826200014a576000855562000195565b82601f106200016557805160ff191683800117855562000195565b8280016001018555821562000195579182015b828111156200019557825182559160200191906001019062000178565b50620001a3929150620001b5565b5090565b610d6280620023c683390190565b5b80821115620001a35760008155600101620001b6565b600060208284031215620001df57600080fd5b81516001600160a01b0381168114620001f757600080fd5b9392505050565b600181811c908216806200021357607f821691505b602082108114156200023557634e487b7160e01b600052602260045260246000fd5b50919050565b61217b806200024b6000396000f3fe60806040526004361061015b5760003560e01c806370a08231116100c8578063a9059cbb11610084578063c95f9d0e11610061578063c95f9d0e1461042d578063cca3e83214610440578063dd62ed3e14610460578063f835cd3c1461048057005b8063a9059cbb146103da578063b676e016146103fa578063c411b1ca1461041a57005b806370a082311461032957806394d0851d1461035f57806395d89b4114610372578063988e513c146103875780639dc29fac1461039a578063a457c2d7146103ba57005b8063313ce56711610117578063313ce5671461027857806339509351146102945780633eaaf86b146102b457806340c10f19146102c957806359bf5d39146102e95780635fcbd285146102f157005b806305fe138b1461016457806306fdde03146101c3578063095ea7b3146101e55780630ce832571461021557806318160ddd1461024357806323b872dd1461025857005b3661016257005b005b610177610172366004611ea2565b6104a0565b604080516001600160a01b03988916815260208101979097528601949094526060850192909252909316608083015260a082019290925260c081019190915260e0015b60405180910390f35b3480156101cf57600080fd5b506101d8610ad5565b6040516101ba9190611ece565b3480156101f157600080fd5b50610205610200366004611f23565b610b67565b60405190151581526020016101ba565b34801561022157600080fd5b50610235610230366004611f4d565b610b7f565b6040519081526020016101ba565b34801561024f57600080fd5b50600254610235565b34801561026457600080fd5b50610205610273366004611f66565b610c5d565b34801561028457600080fd5b50604051601281526020016101ba565b3480156102a057600080fd5b506102056102af366004611f23565b610c81565b3480156102c057600080fd5b50610235610ca3565b3480156102d557600080fd5b506101626102e4366004611f23565b610cb3565b610235610cf7565b3480156102fd57600080fd5b50600554610311906001600160a01b031681565b6040516001600160a01b0390911681526020016101ba565b34801561033557600080fd5b50610235610344366004611fa2565b6001600160a01b031660009081526020819052604090205490565b34801561036b57600080fd5b5030610311565b34801561037e57600080fd5b506101d8610d7d565b610162610395366004611ea2565b610d8c565b3480156103a657600080fd5b506101626103b5366004611f23565b61100a565b3480156103c657600080fd5b506102056103d5366004611f23565b61104a565b3480156103e657600080fd5b506102056103f5366004611f23565b6110c5565b34801561040657600080fd5b50610235610415366004611f4d565b6110d3565b610162610428366004611ea2565b611192565b61017761043b366004611ea2565b61132c565b34801561044c57600080fd5b5061023561045b366004611fa2565b6118ab565b34801561046c57600080fd5b5061023561047b366004611fc4565b6118c9565b34801561048c57600080fd5b50600654610311906001600160a01b031681565b600554604051636651f41960e11b81526001600160a01b038381166004830152600092839283928392839283928392839291169063cca3e8329060240160206040518083038186803b1580156104f557600080fd5b505afa158015610509573d6000803e3d6000fd5b505050506040513d601f19601f8201168201806040525081019061052d9190611fee565b905061053d565b60405180910390fd5b600554604051632770a7eb60e21b81526001600160a01b038b81166004830152602482018d905290911690639dc29fac90604401600060405180830381600087803b15801561058b57600080fd5b505af115801561059f573d6000803e3d6000fd5b505060065460055460408051633eaaf86b60e01b815290516001600160a01b03938416955063095ea7b39450309390921691633eaaf86b91600480820192602092909190829003018186803b1580156105f757600080fd5b505afa15801561060b573d6000803e3d6000fd5b505050506040513d601f19601f8201168201806040525081019061062f9190611fee565b6006546040516370a0823160e01b81523060048201528f916001600160a01b0316906370a082319060240160206040518083038186803b15801561067257600080fd5b505afa158015610686573d6000803e3d6000fd5b505050506040513d601f19601f820116820180604052508101906106aa9190611fee565b6106b4919061201d565b6106be919061203c565b6040516001600160e01b031960e085901b1681526001600160a01b0390921660048301526024820152604401602060405180830381600087803b15801561070457600080fd5b505af1158015610718573d6000803e3d6000fd5b505050506040513d601f19601f8201168201806040525081019061073c919061205e565b5060065460055460408051633eaaf86b60e01b815290516001600160a01b03938416936323b872dd9330938f939190921691633eaaf86b916004808301926020929190829003018186803b15801561079357600080fd5b505afa1580156107a7573d6000803e3d6000fd5b505050506040513d601f19601f820116820180604052508101906107cb9190611fee565b8e600660009054906101000a90046001600160a01b03166001600160a01b03166370a08231306040518263ffffffff1660e01b815260040161081c91906001600160a01b0391909116815260200190565b60206040518083038186803b15801561083457600080fd5b505afa158015610848573d6000803e3d6000fd5b505050506040513d601f19601f8201168201806040525081019061086c9190611fee565b610876919061201d565b610880919061203c565b6040518463ffffffff1660e01b815260040161089e93929190612080565b602060405180830381600087803b1580156108b857600080fd5b505af11580156108cc573d6000803e3d6000fd5b505050506040513d601f19601f820116820180604052508101906108f0919061205e565b506000808a6001600160a01b0316600560009054906101000a90046001600160a01b03166001600160a01b0316633eaaf86b6040518163ffffffff1660e01b815260040160206040518083038186803b15801561094c57600080fd5b505afa158015610960573d6000803e3d6000fd5b505050506040513d601f19601f820116820180604052508101906109849190611fee565b61098e8e4761201d565b610998919061203c565b604051600081818185875af1925050503d80600081146109d4576040519150601f19603f3d011682016040523d82523d6000602084013e6109d9565b606091505b509150915081610a225760405162461bcd60e51b81526020600482015260146024820152732330b4b632b2103a379039b2b7321022ba3432b960611b6044820152606401610534565b60055460408051633eaaf86b60e01b815290518d926001600160a01b031691633eaaf86b916004808301926020929190829003018186803b158015610a6657600080fd5b505afa158015610a7a573d6000803e3d6000fd5b505050506040513d601f19601f82011682018060405250810190610a9e9190611fee565b6005548e9047906001600160a01b031687610ab7610cf7565b99509950995099509950995099505050505b92959891949750929550565b606060038054610ae4906120a4565b80601f0160208091040260200160405190810160405280929190818152602001828054610b10906120a4565b8015610b5d5780601f10610b3257610100808354040283529160200191610b5d565b820191906000526020600020905b815481529060010190602001808311610b4057829003601f168201915b5050505050905090565b600033610b758185856118f4565b5060019392505050565b600080610b8a610cf7565b9050476000610b9a85606361201d565b90506000610ba984606461201d565b9050600084118015610bbb5750600083115b610bf95760405162461bcd60e51b815260206004820152600f60248201526e696e76616c6964207265736572766560881b6044820152606401610534565b6000610c05848461201d565b90506000610c1383856120df565b90506000610c21828461203c565b905083817fcfaa9fe844caafbeed42965f22ddbb67532fa515e7284d5c317af5c8ab8d3e9e60405160405180910390a398975050505050505050565b600033610c6b858285611a19565b610c76858585611a93565b506001949350505050565b600033610b75818585610c9483836118c9565b610c9e91906120df565b6118f4565b6000610cae60025490565b905090565b60405181906001600160a01b038416907fb7656808f0e04b4af7a20f7ef1caa7669f0d781f1ca4cba31a3ba467880766c990600090a3610cf38282611c61565b5050565b6006546040516370a0823160e01b815230600482015260009182916001600160a01b03909116906370a082319060240160206040518083038186803b158015610d3f57600080fd5b505afa158015610d53573d6000803e3d6000fd5b505050506040513d601f19601f82011682018060405250810190610d779190611fee565b92915050565b606060048054610ae4906120a4565b6000610d96610cf7565b9050476000610da634606361201d565b90506000610db584606461201d565b9050600084118015610dc75750600083115b610de35760405162461bcd60e51b8152600401610534906120f7565b6000610def82846120df565b610df9858561201d565b610e03919061203c565b905086811015610e555760405162461bcd60e51b815260206004820152601d60248201527f746f206c6974746c6520616d6f756e7420666f72207377617070696e670000006044820152606401610534565b60065460405163095ea7b360e01b81526001600160a01b038881166004830152602482018490529091169063095ea7b390604401602060405180830381600087803b158015610ea357600080fd5b505af1158015610eb7573d6000803e3d6000fd5b505050506040513d601f19601f82011682018060405250810190610edb919061205e565b506006546040516323b872dd60e01b81526001600160a01b03909116906323b872dd90610f1090899030908690600401612080565b602060405180830381600087803b158015610f2a57600080fd5b505af1158015610f3e573d6000803e3d6000fd5b505050506040513d601f19601f82011682018060405250810190610f62919061205e565b50600080876001600160a01b03168360405160006040518083038185875af1925050503d8060008114610fb1576040519150601f19603f3d011682016040523d82523d6000602084013e610fb6565b606091505b509150915081610fff5760405162461bcd60e51b81526020600482015260146024820152732330b4b632b2103a379039b2b7321022ba3432b960611b6044820152606401610534565b505050505050505050565b60405181906001600160a01b038416907f8b1897d4e7a3b42570088bb1182eb6518c96a754d44bc9edd4669568bfa9832690600090a3610cf38282611d40565b6000338161105882866118c9565b9050838110156110b85760405162461bcd60e51b815260206004820152602560248201527f45524332303a2064656372656173656420616c6c6f77616e63652062656c6f77604482015264207a65726f60d81b6064820152608401610534565b610c7682868684036118f4565b600033610b75818585611a93565b6000806110de610cf7565b905060006110ec844761212e565b905060006110fb85606361201d565b9050600061110a83606461201d565b905060008311801561111c5750600084115b6111385760405162461bcd60e51b8152600401610534906120f7565b600061114482846120df565b61114e868561201d565b611158919061203c565b905080877fcfaa9fe844caafbeed42965f22ddbb67532fa515e7284d5c317af5c8ab8d3e9e60405160405180910390a39695505050505050565b600061119c610cf7565b905060006111aa344761212e565b905060006111b934606361201d565b905060006111c883606461201d565b90506000831180156111da5750600084115b6111f65760405162461bcd60e51b8152600401610534906120f7565b600061120282846120df565b61120c868561201d565b611216919061203c565b60065460405163095ea7b360e01b8152306004820152602481018a90529192506001600160a01b03169063095ea7b390604401602060405180830381600087803b15801561126357600080fd5b505af1158015611277573d6000803e3d6000fd5b505050506040513d601f19601f8201168201806040525081019061129b919061205e565b506006546040516323b872dd60e01b81526001600160a01b03909116906323b872dd906112d09030908a908c90600401612080565b602060405180830381600087803b1580156112ea57600080fd5b505af11580156112fe573d6000803e3d6000fd5b505050506040513d601f19601f82011682018060405250810190611322919061205e565b5050505050505050565b60008080808080808061133f344761212e565b9050611349610cf7565b611559576005546040516340c10f1960e01b81526001600160a01b038b81166004830152602482018d9052909116906340c10f1990604401600060405180830381600087803b15801561139b57600080fd5b505af11580156113af573d6000803e3d6000fd5b50506006546040516323b872dd60e01b81526001600160a01b0390911692506323b872dd91506113e7908c9030908f90600401612080565b602060405180830381600087803b15801561140157600080fd5b505af1158015611415573d6000803e3d6000fd5b505050506040513d601f19601f82011682018060405250810190611439919061205e565b5060055460408051633eaaf86b60e01b815290518b926001600160a01b031691633eaaf86b916004808301926020929190829003018186803b15801561147e57600080fd5b505afa158015611492573d6000803e3d6000fd5b505050506040513d601f19601f820116820180604052508101906114b69190611fee565b6114be610cf7565b600554604051636651f41960e11b81526001600160a01b038e8116600483015247921690819063cca3e8329060240160206040518083038186803b15801561150557600080fd5b505afa158015611519573d6000803e3d6000fd5b505050506040513d601f19601f8201168201806040525081019061153d9190611fee565b611545610cf7565b975097509750975097509750975050610ac9565b80611562610cf7565b61156c903461201d565b611576919061203c565b8a10156115eb5760405162461bcd60e51b815260206004820152603c60248201527f6e6f74206163636570746564206c6971756964697479206c657373207468656e60448201527f20746865206d696e696d756d20616d6f756e74206163636570746564000000006064820152608401610534565b6006546001600160a01b03166323b872dd8a3084611607610cf7565b611611903461201d565b61161b919061203c565b6040518463ffffffff1660e01b815260040161163993929190612080565b602060405180830381600087803b15801561165357600080fd5b505af1158015611667573d6000803e3d6000fd5b505050506040513d601f19601f8201168201806040525081019061168b919061205e565b5060055460408051633eaaf86b60e01b815290516001600160a01b03909216916340c10f19918c91859134918691633eaaf86b916004808301926020929190829003018186803b1580156116de57600080fd5b505afa1580156116f2573d6000803e3d6000fd5b505050506040513d601f19601f820116820180604052508101906117169190611fee565b611720919061201d565b61172a919061203c565b6040516001600160e01b031960e085901b1681526001600160a01b0390921660048301526024820152604401600060405180830381600087803b15801561177057600080fd5b505af1158015611784573d6000803e3d6000fd5b5050505088600560009054906101000a90046001600160a01b03166001600160a01b0316633eaaf86b6040518163ffffffff1660e01b815260040160206040518083038186803b1580156117d757600080fd5b505afa1580156117eb573d6000803e3d6000fd5b505050506040513d601f19601f8201168201806040525081019061180f9190611fee565b8234600560009054906101000a90046001600160a01b03166001600160a01b0316633eaaf86b6040518163ffffffff1660e01b815260040160206040518083038186803b15801561185f57600080fd5b505afa158015611873573d6000803e3d6000fd5b505050506040513d601f19601f820116820180604052508101906118979190611fee565b6118a1919061201d565b6114be919061203c565b6001600160a01b038116600090815260208190526040812054610d77565b6001600160a01b03918216600090815260016020908152604080832093909416825291909152205490565b6001600160a01b0383166119565760405162461bcd60e51b8152602060048201526024808201527f45524332303a20617070726f76652066726f6d20746865207a65726f206164646044820152637265737360e01b6064820152608401610534565b6001600160a01b0382166119b75760405162461bcd60e51b815260206004820152602260248201527f45524332303a20617070726f766520746f20746865207a65726f206164647265604482015261737360f01b6064820152608401610534565b6001600160a01b0383811660008181526001602090815260408083209487168084529482529182902085905590518481527f8c5be1e5ebec7d5bd14f71427d1e84f3dd0314c0f7b2291e5b200ac8c7c3b92591015b60405180910390a3505050565b6000611a2584846118c9565b90506000198114611a8d5781811015611a805760405162461bcd60e51b815260206004820152601d60248201527f45524332303a20696e73756666696369656e7420616c6c6f77616e63650000006044820152606401610534565b611a8d84848484036118f4565b50505050565b6001600160a01b038316611af75760405162461bcd60e51b815260206004820152602560248201527f45524332303a207472616e736665722066726f6d20746865207a65726f206164604482015264647265737360d81b6064820152608401610534565b6001600160a01b038216611b595760405162461bcd60e51b815260206004820152602360248201527f45524332303a207472616e7366657220746f20746865207a65726f206164647260448201526265737360e81b6064820152608401610534565b6001600160a01b03831660009081526020819052604090205481811015611bd15760405162461bcd60e51b815260206004820152602660248201527f45524332303a207472616e7366657220616d6f756e7420657863656564732062604482015265616c616e636560d01b6064820152608401610534565b6001600160a01b03808516600090815260208190526040808220858503905591851681529081208054849290611c089084906120df565b92505081905550826001600160a01b0316846001600160a01b03167fddf252ad1be2c89b69c2b068fc378daa952ba7f163c4a11628f55a4df523b3ef84604051611c5491815260200190565b60405180910390a3611a8d565b6001600160a01b038216611cb75760405162461bcd60e51b815260206004820152601f60248201527f45524332303a206d696e7420746f20746865207a65726f2061646472657373006044820152606401610534565b8060026000828254611cc991906120df565b90915550506001600160a01b03821660009081526020819052604081208054839290611cf69084906120df565b90915550506040518181526001600160a01b038316906000907fddf252ad1be2c89b69c2b068fc378daa952ba7f163c4a11628f55a4df523b3ef9060200160405180910390a35050565b6001600160a01b038216611da05760405162461bcd60e51b815260206004820152602160248201527f45524332303a206275726e2066726f6d20746865207a65726f206164647265736044820152607360f81b6064820152608401610534565b6001600160a01b03821660009081526020819052604090205481811015611e145760405162461bcd60e51b815260206004820152602260248201527f45524332303a206275726e20616d6f756e7420657863656564732062616c616e604482015261636560f01b6064820152608401610534565b6001600160a01b0383166000908152602081905260408120838303905560028054849290611e4390849061212e565b90915550506040518281526000906001600160a01b038516907fddf252ad1be2c89b69c2b068fc378daa952ba7f163c4a11628f55a4df523b3ef90602001611a0c565b80356001600160a01b0381168114611e9d57600080fd5b919050565b60008060408385031215611eb557600080fd5b82359150611ec560208401611e86565b90509250929050565b600060208083528351808285015260005b81811015611efb57858101830151858201604001528201611edf565b81811115611f0d576000604083870101525b50601f01601f1916929092016040019392505050565b60008060408385031215611f3657600080fd5b611f3f83611e86565b946020939093013593505050565b600060208284031215611f5f57600080fd5b5035919050565b600080600060608486031215611f7b57600080fd5b611f8484611e86565b9250611f9260208501611e86565b9150604084013590509250925092565b600060208284031215611fb457600080fd5b611fbd82611e86565b9392505050565b60008060408385031215611fd757600080fd5b611fe083611e86565b9150611ec560208401611e86565b60006020828403121561200057600080fd5b5051919050565b634e487b7160e01b600052601160045260246000fd5b600081600019048311821515161561203757612037612007565b500290565b60008261205957634e487b7160e01b600052601260045260246000fd5b500490565b60006020828403121561207057600080fd5b81518015158114611fbd57600080fd5b6001600160a01b039384168152919092166020820152604081019190915260600190565b600181811c908216806120b857607f821691505b602082108114156120d957634e487b7160e01b600052602260045260246000fd5b50919050565b600082198211156120f2576120f2612007565b500190565b60208082526017908201527f696e76616c696465207265736572766520616d6f756e74000000000000000000604082015260600190565b60008282101561214057612140612007565b50039056fea26469706673582212208396840a696c1d124d39f38fea06c6a54a4a50d02355c510d87dd891e394ebba64736f6c6343000808003360806040523480156200001157600080fd5b50604080518082018252600281526104c760f41b60208083019182528351808501909452600784526626282a37b5b2b760c91b9084015281519192916200005b916003916200007a565b508051620000719060049060208401906200007a565b5050506200015d565b828054620000889062000120565b90600052602060002090601f016020900481019282620000ac5760008555620000f7565b82601f10620000c757805160ff1916838001178555620000f7565b82800160010185558215620000f7579182015b82811115620000f7578251825591602001919060010190620000da565b506200010592915062000109565b5090565b5b808211156200010557600081556001016200010a565b600181811c908216806200013557607f821691505b602082108114156200015757634e487b7160e01b600052602260045260246000fd5b50919050565b610bf5806200016d6000396000f3fe608060405234801561001057600080fd5b50600436106101005760003560e01c806370a0823111610097578063a457c2d711610066578063a457c2d7146101fc578063a9059cbb1461020f578063cca3e832146101aa578063dd62ed3e1461022257600080fd5b806370a08231146101aa57806394d0851d146101d357806395d89b41146101e15780639dc29fac146101e957600080fd5b8063313ce567116100d3578063313ce5671461016b578063395093511461017a5780633eaaf86b1461018d57806340c10f191461019557600080fd5b806306fdde0314610105578063095ea7b31461012357806318160ddd1461014657806323b872dd14610158575b600080fd5b61010d610235565b60405161011a9190610a13565b60405180910390f35b610136610131366004610a84565b6102c7565b604051901515815260200161011a565b6002545b60405190815260200161011a565b610136610166366004610aae565b6102df565b6040516012815260200161011a565b610136610188366004610a84565b610303565b61014a610325565b6101a86101a3366004610a84565b610335565b005b61014a6101b8366004610aea565b6001600160a01b031660009081526020819052604090205490565b60405130815260200161011a565b61010d610379565b6101a86101f7366004610a84565b610388565b61013661020a366004610a84565b6103c8565b61013661021d366004610a84565b610448565b61014a610230366004610b0c565b610456565b60606003805461024490610b3f565b80601f016020809104026020016040519081016040528092919081815260200182805461027090610b3f565b80156102bd5780601f10610292576101008083540402835291602001916102bd565b820191906000526020600020905b8154815290600101906020018083116102a057829003601f168201915b5050505050905090565b6000336102d5818585610481565b5060019392505050565b6000336102ed8582856105a6565b6102f8858585610620565b506001949350505050565b6000336102d58185856103168383610456565b6103209190610b90565b610481565b600061033060025490565b905090565b60405181906001600160a01b038416907fb7656808f0e04b4af7a20f7ef1caa7669f0d781f1ca4cba31a3ba467880766c990600090a361037582826107ee565b5050565b60606004805461024490610b3f565b60405181906001600160a01b038416907f8b1897d4e7a3b42570088bb1182eb6518c96a754d44bc9edd4669568bfa9832690600090a361037582826108cd565b600033816103d68286610456565b90508381101561043b5760405162461bcd60e51b815260206004820152602560248201527f45524332303a2064656372656173656420616c6c6f77616e63652062656c6f77604482015264207a65726f60d81b60648201526084015b60405180910390fd5b6102f88286868403610481565b6000336102d5818585610620565b6001600160a01b03918216600090815260016020908152604080832093909416825291909152205490565b6001600160a01b0383166104e35760405162461bcd60e51b8152602060048201526024808201527f45524332303a20617070726f76652066726f6d20746865207a65726f206164646044820152637265737360e01b6064820152608401610432565b6001600160a01b0382166105445760405162461bcd60e51b815260206004820152602260248201527f45524332303a20617070726f766520746f20746865207a65726f206164647265604482015261737360f01b6064820152608401610432565b6001600160a01b0383811660008181526001602090815260408083209487168084529482529182902085905590518481527f8c5be1e5ebec7d5bd14f71427d1e84f3dd0314c0f7b2291e5b200ac8c7c3b92591015b60405180910390a3505050565b60006105b28484610456565b9050600019811461061a578181101561060d5760405162461bcd60e51b815260206004820152601d60248201527f45524332303a20696e73756666696369656e7420616c6c6f77616e63650000006044820152606401610432565b61061a8484848403610481565b50505050565b6001600160a01b0383166106845760405162461bcd60e51b815260206004820152602560248201527f45524332303a207472616e736665722066726f6d20746865207a65726f206164604482015264647265737360d81b6064820152608401610432565b6001600160a01b0382166106e65760405162461bcd60e51b815260206004820152602360248201527f45524332303a207472616e7366657220746f20746865207a65726f206164647260448201526265737360e81b6064820152608401610432565b6001600160a01b0383166000908152602081905260409020548181101561075e5760405162461bcd60e51b815260206004820152602660248201527f45524332303a207472616e7366657220616d6f756e7420657863656564732062604482015265616c616e636560d01b6064820152608401610432565b6001600160a01b03808516600090815260208190526040808220858503905591851681529081208054849290610795908490610b90565b92505081905550826001600160a01b0316846001600160a01b03167fddf252ad1be2c89b69c2b068fc378daa952ba7f163c4a11628f55a4df523b3ef846040516107e191815260200190565b60405180910390a361061a565b6001600160a01b0382166108445760405162461bcd60e51b815260206004820152601f60248201527f45524332303a206d696e7420746f20746865207a65726f2061646472657373006044820152606401610432565b80600260008282546108569190610b90565b90915550506001600160a01b03821660009081526020819052604081208054839290610883908490610b90565b90915550506040518181526001600160a01b038316906000907fddf252ad1be2c89b69c2b068fc378daa952ba7f163c4a11628f55a4df523b3ef9060200160405180910390a35050565b6001600160a01b03821661092d5760405162461bcd60e51b815260206004820152602160248201527f45524332303a206275726e2066726f6d20746865207a65726f206164647265736044820152607360f81b6064820152608401610432565b6001600160a01b038216600090815260208190526040902054818110156109a15760405162461bcd60e51b815260206004820152602260248201527f45524332303a206275726e20616d6f756e7420657863656564732062616c616e604482015261636560f01b6064820152608401610432565b6001600160a01b03831660009081526020819052604081208383039055600280548492906109d0908490610ba8565b90915550506040518281526000906001600160a01b038516907fddf252ad1be2c89b69c2b068fc378daa952ba7f163c4a11628f55a4df523b3ef90602001610599565b600060208083528351808285015260005b81811015610a4057858101830151858201604001528201610a24565b81811115610a52576000604083870101525b50601f01601f1916929092016040019392505050565b80356001600160a01b0381168114610a7f57600080fd5b919050565b60008060408385031215610a9757600080fd5b610aa083610a68565b946020939093013593505050565b600080600060608486031215610ac357600080fd5b610acc84610a68565b9250610ada60208501610a68565b9150604084013590509250925092565b600060208284031215610afc57600080fd5b610b0582610a68565b9392505050565b60008060408385031215610b1f57600080fd5b610b2883610a68565b9150610b3660208401610a68565b90509250929050565b600181811c90821680610b5357607f821691505b60208210811415610b7457634e487b7160e01b600052602260045260246000fd5b50919050565b634e487b7160e01b600052601160045260246000fd5b60008219821115610ba357610ba3610b7a565b500190565b600082821015610bba57610bba610b7a565b50039056fea2646970667358221220c1cad5f121f7371680e535ac51af499ee9735c4dcda66ea809a69819c1245be564736f6c63430008080033a264697066735822122088dc47098915eab718b7afeb9c0054be7089c96718035bb8f7a6a5779f7a674964736f6c63430008080033",
  "devdoc": {
    "kind": "dev",
    "methods": {},
    "version": 1
  },
  "userdoc": {
    "kind": "user",
    "methods": {},
    "version": 1
  },
  "storageLayout": {
    "storage": [
      {
        "astId": 717,
        "contract": "contracts/Dex.sol:Dex",
        "label": "pool",
        "offset": 0,
        "slot": "0",
        "type": "t_contract(Pool)1903"
      },
      {
        "astId": 770,
        "contract": "contracts/Dex.sol:Dex",
        "label": "PoolMapping",
        "offset": 0,
        "slot": "1",
        "type": "t_mapping(t_uint256,t_contract(Pool)1903)"
      },
      {
        "astId": 772,
        "contract": "contracts/Dex.sol:Dex",
        "label": "counter",
        "offset": 0,
        "slot": "2",
        "type": "t_uint256"
      }
    ],
    "types": {
      "t_contract(Pool)1903": {
        "encoding": "inplace",
        "label": "contract Pool",
        "numberOfBytes": "20"
      },
      "t_mapping(t_uint256,t_contract(Pool)1903)": {
        "encoding": "mapping",
        "key": "t_uint256",
        "label": "mapping(uint256 => contract Pool)",
        "numberOfBytes": "32",
        "value": "t_contract(Pool)1903"
      },
      "t_uint256": {
        "encoding": "inplace",
        "label": "uint256",
        "numberOfBytes": "32"
      }
    }
  }
}