{
  "address": "0x9fE46736679d2D9a65F0992F2272dE9f3c7fa6e0",
  "abi": [
    {
      "inputs": [],
      "stateMutability": "payable",
      "type": "constructor"
    },
    {
      "anonymous": false,
      "inputs": [
        {
          "indexed": true,
          "internalType": "address",
          "name": "_createBy",
          "type": "address"
        },
        {
          "indexed": true,
          "internalType": "address",
          "name": "_token",
          "type": "address"
        },
        {
          "indexed": true,
          "internalType": "uint256",
          "name": "_id",
          "type": "uint256"
        }
      ],
      "name": "createPoolEvent",
      "type": "event"
    },
    {
      "anonymous": false,
      "inputs": [
        {
          "indexed": true,
          "internalType": "address",
          "name": "_from",
          "type": "address"
        },
        {
          "indexed": true,
          "internalType": "uint256",
          "name": "_lpTokenSupply",
          "type": "uint256"
        },
        {
          "indexed": true,
          "internalType": "uint256",
          "name": "_mintedAmount",
          "type": "uint256"
        },
        {
          "indexed": false,
          "internalType": "uint256",
          "name": "_ethBalance",
          "type": "uint256"
        },
        {
          "indexed": false,
          "internalType": "address",
          "name": "_lpTokenAddress",
          "type": "address"
        },
        {
          "indexed": false,
          "internalType": "uint256",
          "name": "_amount",
          "type": "uint256"
        }
      ],
      "name": "liquidity",
      "type": "event"
    },
    {
      "anonymous": false,
      "inputs": [
        {
          "indexed": true,
          "internalType": "address",
          "name": "_from",
          "type": "address"
        },
        {
          "indexed": true,
          "internalType": "uint256",
          "name": "_lpTokenSupply",
          "type": "uint256"
        },
        {
          "indexed": true,
          "internalType": "uint256",
          "name": "_mintedAmount",
          "type": "uint256"
        },
        {
          "indexed": false,
          "internalType": "uint256",
          "name": "_ethBalance",
          "type": "uint256"
        },
        {
          "indexed": false,
          "internalType": "address",
          "name": "_lpTokenAddress",
          "type": "address"
        },
        {
          "indexed": false,
          "internalType": "uint256",
          "name": "_amount",
          "type": "uint256"
        }
      ],
      "name": "liquidityRemove",
      "type": "event"
    },
    {
      "anonymous": false,
      "inputs": [
        {
          "indexed": true,
          "internalType": "uint256",
          "name": "_first",
          "type": "uint256"
        },
        {
          "indexed": true,
          "internalType": "uint256",
          "name": "_second",
          "type": "uint256"
        }
      ],
      "name": "test",
      "type": "event"
    },
    {
      "anonymous": false,
      "inputs": [
        {
          "indexed": true,
          "internalType": "address",
          "name": "_useraddress",
          "type": "address"
        }
      ],
      "name": "userAddress",
      "type": "event"
    },
    {
      "inputs": [
        {
          "internalType": "uint256",
          "name": "",
          "type": "uint256"
        }
      ],
      "name": "PoolMapping",
      "outputs": [
        {
          "internalType": "contract Pool",
          "name": "",
          "type": "address"
        }
      ],
      "stateMutability": "view",
      "type": "function"
    },
    {
      "inputs": [
        {
          "internalType": "uint256",
          "name": "",
          "type": "uint256"
        }
      ],
      "name": "PoolMappingAddress",
      "outputs": [
        {
          "internalType": "address",
          "name": "",
          "type": "address"
        }
      ],
      "stateMutability": "view",
      "type": "function"
    },
    {
      "inputs": [
        {
          "internalType": "uint256",
          "name": "_pool",
          "type": "uint256"
        },
        {
          "internalType": "uint256",
          "name": "_amount",
          "type": "uint256"
        }
      ],
      "name": "_addLiquidity",
      "outputs": [],
      "stateMutability": "payable",
      "type": "function"
    },
    {
      "inputs": [
        {
          "internalType": "uint256",
          "name": "_pool",
          "type": "uint256"
        },
        {
          "internalType": "uint256",
          "name": "_amount",
          "type": "uint256"
        }
      ],
      "name": "_getSwapAmount",
      "outputs": [
        {
          "internalType": "uint256",
          "name": "",
          "type": "uint256"
        }
      ],
      "stateMutability": "nonpayable",
      "type": "function"
    },
    {
      "inputs": [
        {
          "internalType": "uint256",
          "name": "_pool",
          "type": "uint256"
        },
        {
          "internalType": "uint256",
          "name": "_amount",
          "type": "uint256"
        }
      ],
      "name": "_getSwapAmountEth",
      "outputs": [
        {
          "internalType": "uint256",
          "name": "",
          "type": "uint256"
        }
      ],
      "stateMutability": "payable",
      "type": "function"
    },
    {
      "inputs": [
        {
          "internalType": "uint256",
          "name": "_pool",
          "type": "uint256"
        },
        {
          "internalType": "uint256",
          "name": "_amount",
          "type": "uint256"
        }
      ],
      "name": "_removeLiquidity",
      "outputs": [],
      "stateMutability": "payable",
      "type": "function"
    },
    {
      "inputs": [
        {
          "internalType": "uint256",
          "name": "_pool",
          "type": "uint256"
        },
        {
          "internalType": "uint256",
          "name": "_amount",
          "type": "uint256"
        }
      ],
      "name": "_swapEthToToken",
      "outputs": [],
      "stateMutability": "payable",
      "type": "function"
    },
    {
      "inputs": [
        {
          "internalType": "uint256",
          "name": "_pool",
          "type": "uint256"
        },
        {
          "internalType": "uint256",
          "name": "_amount",
          "type": "uint256"
        },
        {
          "internalType": "uint256",
          "name": "_estimatedAmount",
          "type": "uint256"
        }
      ],
      "name": "_swapTokenToEth",
      "outputs": [],
      "stateMutability": "payable",
      "type": "function"
    },
    {
      "inputs": [],
      "name": "counter",
      "outputs": [
        {
          "internalType": "uint256",
          "name": "",
          "type": "uint256"
        }
      ],
      "stateMutability": "view",
      "type": "function"
    },
    {
      "inputs": [
        {
          "internalType": "address",
          "name": "tokenA",
          "type": "address"
        }
      ],
      "name": "createPool",
      "outputs": [],
      "stateMutability": "payable",
      "type": "function"
    },
    {
      "inputs": [
        {
          "internalType": "uint256",
          "name": "_pool",
          "type": "uint256"
        }
      ],
      "name": "getPoolAddress",
      "outputs": [
        {
          "internalType": "address",
          "name": "",
          "type": "address"
        }
      ],
      "stateMutability": "view",
      "type": "function"
    },
    {
      "inputs": [],
      "name": "pool",
      "outputs": [
        {
          "internalType": "contract Pool",
          "name": "",
          "type": "address"
        }
      ],
      "stateMutability": "view",
      "type": "function"
    }
  ],
  "transactionHash": "0x8de6a66dfe294f1cf005d0741bead257eb149b307da287195e99e17340fa8f54",
  "args": [],
  "numDeployments": 1,
  "solcInputHash": "54be6e4fa644dd37ad48c0110ea08b1f",
  "bytecode": "0x60806040526139d5806100136000396000f3fe6080604052600436106100a65760003560e01c80631697b54d116100645780631697b54d146101b357806316f0115b146101c657806361bc221a146101e65780639049f9d2146101fc5780639e8af2af1461020f578063ecc861d01461022257600080fd5b8062a5ae21146100ab57806304c55b92146100fe5780630b6af776146101345780631269e22f1461014957806315f08f2c1461015c57806316095f6c14610192575b600080fd5b3480156100b757600080fd5b506100e16100c6366004610809565b6000908152600160205260409020546001600160a01b031690565b6040516001600160a01b0390911681526020015b60405180910390f35b34801561010a57600080fd5b506100e1610119366004610809565b6001602052600090815260409020546001600160a01b031681565b610147610142366004610822565b610242565b005b610147610157366004610822565b61035e565b34801561016857600080fd5b506100e1610177366004610809565b6002602052600090815260409020546001600160a01b031681565b6101a56101a0366004610822565b6103e4565b6040519081526020016100f5565b6101476101c1366004610844565b610487565b3480156101d257600080fd5b506000546100e1906001600160a01b031681565b3480156101f257600080fd5b506101a560035481565b61014761020a366004610888565b610515565b61014761021d366004610822565b61060d565b34801561022e57600080fd5b506101a561023d366004610822565b610761565b6000828152600160205260408082205482546001600160a01b0319166001600160a01b03909116908117835590516305fe138b60e01b81526004810184905233602482015282918291829182916305fe138b9060440160a060405180830381600087803b1580156102b257600080fd5b505af11580156102c6573d6000803e3d6000fd5b505050506040513d601f19601f820116820180604052508101906102ea91906108ac565b945094509450945094508284866001600160a01b03167fb86d3ce8f3e4c87fb23441d470b1a1abf8aac3ddd7c823bec71a4d24825416ee85858b60405161034d939291909283526001600160a01b03919091166020830152604082015260600190565b60405180910390a450505050505050565b6000828152600160205260408082205482546001600160a01b0319166001600160a01b0390911690811790925551636208d8e560e11b81526004810183905233602482015263c411b1ca9034906044016000604051808303818588803b1580156103c757600080fd5b505af11580156103db573d6000803e3d6000fd5b50505050505050565b6000828152600160205260408082205482546001600160a01b0319166001600160a01b039091169081178355905163582cf78160e01b81526004810184905263582cf7819034906024016020604051808303818588803b15801561044757600080fd5b505af115801561045b573d6000803e3d6000fd5b50505050506040513d601f19601f820116820180604052508101906104809190610904565b5092915050565b6000838152600160205260408082205482546001600160a01b0319166001600160a01b0390911690811790925551635e16d9df60e01b81526004810184905260248101839052336044820152635e16d9df9034906064016000604051808303818588803b1580156104f757600080fd5b505af115801561050b573d6000803e3d6000fd5b5050505050505050565b80604051610522906107fb565b6001600160a01b039091168152602001604051809103906000f08015801561054e573d6000803e3d6000fd5b50600080546001600160a01b039283166001600160a01b0319918216811783556003805484526001602052604080852080549094169092179092559054825491519093919091169133917ff86e3d2fc794443a042a24aab307e2450c5ea5ddde4894a5db19df1339e0e23b9190a4600080546040516001600160a01b03909116917f360500cc0bb9908acbdda3a2865dcefc4ae2dbe309f4fbedf074eb0a9a9a16ac91a2600160036000828254610605919061091d565b909155505050565b348110156106545760405162461bcd60e51b815260206004820152601060248201526f1d1bc81b1a5d1d1b1948185b5bdd5b9d60821b604482015260640160405180910390fd5b6000828152600160205260408082205482546001600160a01b0319166001600160a01b03909116908117835590516364afce8760e11b815260048101849052336024820152829182918291829163c95f9d0e90349060440160a0604051808303818588803b1580156106c557600080fd5b505af11580156106d9573d6000803e3d6000fd5b50505050506040513d601f19601f820116820180604052508101906106fe91906108ac565b945094509450945094508284866001600160a01b03167faef71f614a66d41962e743d1ada4f84ea9ad4e786e9a377c41b970a3da69053c85858b60405161034d939291909283526001600160a01b03919091166020830152604082015260600190565b6000828152600160205260408082205482546001600160a01b0319166001600160a01b0390911690811783559051630de703e160e41b81526004810184905263de703e1090602401602060405180830381600087803b1580156107c357600080fd5b505af11580156107d7573d6000803e3d6000fd5b505050506040513d601f19601f820116820180604052508101906104809190610904565b61305c806200094483390190565b60006020828403121561081b57600080fd5b5035919050565b6000806040838503121561083557600080fd5b50508035926020909101359150565b60008060006060848603121561085957600080fd5b505081359360208301359350604090920135919050565b6001600160a01b038116811461088557600080fd5b50565b60006020828403121561089a57600080fd5b81356108a581610870565b9392505050565b600080600080600060a086880312156108c457600080fd5b85516108cf81610870565b8095505060208601519350604086015192506060860151915060808601516108f681610870565b809150509295509295909350565b60006020828403121561091657600080fd5b5051919050565b6000821982111561093e57634e487b7160e01b600052601160045260246000fd5b50019056fe60806040523480156200001157600080fd5b506040516200305c3803806200305c8339810160408190526200003491620001cc565b604080518082018252600281526104c760f41b60208083019182528351808501909452600784526626282a37b5b2b760c91b9084015281519192916200007d9160039162000118565b5080516200009390600490602084019062000118565b5050506001600160a01b038116620000aa57600080fd5b600680546001600160a01b0319166001600160a01b038316179055604051620000d390620001a7565b604051809103906000f080158015620000f0573d6000803e3d6000fd5b50600580546001600160a01b0319166001600160a01b0392909216919091179055506200023b565b8280546200012690620001fe565b90600052602060002090601f0160209004810192826200014a576000855562000195565b82601f106200016557805160ff191683800117855562000195565b8280016001018555821562000195579182015b828111156200019557825182559160200191906001019062000178565b50620001a3929150620001b5565b5090565b610d6280620022fa83390190565b5b80821115620001a35760008155600101620001b6565b600060208284031215620001df57600080fd5b81516001600160a01b0381168114620001f757600080fd5b9392505050565b600181811c908216806200021357607f821691505b602082108114156200023557634e487b7160e01b600052602260045260246000fd5b50919050565b6120af806200024b6000396000f3fe60806040526004361061015b5760003560e01c80635fcbd285116100c8578063a9059cbb11610084578063cca3e83211610061578063cca3e832146103fc578063dd62ed3e1461041c578063de703e101461043c578063f835cd3c1461045c57005b8063a9059cbb146103b6578063c411b1ca146103d6578063c95f9d0e146103e957005b80635fcbd285146102e057806370a082311461031857806394d0851d1461034e57806395d89b41146103615780639dc29fac14610376578063a457c2d71461039657005b80633950935111610117578063395093511461025d5780633eaaf86b1461027d57806340c10f1914610292578063582cf781146102b257806359bf5d39146102c55780635e16d9df146102cd57005b806305fe138b1461016457806306fdde03146101b0578063095ea7b3146101d257806318160ddd1461020257806323b872dd14610221578063313ce5671461024157005b3661016257005b005b610177610172366004611da1565b61047c565b604080516001600160a01b03968716815260208101959095528401929092526060830152909116608082015260a0015b60405180910390f35b3480156101bc57600080fd5b506101c56109b7565b6040516101a79190611dcd565b3480156101de57600080fd5b506101f26101ed366004611e22565b610a49565b60405190151581526020016101a7565b34801561020e57600080fd5b506002545b6040519081526020016101a7565b34801561022d57600080fd5b506101f261023c366004611e4c565b610a61565b34801561024d57600080fd5b50604051601281526020016101a7565b34801561026957600080fd5b506101f2610278366004611e22565b610a85565b34801561028957600080fd5b50610213610aa7565b34801561029e57600080fd5b506101626102ad366004611e22565b610ab7565b6102136102c0366004611e88565b610afb565b610213610bba565b6101626102db366004611ea1565b610c40565b3480156102ec57600080fd5b50600554610300906001600160a01b031681565b6040516001600160a01b0390911681526020016101a7565b34801561032457600080fd5b50610213610333366004611ed6565b6001600160a01b031660009081526020819052604090205490565b34801561035a57600080fd5b5030610300565b34801561036d57600080fd5b506101c5610f25565b34801561038257600080fd5b50610162610391366004611e22565b610f34565b3480156103a257600080fd5b506101f26103b1366004611e22565b610f74565b3480156103c257600080fd5b506101f26103d1366004611e22565b610fef565b6101626103e4366004611da1565b610ffd565b6101776103f7366004611da1565b611249565b34801561040857600080fd5b50610213610417366004611ed6565b6116f8565b34801561042857600080fd5b50610213610437366004611ef8565b611716565b34801561044857600080fd5b50610213610457366004611e88565b611741565b34801561046857600080fd5b50600654610300906001600160a01b031681565b600080808080610490565b60405180910390fd5b600554604051632770a7eb60e21b81526001600160a01b038881166004830152602482018a905290911690639dc29fac90604401600060405180830381600087803b1580156104de57600080fd5b505af11580156104f2573d6000803e3d6000fd5b505060065460055460408051633eaaf86b60e01b815290516001600160a01b03938416955063095ea7b39450309390921691633eaaf86b91600480820192602092909190829003018186803b15801561054a57600080fd5b505afa15801561055e573d6000803e3d6000fd5b505050506040513d601f19601f820116820180604052508101906105829190611f22565b6006546040516370a0823160e01b81523060048201528c916001600160a01b0316906370a082319060240160206040518083038186803b1580156105c557600080fd5b505afa1580156105d9573d6000803e3d6000fd5b505050506040513d601f19601f820116820180604052508101906105fd9190611f22565b6106079190611f51565b6106119190611f70565b6040516001600160e01b031960e085901b1681526001600160a01b0390921660048301526024820152604401602060405180830381600087803b15801561065757600080fd5b505af115801561066b573d6000803e3d6000fd5b505050506040513d601f19601f8201168201806040525081019061068f9190611f92565b5060065460055460408051633eaaf86b60e01b815290516001600160a01b03938416936323b872dd9330938c939190921691633eaaf86b916004808301926020929190829003018186803b1580156106e657600080fd5b505afa1580156106fa573d6000803e3d6000fd5b505050506040513d601f19601f8201168201806040525081019061071e9190611f22565b6006546040516370a0823160e01b81523060048201528d916001600160a01b0316906370a082319060240160206040518083038186803b15801561076157600080fd5b505afa158015610775573d6000803e3d6000fd5b505050506040513d601f19601f820116820180604052508101906107999190611f22565b6107a39190611f51565b6107ad9190611f70565b6040518463ffffffff1660e01b81526004016107cb93929190611fb4565b602060405180830381600087803b1580156107e557600080fd5b505af11580156107f9573d6000803e3d6000fd5b505050506040513d601f19601f8201168201806040525081019061081d9190611f92565b5060055460408051633eaaf86b60e01b815290516000926001600160a01b031691633eaaf86b916004808301926020929190829003018186803b15801561086357600080fd5b505afa158015610877573d6000803e3d6000fd5b505050506040513d601f19601f8201168201806040525081019061089b9190611f22565b6108a58947611f51565b6108af9190611f70565b9050600080886001600160a01b03168360405160006040518083038185875af1925050503d80600081146108ff576040519150601f19603f3d011682016040523d82523d6000602084013e610904565b606091505b509150915088600560009054906101000a90046001600160a01b03166001600160a01b0316633eaaf86b6040518163ffffffff1660e01b815260040160206040518083038186803b15801561095857600080fd5b505afa15801561096c573d6000803e3d6000fd5b505050506040513d601f19601f820116820180604052508101906109909190611f22565b60055491995097508a96504795506001600160a01b031693505050505b9295509295909350565b6060600380546109c690611fd8565b80601f01602080910402602001604051908101604052809291908181526020018280546109f290611fd8565b8015610a3f5780601f10610a1457610100808354040283529160200191610a3f565b820191906000526020600020905b815481529060010190602001808311610a2257829003601f168201915b5050505050905090565b600033610a578185856117f3565b5060019392505050565b600033610a6f858285611918565b610a7a858585611992565b506001949350505050565b600033610a57818585610a988383611716565b610aa29190612013565b6117f3565b6000610ab260025490565b905090565b60405181906001600160a01b038416907fb7656808f0e04b4af7a20f7ef1caa7669f0d781f1ca4cba31a3ba467880766c990600090a3610af78282611b60565b5050565b600080610b06610bba565b90506000610b14844761202b565b90506000610b23856063611f51565b90506000610b32836064611f51565b9050600083118015610b445750600084115b610b605760405162461bcd60e51b815260040161048790612042565b6000610b6c8288612013565b610b768685611f51565b610b809190611f70565b905080877fcfaa9fe844caafbeed42965f22ddbb67532fa515e7284d5c317af5c8ab8d3e9e60405160405180910390a39695505050505050565b6006546040516370a0823160e01b815230600482015260009182916001600160a01b03909116906370a082319060240160206040518083038186803b158015610c0257600080fd5b505afa158015610c16573d6000803e3d6000fd5b505050506040513d601f19601f82011682018060405250810190610c3a9190611f22565b92915050565b6000610c4a610bba565b9050476000610c5a866063611f51565b90506000610c69846064611f51565b9050600084118015610c7b5750600083115b610c975760405162461bcd60e51b815260040161048790612042565b6000610ca38289612013565b610cad8585611f51565b610cb79190611f70565b905086811015610d095760405162461bcd60e51b815260206004820152601d60248201527f746f206c6974746c6520616d6f756e7420666f72207377617070696e670000006044820152606401610487565b60065460405163095ea7b360e01b81526001600160a01b038881166004830152602482018490529091169063095ea7b390604401602060405180830381600087803b158015610d5757600080fd5b505af1158015610d6b573d6000803e3d6000fd5b505050506040513d601f19601f82011682018060405250810190610d8f9190611f92565b506006546040516323b872dd60e01b81526001600160a01b03909116906323b872dd90610dc490899030908690600401611fb4565b602060405180830381600087803b158015610dde57600080fd5b505af1158015610df2573d6000803e3d6000fd5b505050506040513d601f19601f82011682018060405250810190610e169190611f92565b50600080876001600160a01b03168360405160006040518083038185875af1925050503d8060008114610e65576040519150601f19603f3d011682016040523d82523d6000602084013e610e6a565b606091505b50604051680e8ded6cadc5ecae8d60bb1b8152919350915060090160405190819003812060065485835290916001600160a01b038b81169216907fce9f99712c8bc2e049d7626ab6410b1a43910ca5354c5de77a14024599156ba89060200160405180910390a4604080516001600160a01b038a168152602081018590528691869189917f442eeca641ffac06d7005f2ef6bc3f115b4e51a3324d56430545e2561f174f75910160405180910390a450505050505050505050565b6060600480546109c690611fd8565b60405181906001600160a01b038416907f8b1897d4e7a3b42570088bb1182eb6518c96a754d44bc9edd4669568bfa9832690600090a3610af78282611c3f565b60003381610f828286611716565b905083811015610fe25760405162461bcd60e51b815260206004820152602560248201527f45524332303a2064656372656173656420616c6c6f77616e63652062656c6f77604482015264207a65726f60d81b6064820152608401610487565b610a7a82868684036117f3565b600033610a57818585611992565b6000611007610bba565b90506000611015344761202b565b90506000611024346063611f51565b90506000611033836064611f51565b90506000831180156110455750600084115b6110615760405162461bcd60e51b815260040161048790612042565b600061106d8234612013565b6110778685611f51565b6110819190611f70565b9050868110156110d35760405162461bcd60e51b815260206004820152601d60248201527f746f206c6974746c6520616d6f756e7420666f72207377617070696e670000006044820152606401610487565b60065460405163095ea7b360e01b8152306004820152602481018390526001600160a01b039091169063095ea7b390604401602060405180830381600087803b15801561111f57600080fd5b505af1158015611133573d6000803e3d6000fd5b505050506040513d601f19601f820116820180604052508101906111579190611f92565b506006546040516323b872dd60e01b81526001600160a01b03909116906323b872dd9061118c9030908a908690600401611fb4565b602060405180830381600087803b1580156111a657600080fd5b505af11580156111ba573d6000803e3d6000fd5b505050506040513d601f19601f820116820180604052508101906111de9190611f92565b506040516832ba3417ba37b5b2b760b91b815260090160405190819003812060065483835290916001600160a01b038981169216907fce9f99712c8bc2e049d7626ab6410b1a43910ca5354c5de77a14024599156ba89060200160405180910390a450505050505050565b60008060008060008061125a610bba565b90506000611268344761202b565b9050816113f7576005546040516340c10f1960e01b81526001600160a01b038a81166004830152602482018c9052909116906340c10f1990604401600060405180830381600087803b1580156112bd57600080fd5b505af11580156112d1573d6000803e3d6000fd5b50506006546040516323b872dd60e01b81526001600160a01b0390911692506323b872dd9150611309908b9030908e90600401611fb4565b602060405180830381600087803b15801561132357600080fd5b505af1158015611337573d6000803e3d6000fd5b505050506040513d601f19601f8201168201806040525081019061135b9190611f92565b5060055460408051633eaaf86b60e01b815290518a926001600160a01b031691633eaaf86b916004808301926020929190829003018186803b1580156113a057600080fd5b505afa1580156113b4573d6000803e3d6000fd5b505050506040513d601f19601f820116820180604052508101906113d89190611f22565b6005549198509650919450479350506001600160a01b031690506109ad565b6000816114048434611f51565b61140e9190611f70565b9050808a10156114865760405162461bcd60e51b815260206004820152603c60248201527f6e6f74206163636570746564206c6971756964697479206c657373207468656e60448201527f20746865206d696e696d756d20616d6f756e74206163636570746564000000006064820152608401610487565b6006546040516323b872dd60e01b81526001600160a01b03909116906323b872dd906114ba908c9030908690600401611fb4565b602060405180830381600087803b1580156114d457600080fd5b505af11580156114e8573d6000803e3d6000fd5b505050506040513d601f19601f8201168201806040525081019061150c9190611f92565b5060008234600560009054906101000a90046001600160a01b03166001600160a01b0316633eaaf86b6040518163ffffffff1660e01b815260040160206040518083038186803b15801561155f57600080fd5b505afa158015611573573d6000803e3d6000fd5b505050506040513d601f19601f820116820180604052508101906115979190611f22565b6115a19190611f51565b6115ab9190611f70565b6005546040516340c10f1960e01b81526001600160a01b038d81166004830152602482018490529293509116906340c10f1990604401600060405180830381600087803b1580156115fb57600080fd5b505af115801561160f573d6000803e3d6000fd5b5050604080516001600160a01b038e1681523460208201528693508592508e917f442eeca641ffac06d7005f2ef6bc3f115b4e51a3324d56430545e2561f174f75910160405180910390a460055460408051633eaaf86b60e01b815290518c926001600160a01b031691633eaaf86b916004808301926020929190829003018186803b15801561169e57600080fd5b505afa1580156116b2573d6000803e3d6000fd5b505050506040513d601f19601f820116820180604052508101906116d69190611f22565b600554919a5098509096504795506001600160a01b031693506109ad92505050565b6001600160a01b038116600090815260208190526040812054610c3a565b6001600160a01b03918216600090815260016020908152604080832093909416825291909152205490565b60008061174c610bba565b905047600061175c856063611f51565b9050600061176b846064611f51565b905060008411801561177d5750600083115b6117995760405162461bcd60e51b815260040161048790612042565b60006117a58288612013565b6117af8585611f51565b6117b99190611f70565b905081817fcfaa9fe844caafbeed42965f22ddbb67532fa515e7284d5c317af5c8ab8d3e9e60405160405180910390a39695505050505050565b6001600160a01b0383166118555760405162461bcd60e51b8152602060048201526024808201527f45524332303a20617070726f76652066726f6d20746865207a65726f206164646044820152637265737360e01b6064820152608401610487565b6001600160a01b0382166118b65760405162461bcd60e51b815260206004820152602260248201527f45524332303a20617070726f766520746f20746865207a65726f206164647265604482015261737360f01b6064820152608401610487565b6001600160a01b0383811660008181526001602090815260408083209487168084529482529182902085905590518481527f8c5be1e5ebec7d5bd14f71427d1e84f3dd0314c0f7b2291e5b200ac8c7c3b92591015b60405180910390a3505050565b60006119248484611716565b9050600019811461198c578181101561197f5760405162461bcd60e51b815260206004820152601d60248201527f45524332303a20696e73756666696369656e7420616c6c6f77616e63650000006044820152606401610487565b61198c84848484036117f3565b50505050565b6001600160a01b0383166119f65760405162461bcd60e51b815260206004820152602560248201527f45524332303a207472616e736665722066726f6d20746865207a65726f206164604482015264647265737360d81b6064820152608401610487565b6001600160a01b038216611a585760405162461bcd60e51b815260206004820152602360248201527f45524332303a207472616e7366657220746f20746865207a65726f206164647260448201526265737360e81b6064820152608401610487565b6001600160a01b03831660009081526020819052604090205481811015611ad05760405162461bcd60e51b815260206004820152602660248201527f45524332303a207472616e7366657220616d6f756e7420657863656564732062604482015265616c616e636560d01b6064820152608401610487565b6001600160a01b03808516600090815260208190526040808220858503905591851681529081208054849290611b07908490612013565b92505081905550826001600160a01b0316846001600160a01b03167fddf252ad1be2c89b69c2b068fc378daa952ba7f163c4a11628f55a4df523b3ef84604051611b5391815260200190565b60405180910390a361198c565b6001600160a01b038216611bb65760405162461bcd60e51b815260206004820152601f60248201527f45524332303a206d696e7420746f20746865207a65726f2061646472657373006044820152606401610487565b8060026000828254611bc89190612013565b90915550506001600160a01b03821660009081526020819052604081208054839290611bf5908490612013565b90915550506040518181526001600160a01b038316906000907fddf252ad1be2c89b69c2b068fc378daa952ba7f163c4a11628f55a4df523b3ef9060200160405180910390a35050565b6001600160a01b038216611c9f5760405162461bcd60e51b815260206004820152602160248201527f45524332303a206275726e2066726f6d20746865207a65726f206164647265736044820152607360f81b6064820152608401610487565b6001600160a01b03821660009081526020819052604090205481811015611d135760405162461bcd60e51b815260206004820152602260248201527f45524332303a206275726e20616d6f756e7420657863656564732062616c616e604482015261636560f01b6064820152608401610487565b6001600160a01b0383166000908152602081905260408120838303905560028054849290611d4290849061202b565b90915550506040518281526000906001600160a01b038516907fddf252ad1be2c89b69c2b068fc378daa952ba7f163c4a11628f55a4df523b3ef9060200161190b565b80356001600160a01b0381168114611d9c57600080fd5b919050565b60008060408385031215611db457600080fd5b82359150611dc460208401611d85565b90509250929050565b600060208083528351808285015260005b81811015611dfa57858101830151858201604001528201611dde565b81811115611e0c576000604083870101525b50601f01601f1916929092016040019392505050565b60008060408385031215611e3557600080fd5b611e3e83611d85565b946020939093013593505050565b600080600060608486031215611e6157600080fd5b611e6a84611d85565b9250611e7860208501611d85565b9150604084013590509250925092565b600060208284031215611e9a57600080fd5b5035919050565b600080600060608486031215611eb657600080fd5b8335925060208401359150611ecd60408501611d85565b90509250925092565b600060208284031215611ee857600080fd5b611ef182611d85565b9392505050565b60008060408385031215611f0b57600080fd5b611f1483611d85565b9150611dc460208401611d85565b600060208284031215611f3457600080fd5b5051919050565b634e487b7160e01b600052601160045260246000fd5b6000816000190483118215151615611f6b57611f6b611f3b565b500290565b600082611f8d57634e487b7160e01b600052601260045260246000fd5b500490565b600060208284031215611fa457600080fd5b81518015158114611ef157600080fd5b6001600160a01b039384168152919092166020820152604081019190915260600190565b600181811c90821680611fec57607f821691505b6020821081141561200d57634e487b7160e01b600052602260045260246000fd5b50919050565b6000821982111561202657612026611f3b565b500190565b60008282101561203d5761203d611f3b565b500390565b60208082526017908201527f696e76616c696465207265736572766520616d6f756e7400000000000000000060408201526060019056fea2646970667358221220cacc3f95fa632cf435a7c64e398808bd5015e83dbdf42fa114691fb11d6d9d3164736f6c6343000808003360806040523480156200001157600080fd5b50604080518082018252600281526104c760f41b60208083019182528351808501909452600784526626282a37b5b2b760c91b9084015281519192916200005b916003916200007a565b508051620000719060049060208401906200007a565b5050506200015d565b828054620000889062000120565b90600052602060002090601f016020900481019282620000ac5760008555620000f7565b82601f10620000c757805160ff1916838001178555620000f7565b82800160010185558215620000f7579182015b82811115620000f7578251825591602001919060010190620000da565b506200010592915062000109565b5090565b5b808211156200010557600081556001016200010a565b600181811c908216806200013557607f821691505b602082108114156200015757634e487b7160e01b600052602260045260246000fd5b50919050565b610bf5806200016d6000396000f3fe608060405234801561001057600080fd5b50600436106101005760003560e01c806370a0823111610097578063a457c2d711610066578063a457c2d7146101fc578063a9059cbb1461020f578063cca3e832146101aa578063dd62ed3e1461022257600080fd5b806370a08231146101aa57806394d0851d146101d357806395d89b41146101e15780639dc29fac146101e957600080fd5b8063313ce567116100d3578063313ce5671461016b578063395093511461017a5780633eaaf86b1461018d57806340c10f191461019557600080fd5b806306fdde0314610105578063095ea7b31461012357806318160ddd1461014657806323b872dd14610158575b600080fd5b61010d610235565b60405161011a9190610a13565b60405180910390f35b610136610131366004610a84565b6102c7565b604051901515815260200161011a565b6002545b60405190815260200161011a565b610136610166366004610aae565b6102df565b6040516012815260200161011a565b610136610188366004610a84565b610303565b61014a610325565b6101a86101a3366004610a84565b610335565b005b61014a6101b8366004610aea565b6001600160a01b031660009081526020819052604090205490565b60405130815260200161011a565b61010d610379565b6101a86101f7366004610a84565b610388565b61013661020a366004610a84565b6103c8565b61013661021d366004610a84565b610448565b61014a610230366004610b0c565b610456565b60606003805461024490610b3f565b80601f016020809104026020016040519081016040528092919081815260200182805461027090610b3f565b80156102bd5780601f10610292576101008083540402835291602001916102bd565b820191906000526020600020905b8154815290600101906020018083116102a057829003601f168201915b5050505050905090565b6000336102d5818585610481565b5060019392505050565b6000336102ed8582856105a6565b6102f8858585610620565b506001949350505050565b6000336102d58185856103168383610456565b6103209190610b90565b610481565b600061033060025490565b905090565b60405181906001600160a01b038416907fb7656808f0e04b4af7a20f7ef1caa7669f0d781f1ca4cba31a3ba467880766c990600090a361037582826107ee565b5050565b60606004805461024490610b3f565b60405181906001600160a01b038416907f8b1897d4e7a3b42570088bb1182eb6518c96a754d44bc9edd4669568bfa9832690600090a361037582826108cd565b600033816103d68286610456565b90508381101561043b5760405162461bcd60e51b815260206004820152602560248201527f45524332303a2064656372656173656420616c6c6f77616e63652062656c6f77604482015264207a65726f60d81b60648201526084015b60405180910390fd5b6102f88286868403610481565b6000336102d5818585610620565b6001600160a01b03918216600090815260016020908152604080832093909416825291909152205490565b6001600160a01b0383166104e35760405162461bcd60e51b8152602060048201526024808201527f45524332303a20617070726f76652066726f6d20746865207a65726f206164646044820152637265737360e01b6064820152608401610432565b6001600160a01b0382166105445760405162461bcd60e51b815260206004820152602260248201527f45524332303a20617070726f766520746f20746865207a65726f206164647265604482015261737360f01b6064820152608401610432565b6001600160a01b0383811660008181526001602090815260408083209487168084529482529182902085905590518481527f8c5be1e5ebec7d5bd14f71427d1e84f3dd0314c0f7b2291e5b200ac8c7c3b92591015b60405180910390a3505050565b60006105b28484610456565b9050600019811461061a578181101561060d5760405162461bcd60e51b815260206004820152601d60248201527f45524332303a20696e73756666696369656e7420616c6c6f77616e63650000006044820152606401610432565b61061a8484848403610481565b50505050565b6001600160a01b0383166106845760405162461bcd60e51b815260206004820152602560248201527f45524332303a207472616e736665722066726f6d20746865207a65726f206164604482015264647265737360d81b6064820152608401610432565b6001600160a01b0382166106e65760405162461bcd60e51b815260206004820152602360248201527f45524332303a207472616e7366657220746f20746865207a65726f206164647260448201526265737360e81b6064820152608401610432565b6001600160a01b0383166000908152602081905260409020548181101561075e5760405162461bcd60e51b815260206004820152602660248201527f45524332303a207472616e7366657220616d6f756e7420657863656564732062604482015265616c616e636560d01b6064820152608401610432565b6001600160a01b03808516600090815260208190526040808220858503905591851681529081208054849290610795908490610b90565b92505081905550826001600160a01b0316846001600160a01b03167fddf252ad1be2c89b69c2b068fc378daa952ba7f163c4a11628f55a4df523b3ef846040516107e191815260200190565b60405180910390a361061a565b6001600160a01b0382166108445760405162461bcd60e51b815260206004820152601f60248201527f45524332303a206d696e7420746f20746865207a65726f2061646472657373006044820152606401610432565b80600260008282546108569190610b90565b90915550506001600160a01b03821660009081526020819052604081208054839290610883908490610b90565b90915550506040518181526001600160a01b038316906000907fddf252ad1be2c89b69c2b068fc378daa952ba7f163c4a11628f55a4df523b3ef9060200160405180910390a35050565b6001600160a01b03821661092d5760405162461bcd60e51b815260206004820152602160248201527f45524332303a206275726e2066726f6d20746865207a65726f206164647265736044820152607360f81b6064820152608401610432565b6001600160a01b038216600090815260208190526040902054818110156109a15760405162461bcd60e51b815260206004820152602260248201527f45524332303a206275726e20616d6f756e7420657863656564732062616c616e604482015261636560f01b6064820152608401610432565b6001600160a01b03831660009081526020819052604081208383039055600280548492906109d0908490610ba8565b90915550506040518281526000906001600160a01b038516907fddf252ad1be2c89b69c2b068fc378daa952ba7f163c4a11628f55a4df523b3ef90602001610599565b600060208083528351808285015260005b81811015610a4057858101830151858201604001528201610a24565b81811115610a52576000604083870101525b50601f01601f1916929092016040019392505050565b80356001600160a01b0381168114610a7f57600080fd5b919050565b60008060408385031215610a9757600080fd5b610aa083610a68565b946020939093013593505050565b600080600060608486031215610ac357600080fd5b610acc84610a68565b9250610ada60208501610a68565b9150604084013590509250925092565b600060208284031215610afc57600080fd5b610b0582610a68565b9392505050565b60008060408385031215610b1f57600080fd5b610b2883610a68565b9150610b3660208401610a68565b90509250929050565b600181811c90821680610b5357607f821691505b60208210811415610b7457634e487b7160e01b600052602260045260246000fd5b50919050565b634e487b7160e01b600052601160045260246000fd5b60008219821115610ba357610ba3610b7a565b500190565b600082821015610bba57610bba610b7a565b50039056fea2646970667358221220c1cad5f121f7371680e535ac51af499ee9735c4dcda66ea809a69819c1245be564736f6c63430008080033a2646970667358221220155693248bf9aa1fe0962bcbcd6766e6a254a15527a9457fb999c2854c698ade64736f6c63430008080033",
  "devdoc": {
    "kind": "dev",
    "methods": {},
    "version": 1
  },
  "userdoc": {
    "kind": "user",
    "methods": {},
    "version": 1
  },
  "storageLayout": {
    "storage": [
      {
        "astId": 717,
        "contract": "contracts/Dex.sol:Dex",
        "label": "pool",
        "offset": 0,
        "slot": "0",
        "type": "t_contract(Pool)1890"
      },
      {
        "astId": 768,
        "contract": "contracts/Dex.sol:Dex",
        "label": "PoolMapping",
        "offset": 0,
        "slot": "1",
        "type": "t_mapping(t_uint256,t_contract(Pool)1890)"
      },
      {
        "astId": 772,
        "contract": "contracts/Dex.sol:Dex",
        "label": "PoolMappingAddress",
        "offset": 0,
        "slot": "2",
        "type": "t_mapping(t_uint256,t_address)"
      },
      {
        "astId": 774,
        "contract": "contracts/Dex.sol:Dex",
        "label": "counter",
        "offset": 0,
        "slot": "3",
        "type": "t_uint256"
      }
    ],
    "types": {
      "t_address": {
        "encoding": "inplace",
        "label": "address",
        "numberOfBytes": "20"
      },
      "t_contract(Pool)1890": {
        "encoding": "inplace",
        "label": "contract Pool",
        "numberOfBytes": "20"
      },
      "t_mapping(t_uint256,t_address)": {
        "encoding": "mapping",
        "key": "t_uint256",
        "label": "mapping(uint256 => address)",
        "numberOfBytes": "32",
        "value": "t_address"
      },
      "t_mapping(t_uint256,t_contract(Pool)1890)": {
        "encoding": "mapping",
        "key": "t_uint256",
        "label": "mapping(uint256 => contract Pool)",
        "numberOfBytes": "32",
        "value": "t_contract(Pool)1890"
      },
      "t_uint256": {
        "encoding": "inplace",
        "label": "uint256",
        "numberOfBytes": "32"
      }
    }
  }
}