{
  "address": "0x9fE46736679d2D9a65F0992F2272dE9f3c7fa6e0",
  "abi": [
    {
      "inputs": [],
      "stateMutability": "payable",
      "type": "constructor"
    },
    {
      "anonymous": false,
      "inputs": [
        {
          "indexed": true,
          "internalType": "address",
          "name": "_createBy",
          "type": "address"
        },
        {
          "indexed": true,
          "internalType": "address",
          "name": "_token",
          "type": "address"
        },
        {
          "indexed": true,
          "internalType": "uint256",
          "name": "_id",
          "type": "uint256"
        }
      ],
      "name": "createPoolEvent",
      "type": "event"
    },
    {
      "anonymous": false,
      "inputs": [
        {
          "indexed": false,
          "internalType": "uint256",
          "name": "_amount",
          "type": "uint256"
        }
      ],
      "name": "getSwapAmount",
      "type": "event"
    },
    {
      "anonymous": false,
      "inputs": [
        {
          "indexed": true,
          "internalType": "address",
          "name": "_from",
          "type": "address"
        },
        {
          "indexed": true,
          "internalType": "uint256",
          "name": "_lpTokenSupply",
          "type": "uint256"
        },
        {
          "indexed": true,
          "internalType": "uint256",
          "name": "_mintedAmount",
          "type": "uint256"
        },
        {
          "indexed": false,
          "internalType": "uint256",
          "name": "_ethBalance",
          "type": "uint256"
        },
        {
          "indexed": false,
          "internalType": "address",
          "name": "_lpTokenAddress",
          "type": "address"
        },
        {
          "indexed": false,
          "internalType": "uint256",
          "name": "_amount",
          "type": "uint256"
        },
        {
          "indexed": false,
          "internalType": "uint256",
          "name": "_lpTokenBalance",
          "type": "uint256"
        },
        {
          "indexed": false,
          "internalType": "uint256",
          "name": "_tokenReserve",
          "type": "uint256"
        }
      ],
      "name": "liquidity",
      "type": "event"
    },
    {
      "anonymous": false,
      "inputs": [
        {
          "indexed": true,
          "internalType": "address",
          "name": "_from",
          "type": "address"
        },
        {
          "indexed": true,
          "internalType": "uint256",
          "name": "_lpTokenSupply",
          "type": "uint256"
        },
        {
          "indexed": true,
          "internalType": "uint256",
          "name": "_mintedAmount",
          "type": "uint256"
        },
        {
          "indexed": false,
          "internalType": "uint256",
          "name": "_ethBalance",
          "type": "uint256"
        },
        {
          "indexed": false,
          "internalType": "address",
          "name": "_lpTokenAddress",
          "type": "address"
        },
        {
          "indexed": false,
          "internalType": "uint256",
          "name": "_amount",
          "type": "uint256"
        },
        {
          "indexed": false,
          "internalType": "uint256",
          "name": "_lpTokenBalance",
          "type": "uint256"
        },
        {
          "indexed": false,
          "internalType": "uint256",
          "name": "_tokenReserve",
          "type": "uint256"
        }
      ],
      "name": "liquidityRemove",
      "type": "event"
    },
    {
      "anonymous": false,
      "inputs": [
        {
          "indexed": true,
          "internalType": "uint256",
          "name": "_ethReserve",
          "type": "uint256"
        },
        {
          "indexed": true,
          "internalType": "uint256",
          "name": "_inputAmountFee",
          "type": "uint256"
        },
        {
          "indexed": false,
          "internalType": "uint256",
          "name": "_fullEthReserve",
          "type": "uint256"
        },
        {
          "indexed": false,
          "internalType": "uint256",
          "name": "_outputAmount",
          "type": "uint256"
        },
        {
          "indexed": false,
          "internalType": "uint256",
          "name": "_msgValue",
          "type": "uint256"
        }
      ],
      "name": "swapToToken",
      "type": "event"
    },
    {
      "anonymous": false,
      "inputs": [
        {
          "indexed": true,
          "internalType": "address",
          "name": "_useraddress",
          "type": "address"
        }
      ],
      "name": "userAddress",
      "type": "event"
    },
    {
      "inputs": [
        {
          "internalType": "uint256",
          "name": "",
          "type": "uint256"
        }
      ],
      "name": "PoolMapping",
      "outputs": [
        {
          "internalType": "contract Pool",
          "name": "",
          "type": "address"
        }
      ],
      "stateMutability": "view",
      "type": "function"
    },
    {
      "inputs": [
        {
          "internalType": "uint256",
          "name": "",
          "type": "uint256"
        }
      ],
      "name": "PoolMappingAddress",
      "outputs": [
        {
          "internalType": "address",
          "name": "",
          "type": "address"
        }
      ],
      "stateMutability": "view",
      "type": "function"
    },
    {
      "inputs": [
        {
          "internalType": "uint256",
          "name": "_pool",
          "type": "uint256"
        },
        {
          "internalType": "uint256",
          "name": "_amount",
          "type": "uint256"
        }
      ],
      "name": "_addLiquidity",
      "outputs": [],
      "stateMutability": "payable",
      "type": "function"
    },
    {
      "inputs": [
        {
          "internalType": "uint256",
          "name": "_pool",
          "type": "uint256"
        },
        {
          "internalType": "uint256",
          "name": "_amount",
          "type": "uint256"
        }
      ],
      "name": "_getAmount",
      "outputs": [
        {
          "internalType": "uint256",
          "name": "",
          "type": "uint256"
        },
        {
          "internalType": "uint256",
          "name": "",
          "type": "uint256"
        }
      ],
      "stateMutability": "nonpayable",
      "type": "function"
    },
    {
      "inputs": [
        {
          "internalType": "uint256",
          "name": "_pool",
          "type": "uint256"
        },
        {
          "internalType": "uint256",
          "name": "_amount",
          "type": "uint256"
        }
      ],
      "name": "_getEthReserve",
      "outputs": [
        {
          "internalType": "uint256",
          "name": "",
          "type": "uint256"
        }
      ],
      "stateMutability": "nonpayable",
      "type": "function"
    },
    {
      "inputs": [
        {
          "internalType": "uint256",
          "name": "_pool",
          "type": "uint256"
        },
        {
          "internalType": "uint256",
          "name": "_amount",
          "type": "uint256"
        }
      ],
      "name": "_getReserve",
      "outputs": [
        {
          "internalType": "uint256",
          "name": "",
          "type": "uint256"
        }
      ],
      "stateMutability": "nonpayable",
      "type": "function"
    },
    {
      "inputs": [
        {
          "internalType": "uint256",
          "name": "_pool",
          "type": "uint256"
        },
        {
          "internalType": "uint256",
          "name": "_amount",
          "type": "uint256"
        }
      ],
      "name": "_getSwapAmount",
      "outputs": [
        {
          "internalType": "uint256",
          "name": "",
          "type": "uint256"
        }
      ],
      "stateMutability": "nonpayable",
      "type": "function"
    },
    {
      "inputs": [
        {
          "internalType": "uint256",
          "name": "_pool",
          "type": "uint256"
        },
        {
          "internalType": "uint256",
          "name": "_amount",
          "type": "uint256"
        }
      ],
      "name": "_getSwapAmountEth",
      "outputs": [
        {
          "internalType": "uint256",
          "name": "",
          "type": "uint256"
        }
      ],
      "stateMutability": "nonpayable",
      "type": "function"
    },
    {
      "inputs": [
        {
          "internalType": "uint256",
          "name": "_pool",
          "type": "uint256"
        },
        {
          "internalType": "uint256",
          "name": "_amount",
          "type": "uint256"
        }
      ],
      "name": "_getfullEthReserve",
      "outputs": [
        {
          "internalType": "uint256",
          "name": "",
          "type": "uint256"
        }
      ],
      "stateMutability": "nonpayable",
      "type": "function"
    },
    {
      "inputs": [
        {
          "internalType": "uint256",
          "name": "_pool",
          "type": "uint256"
        },
        {
          "internalType": "uint256",
          "name": "_amount",
          "type": "uint256"
        }
      ],
      "name": "_getinputAmountFee",
      "outputs": [
        {
          "internalType": "uint256",
          "name": "",
          "type": "uint256"
        }
      ],
      "stateMutability": "nonpayable",
      "type": "function"
    },
    {
      "inputs": [
        {
          "internalType": "uint256",
          "name": "_pool",
          "type": "uint256"
        },
        {
          "internalType": "uint256",
          "name": "_amount",
          "type": "uint256"
        }
      ],
      "name": "_removeLiquidity",
      "outputs": [],
      "stateMutability": "payable",
      "type": "function"
    },
    {
      "inputs": [
        {
          "internalType": "uint256",
          "name": "_pool",
          "type": "uint256"
        },
        {
          "internalType": "uint256",
          "name": "_amount",
          "type": "uint256"
        },
        {
          "internalType": "uint256",
          "name": "_estimateamount",
          "type": "uint256"
        }
      ],
      "name": "_swapEthToToken",
      "outputs": [],
      "stateMutability": "payable",
      "type": "function"
    },
    {
      "inputs": [
        {
          "internalType": "uint256",
          "name": "_pool",
          "type": "uint256"
        },
        {
          "internalType": "uint256",
          "name": "_amount",
          "type": "uint256"
        },
        {
          "internalType": "uint256",
          "name": "_estimatedAmount",
          "type": "uint256"
        },
        {
          "internalType": "address",
          "name": "_account",
          "type": "address"
        }
      ],
      "name": "_swapTokenToEth",
      "outputs": [],
      "stateMutability": "payable",
      "type": "function"
    },
    {
      "inputs": [],
      "name": "counter",
      "outputs": [
        {
          "internalType": "uint256",
          "name": "",
          "type": "uint256"
        }
      ],
      "stateMutability": "view",
      "type": "function"
    },
    {
      "inputs": [
        {
          "internalType": "address",
          "name": "tokenA",
          "type": "address"
        }
      ],
      "name": "createPool",
      "outputs": [],
      "stateMutability": "payable",
      "type": "function"
    },
    {
      "inputs": [
        {
          "internalType": "uint256",
          "name": "_pool",
          "type": "uint256"
        }
      ],
      "name": "getPoolAddress",
      "outputs": [
        {
          "internalType": "address",
          "name": "",
          "type": "address"
        }
      ],
      "stateMutability": "view",
      "type": "function"
    },
    {
      "inputs": [],
      "name": "pool",
      "outputs": [
        {
          "internalType": "contract Pool",
          "name": "",
          "type": "address"
        }
      ],
      "stateMutability": "view",
      "type": "function"
    }
  ],
  "transactionHash": "0xe64bcc07d6da94d29b44d5e2f14a14e6c6863aa4f58edc59a0a368c364479f28",
  "args": [],
  "numDeployments": 1,
  "solcInputHash": "7dfb48606495e919545b982a45498137",
  "bytecode": "0x6080604052614157806100136000396000f3fe608060405260043610620001125760003560e01c80635405755a11620000a15780636d7fd8fe116200006c5780636d7fd8fe146200031c5780639049f9d214620003415780639e8af2af1462000358578063e9057303146200036f578063ecc861d0146200039457600080fd5b80635405755a14620002a357806355b7768c14620002c857806361bc221a14620002ed578063684d4cd0146200030557600080fd5b806316095f6c11620000e257806316095f6c14620001fb57806316f0115b146200022f5780631be7f70014620002515780632f812b8c146200028c57600080fd5b8062a5ae21146200011757806304c55b92146200016e5780630b6af77614620001a857806315f08f2c14620001c1575b600080fd5b3480156200012457600080fd5b50620001516200013636600462000c67565b6000908152600160205260409020546001600160a01b031690565b6040516001600160a01b0390911681526020015b60405180910390f35b3480156200017b57600080fd5b50620001516200018d36600462000c67565b6001602052600090815260409020546001600160a01b031681565b620001bf620001b936600462000c81565b620003b9565b005b348015620001ce57600080fd5b5062000151620001e036600462000c67565b6002602052600090815260409020546001600160a01b031681565b3480156200020857600080fd5b50620002206200021a36600462000c81565b620004f5565b60405190815260200162000165565b3480156200023c57600080fd5b5060005462000151906001600160a01b031681565b3480156200025e57600080fd5b50620002766200027036600462000c81565b620005c9565b6040805192835260208301919091520162000165565b620001bf6200029d36600462000ca4565b620006a5565b348015620002b057600080fd5b5062000220620002c236600462000c81565b6200075e565b348015620002d557600080fd5b5062000220620002e736600462000c81565b620007c2565b348015620002fa57600080fd5b506200022060035481565b620001bf6200031636600462000cea565b62000826565b3480156200032957600080fd5b50620002206200033b36600462000c81565b620008e3565b620001bf6200035236600462000d2e565b62000947565b620001bf6200036936600462000c81565b62000a44565b3480156200037c57600080fd5b50620002206200038e36600462000c81565b62000bb7565b348015620003a157600080fd5b5062000220620003b336600462000c81565b62000c08565b6000828152600160205260408082205482546001600160a01b0319166001600160a01b03909116908117835590516305fe138b60e01b8152600481018490523360248201528291829182918291829182916305fe138b9060440160e060405180830381600087803b1580156200042e57600080fd5b505af115801562000443573d6000803e3d6000fd5b505050506040513d601f19601f8201168201806040525081019062000469919062000d55565b96509650965096509650965096508486886001600160a01b03167fba8167b20fb82b32203505d2af31a84cccc310ee858a21f2b99a19b09956840c87878d8888604051620004e29594939291909485526001600160a01b0393909316602085015260408401919091526060830152608082015260a00190565b60405180910390a4505050505050505050565b6000828152600160205260408082205482546001600160a01b0319166001600160a01b039091169081178355905163582cf78160e01b81526004810184905282919063582cf781906024015b602060405180830381600087803b1580156200055c57600080fd5b505af115801562000571573d6000803e3d6000fd5b505050506040513d601f19601f8201168201806040525081019062000597919062000dc5565b90506000805160206200410283398151915281604051620005ba91815260200190565b60405180910390a19392505050565b6000828152600160205260408082205482546001600160a01b0319166001600160a01b0390911690811783559051631ae6a0d760e11b815260048101849052829182918291906335cd41ae906024016040805180830381600087803b1580156200063257600080fd5b505af115801562000647573d6000803e3d6000fd5b505050506040513d601f19601f820116820180604052508101906200066d919062000ddf565b9150915060008051602062004102833981519152816040516200069291815260200190565b60405180910390a1909590945092505050565b6000838152600160205260408082205482546001600160a01b0319166001600160a01b039091169081179092555163a68bb24960e01b8152600481018490526024810183905233604482015263a68bb2499034906064016000604051808303818588803b1580156200071657600080fd5b505af11580156200072b573d6000803e3d6000fd5b505050505060008051602062004102833981519152346040516200075191815260200190565b60405180910390a1505050565b60008281526001602090815260408083205483546001600160a01b0319166001600160a01b03909116908117845581516359bf5d3960e01b81529151849391926359bf5d3992600480830193919282900301818787803b1580156200055c57600080fd5b60008281526001602090815260408083205483546001600160a01b0319166001600160a01b039091169081178455815163022a446360e61b8152915184939192638a9118c092600480830193919282900301818787803b1580156200055c57600080fd5b6000848152600160205260408082205482546001600160a01b0319166001600160a01b039182169081179093559051635e16d9df60e01b815260048101869052602481018590529083166044820152635e16d9df9034906064016000604051808303818588803b1580156200089a57600080fd5b505af1158015620008af573d6000803e3d6000fd5b50505050506000805160206200410283398151915234604051620008d591815260200190565b60405180910390a150505050565b60008281526001602090815260408083205483546001600160a01b0319166001600160a01b0390911690811784558151638703694360e01b8152915184939192638703694392600480830193919282900301818787803b1580156200055c57600080fd5b80604051620009569062000c59565b6001600160a01b039091168152602001604051809103906000f08015801562000983573d6000803e3d6000fd5b50600080546001600160a01b039283166001600160a01b0319918216811783556003805484526001602052604080852080549094169092179092559054825491519093919091169133917ff86e3d2fc794443a042a24aab307e2450c5ea5ddde4894a5db19df1339e0e23b9190a4600080546040516001600160a01b03909116917f360500cc0bb9908acbdda3a2865dcefc4ae2dbe309f4fbedf074eb0a9a9a16ac91a260016003600082825462000a3c919062000e04565b909155505050565b3481101562000a8c5760405162461bcd60e51b815260206004820152601060248201526f1d1bc81b1a5d1d1b1948185b5bdd5b9d60821b604482015260640160405180910390fd5b6000828152600160205260408082205482546001600160a01b0319166001600160a01b03909116908117835590516364afce8760e11b81526004810184905233602482015282918291829182918291829163c95f9d0e90349060440160e0604051808303818588803b15801562000b0257600080fd5b505af115801562000b17573d6000803e3d6000fd5b50505050506040513d601f19601f8201168201806040525081019062000b3e919062000d55565b96509650965096509650965096508486886001600160a01b03167f8df84fafdab28db8aea5e9eb3a42bac9e9dddfddf14d579c198c13489729e1e187878d8888604051620004e29594939291909485526001600160a01b0393909316602085015260408401919091526060830152608082015260a00190565b6000828152600160205260408082205482546001600160a01b0319166001600160a01b0390911690811783559051630a72275360e01b815260048101849052829190630a7227539060240162000541565b6000828152600160205260408082205482546001600160a01b0319166001600160a01b0390911690811783559051630de703e160e41b81526004810184905282919063de703e109060240162000541565b6132d68062000e2c83390190565b60006020828403121562000c7a57600080fd5b5035919050565b6000806040838503121562000c9557600080fd5b50508035926020909101359150565b60008060006060848603121562000cba57600080fd5b505081359360208301359350604090920135919050565b6001600160a01b038116811462000ce757600080fd5b50565b6000806000806080858703121562000d0157600080fd5b843593506020850135925060408501359150606085013562000d238162000cd1565b939692955090935050565b60006020828403121562000d4157600080fd5b813562000d4e8162000cd1565b9392505050565b600080600080600080600060e0888a03121562000d7157600080fd5b875162000d7e8162000cd1565b80975050602088015195506040880151945060608801519350608088015162000da78162000cd1565b8093505060a0880151915060c0880151905092959891949750929550565b60006020828403121562000dd857600080fd5b5051919050565b6000806040838503121562000df357600080fd5b505080516020909101519092909150565b6000821982111562000e2657634e487b7160e01b600052601160045260246000fd5b50019056fe60806040523480156200001157600080fd5b50604051620032d6380380620032d68339810160408190526200003491620001cc565b604080518082018252600281526104c760f41b60208083019182528351808501909452600784526626282a37b5b2b760c91b9084015281519192916200007d9160039162000118565b5080516200009390600490602084019062000118565b5050506001600160a01b038116620000aa57600080fd5b600680546001600160a01b0319166001600160a01b038316179055604051620000d390620001a7565b604051809103906000f080158015620000f0573d6000803e3d6000fd5b50600580546001600160a01b0319166001600160a01b0392909216919091179055506200023b565b8280546200012690620001fe565b90600052602060002090601f0160209004810192826200014a576000855562000195565b82601f106200016557805160ff191683800117855562000195565b8280016001018555821562000195579182015b828111156200019557825182559160200191906001019062000178565b50620001a3929150620001b5565b5090565b610d62806200257483390190565b5b80821115620001a35760008155600101620001b6565b600060208284031215620001df57600080fd5b81516001600160a01b0381168114620001f757600080fd5b9392505050565b600181811c908216806200021357607f821691505b602082108114156200023557634e487b7160e01b600052602260045260246000fd5b50919050565b612329806200024b6000396000f3fe6080604052600436106101ae5760003560e01c80635fcbd285116100eb578063a457c2d71161008f578063cca3e83211610061578063cca3e832146104af578063dd62ed3e146104cf578063de703e10146104ef578063f835cd3c1461050f57005b8063a457c2d714610449578063a68bb24914610469578063a9059cbb1461047c578063c95f9d0e1461049c57005b80638a9118c0116100c85780638a9118c0146103fb57806394d0851d1461040157806395d89b41146104145780639dc29fac1461042957005b80635fcbd2851461038557806370a08231146103bd57806387036943146103f357005b806335cd41ae1161015257806340c10f191161012f57806340c10f1914610337578063582cf7811461035757806359bf5d391461036a5780635e16d9df1461037257005b806335cd41ae146102da57806339509351146103025780633eaaf86b1461032257005b80630a7227531161018b5780630a7227531461026857806318160ddd1461028957806323b872dd1461029e578063313ce567146102be57005b806305fe138b146101b757806306fdde0314610216578063095ea7b31461023857005b366101b557005b005b6101ca6101c5366004612022565b61052f565b604080516001600160a01b03988916815260208101979097528601949094526060850192909252909316608083015260a082019290925260c081019190915260e0015b60405180910390f35b34801561022257600080fd5b5061022b610ad5565b60405161020d919061204e565b34801561024457600080fd5b506102586102533660046120a3565b610b67565b604051901515815260200161020d565b61027b6102763660046120cd565b610b7f565b60405190815260200161020d565b34801561029557600080fd5b5060025461027b565b3480156102aa57600080fd5b506102586102b93660046120e6565b610b94565b3480156102ca57600080fd5b506040516012815260200161020d565b6102ed6102e83660046120cd565b610bb8565b6040805192835260208301919091520161020d565b34801561030e57600080fd5b5061025861031d3660046120a3565b610c79565b34801561032e57600080fd5b5061027b610c9b565b34801561034357600080fd5b506101b56103523660046120a3565b610cab565b61027b6103653660046120cd565b610cef565b61027b610dae565b6101b5610380366004612122565b610e34565b34801561039157600080fd5b506005546103a5906001600160a01b031681565b6040516001600160a01b03909116815260200161020d565b3480156103c957600080fd5b5061027b6103d8366004612157565b6001600160a01b031660009081526020819052604090205490565b61027b611118565b4761027b565b34801561040d57600080fd5b50306103a5565b34801561042057600080fd5b5061022b611126565b34801561043557600080fd5b506101b56104443660046120a3565b611135565b34801561045557600080fd5b506102586104643660046120a3565b611175565b6101b5610477366004612122565b6111f0565b34801561048857600080fd5b506102586104973660046120a3565b6113ec565b6101ca6104aa366004612022565b6113fa565b3480156104bb57600080fd5b5061027b6104ca366004612157565b611979565b3480156104db57600080fd5b5061027b6104ea366004612172565b611997565b3480156104fb57600080fd5b5061027b61050a3660046120cd565b6119c2565b34801561051b57600080fd5b506006546103a5906001600160a01b031681565b6000808080808080610545565b60405180910390fd5b600554604051632770a7eb60e21b81526001600160a01b038a81166004830152602482018c905290911690639dc29fac90604401600060405180830381600087803b15801561059357600080fd5b505af11580156105a7573d6000803e3d6000fd5b505060065460055460408051633eaaf86b60e01b815290516001600160a01b03938416955063095ea7b39450309390921691633eaaf86b91600480820192602092909190829003018186803b1580156105ff57600080fd5b505afa158015610613573d6000803e3d6000fd5b505050506040513d601f19601f82011682018060405250810190610637919061219c565b6006546040516370a0823160e01b81523060048201528e916001600160a01b0316906370a082319060240160206040518083038186803b15801561067a57600080fd5b505afa15801561068e573d6000803e3d6000fd5b505050506040513d601f19601f820116820180604052508101906106b2919061219c565b6106bc91906121cb565b6106c691906121ea565b6040516001600160e01b031960e085901b1681526001600160a01b0390921660048301526024820152604401602060405180830381600087803b15801561070c57600080fd5b505af1158015610720573d6000803e3d6000fd5b505050506040513d601f19601f82011682018060405250810190610744919061220c565b5060065460055460408051633eaaf86b60e01b815290516001600160a01b03938416936323b872dd9330938e939190921691633eaaf86b916004808301926020929190829003018186803b15801561079b57600080fd5b505afa1580156107af573d6000803e3d6000fd5b505050506040513d601f19601f820116820180604052508101906107d3919061219c565b6006546040516370a0823160e01b81523060048201528f916001600160a01b0316906370a082319060240160206040518083038186803b15801561081657600080fd5b505afa15801561082a573d6000803e3d6000fd5b505050506040513d601f19601f8201168201806040525081019061084e919061219c565b61085891906121cb565b61086291906121ea565b6040518463ffffffff1660e01b81526004016108809392919061222e565b602060405180830381600087803b15801561089a57600080fd5b505af11580156108ae573d6000803e3d6000fd5b505050506040513d601f19601f820116820180604052508101906108d2919061220c565b5060055460408051633eaaf86b60e01b815290516001600160a01b03808c16931691633eaaf86b916004808301926020929190829003018186803b15801561091957600080fd5b505afa15801561092d573d6000803e3d6000fd5b505050506040513d601f19601f82011682018060405250810190610951919061219c565b61095b8b476121cb565b61096591906121ea565b604051600081818185875af1925050503d80600081146109a1576040519150601f19603f3d011682016040523d82523d6000602084013e6109a6565b606091505b50505087600560009054906101000a90046001600160a01b03166001600160a01b0316633eaaf86b6040518163ffffffff1660e01b815260040160206040518083038186803b1580156109f857600080fd5b505afa158015610a0c573d6000803e3d6000fd5b505050506040513d601f19601f82011682018060405250810190610a30919061219c565b600554604051636651f41960e11b81526001600160a01b038c811660048301528d924792911690819063cca3e8329060240160206040518083038186803b158015610a7a57600080fd5b505afa158015610a8e573d6000803e3d6000fd5b505050506040513d601f19601f82011682018060405250810190610ab2919061219c565b610aba610dae565b96509650965096509650965096505b92959891949750929550565b606060038054610ae490612252565b80601f0160208091040260200160405190810160405280929190818152602001828054610b1090612252565b8015610b5d5780601f10610b3257610100808354040283529160200191610b5d565b820191906000526020600020905b815481529060010190602001808311610b4057829003601f168201915b5050505050905090565b600033610b75818585611a74565b5060019392505050565b600080610b8d8360636121cb565b9392505050565b600033610ba2858285611b99565b610bad858585611c13565b506001949350505050565b6000806000610bc5610dae565b90506000610bd3854761228d565b90506000610be28660636121cb565b90506000610bf18360646121cb565b9050600083118015610c035750600084115b610c1f5760405162461bcd60e51b815260040161053c906122a4565b6000610c2b82896122db565b610c3586856121cb565b610c3f91906121ea565b905080887fcfaa9fe844caafbeed42965f22ddbb67532fa515e7284d5c317af5c8ab8d3e9e60405160405180910390a39795505050505050565b600033610b75818585610c8c8383611997565b610c9691906122db565b611a74565b6000610ca660025490565b905090565b60405181906001600160a01b038416907fb7656808f0e04b4af7a20f7ef1caa7669f0d781f1ca4cba31a3ba467880766c990600090a3610ceb8282611de1565b5050565b600080610cfa610dae565b90506000610d08844761228d565b90506000610d178560636121cb565b90506000610d268360646121cb565b9050600083118015610d385750600084115b610d545760405162461bcd60e51b815260040161053c906122a4565b6000610d6082886122db565b610d6a86856121cb565b610d7491906121ea565b905080877fcfaa9fe844caafbeed42965f22ddbb67532fa515e7284d5c317af5c8ab8d3e9e60405160405180910390a39695505050505050565b6006546040516370a0823160e01b815230600482015260009182916001600160a01b03909116906370a082319060240160206040518083038186803b158015610df657600080fd5b505afa158015610e0a573d6000803e3d6000fd5b505050506040513d601f19601f82011682018060405250810190610e2e919061219c565b92915050565b6000610e3e610dae565b9050476000610e4e3460636121cb565b90506000610e5d8460646121cb565b9050600084118015610e6f5750600083115b610e8b5760405162461bcd60e51b815260040161053c906122a4565b6000610e9782346122db565b610ea185856121cb565b610eab91906121ea565b905086811015610efd5760405162461bcd60e51b815260206004820152601d60248201527f746f206c6974746c6520616d6f756e7420666f72207377617070696e67000000604482015260640161053c565b60065460405163095ea7b360e01b81526001600160a01b0388811660048301523460248301529091169063095ea7b390604401602060405180830381600087803b158015610f4a57600080fd5b505af1158015610f5e573d6000803e3d6000fd5b505050506040513d601f19601f82011682018060405250810190610f82919061220c565b506006546040516323b872dd60e01b81526001600160a01b03909116906323b872dd90610fb79089903090349060040161222e565b602060405180830381600087803b158015610fd157600080fd5b505af1158015610fe5573d6000803e3d6000fd5b505050506040513d601f19601f82011682018060405250810190611009919061220c565b50600080876001600160a01b03168960405160006040518083038185875af1925050503d8060008114611058576040519150601f19603f3d011682016040523d82523d6000602084013e61105d565b606091505b50604051680e8ded6cadc5ecae8d60bb1b8152919350915060090160405190819003812060065485835290916001600160a01b038b81169216907fce9f99712c8bc2e049d7626ab6410b1a43910ca5354c5de77a14024599156ba89060200160405180910390a4604080516001600160a01b038a168152602081018590528691869189917f442eeca641ffac06d7005f2ef6bc3f115b4e51a3324d56430545e2561f174f75910160405180910390a450505050505050505050565b600080610e2e4760646121cb565b606060048054610ae490612252565b60405181906001600160a01b038416907f8b1897d4e7a3b42570088bb1182eb6518c96a754d44bc9edd4669568bfa9832690600090a3610ceb8282611ec0565b600033816111838286611997565b9050838110156111e35760405162461bcd60e51b815260206004820152602560248201527f45524332303a2064656372656173656420616c6c6f77616e63652062656c6f77604482015264207a65726f60d81b606482015260840161053c565b610bad8286868403611a74565b60006111fa610dae565b90506000611208344761228d565b905060006112173460636121cb565b905060006112268360646121cb565b90506000831180156112385750600084115b6112545760405162461bcd60e51b815260040161053c906122a4565b600061126082346122db565b61126a86856121cb565b61127491906121ea565b60065460405163095ea7b360e01b8152306004820152602481018a90529192506001600160a01b03169063095ea7b390604401602060405180830381600087803b1580156112c157600080fd5b505af11580156112d5573d6000803e3d6000fd5b505050506040513d601f19601f820116820180604052508101906112f9919061220c565b506006546040516323b872dd60e01b81526001600160a01b03909116906323b872dd9061132e9030908a908c9060040161222e565b602060405180830381600087803b15801561134857600080fd5b505af115801561135c573d6000803e3d6000fd5b505050506040513d601f19601f82011682018060405250810190611380919061220c565b506040516832ba3417ba37b5b2b760b91b81526009016040519081900381206006548a835290916001600160a01b038981169216907fce9f99712c8bc2e049d7626ab6410b1a43910ca5354c5de77a14024599156ba89060200160405180910390a45050505050505050565b600033610b75818585611c13565b60008080808080808061140d344761228d565b9050611417610dae565b611627576005546040516340c10f1960e01b81526001600160a01b038b81166004830152602482018d9052909116906340c10f1990604401600060405180830381600087803b15801561146957600080fd5b505af115801561147d573d6000803e3d6000fd5b50506006546040516323b872dd60e01b81526001600160a01b0390911692506323b872dd91506114b5908c9030908f9060040161222e565b602060405180830381600087803b1580156114cf57600080fd5b505af11580156114e3573d6000803e3d6000fd5b505050506040513d601f19601f82011682018060405250810190611507919061220c565b5060055460408051633eaaf86b60e01b815290518b926001600160a01b031691633eaaf86b916004808301926020929190829003018186803b15801561154c57600080fd5b505afa158015611560573d6000803e3d6000fd5b505050506040513d601f19601f82011682018060405250810190611584919061219c565b61158c610dae565b600554604051636651f41960e11b81526001600160a01b038e8116600483015247921690819063cca3e8329060240160206040518083038186803b1580156115d357600080fd5b505afa1580156115e7573d6000803e3d6000fd5b505050506040513d601f19601f8201168201806040525081019061160b919061219c565b611613610dae565b975097509750975097509750975050610ac9565b80611630610dae565b61163a90346121cb565b61164491906121ea565b8a10156116b95760405162461bcd60e51b815260206004820152603c60248201527f6e6f74206163636570746564206c6971756964697479206c657373207468656e60448201527f20746865206d696e696d756d20616d6f756e7420616363657074656400000000606482015260840161053c565b6006546001600160a01b03166323b872dd8a30846116d5610dae565b6116df90346121cb565b6116e991906121ea565b6040518463ffffffff1660e01b81526004016117079392919061222e565b602060405180830381600087803b15801561172157600080fd5b505af1158015611735573d6000803e3d6000fd5b505050506040513d601f19601f82011682018060405250810190611759919061220c565b5060055460408051633eaaf86b60e01b815290516001600160a01b03909216916340c10f19918c91859134918691633eaaf86b916004808301926020929190829003018186803b1580156117ac57600080fd5b505afa1580156117c0573d6000803e3d6000fd5b505050506040513d601f19601f820116820180604052508101906117e4919061219c565b6117ee91906121cb565b6117f891906121ea565b6040516001600160e01b031960e085901b1681526001600160a01b0390921660048301526024820152604401600060405180830381600087803b15801561183e57600080fd5b505af1158015611852573d6000803e3d6000fd5b5050505088600560009054906101000a90046001600160a01b03166001600160a01b0316633eaaf86b6040518163ffffffff1660e01b815260040160206040518083038186803b1580156118a557600080fd5b505afa1580156118b9573d6000803e3d6000fd5b505050506040513d601f19601f820116820180604052508101906118dd919061219c565b8234600560009054906101000a90046001600160a01b03166001600160a01b0316633eaaf86b6040518163ffffffff1660e01b815260040160206040518083038186803b15801561192d57600080fd5b505afa158015611941573d6000803e3d6000fd5b505050506040513d601f19601f82011682018060405250810190611965919061219c565b61196f91906121cb565b61158c91906121ea565b6001600160a01b038116600090815260208190526040812054610e2e565b6001600160a01b03918216600090815260016020908152604080832093909416825291909152205490565b6000806119cd610dae565b90504760006119dd8560636121cb565b905060006119ec8460646121cb565b90506000841180156119fe5750600083115b611a1a5760405162461bcd60e51b815260040161053c906122a4565b6000611a2682886122db565b611a3085856121cb565b611a3a91906121ea565b905081817fcfaa9fe844caafbeed42965f22ddbb67532fa515e7284d5c317af5c8ab8d3e9e60405160405180910390a39695505050505050565b6001600160a01b038316611ad65760405162461bcd60e51b8152602060048201526024808201527f45524332303a20617070726f76652066726f6d20746865207a65726f206164646044820152637265737360e01b606482015260840161053c565b6001600160a01b038216611b375760405162461bcd60e51b815260206004820152602260248201527f45524332303a20617070726f766520746f20746865207a65726f206164647265604482015261737360f01b606482015260840161053c565b6001600160a01b0383811660008181526001602090815260408083209487168084529482529182902085905590518481527f8c5be1e5ebec7d5bd14f71427d1e84f3dd0314c0f7b2291e5b200ac8c7c3b92591015b60405180910390a3505050565b6000611ba58484611997565b90506000198114611c0d5781811015611c005760405162461bcd60e51b815260206004820152601d60248201527f45524332303a20696e73756666696369656e7420616c6c6f77616e6365000000604482015260640161053c565b611c0d8484848403611a74565b50505050565b6001600160a01b038316611c775760405162461bcd60e51b815260206004820152602560248201527f45524332303a207472616e736665722066726f6d20746865207a65726f206164604482015264647265737360d81b606482015260840161053c565b6001600160a01b038216611cd95760405162461bcd60e51b815260206004820152602360248201527f45524332303a207472616e7366657220746f20746865207a65726f206164647260448201526265737360e81b606482015260840161053c565b6001600160a01b03831660009081526020819052604090205481811015611d515760405162461bcd60e51b815260206004820152602660248201527f45524332303a207472616e7366657220616d6f756e7420657863656564732062604482015265616c616e636560d01b606482015260840161053c565b6001600160a01b03808516600090815260208190526040808220858503905591851681529081208054849290611d889084906122db565b92505081905550826001600160a01b0316846001600160a01b03167fddf252ad1be2c89b69c2b068fc378daa952ba7f163c4a11628f55a4df523b3ef84604051611dd491815260200190565b60405180910390a3611c0d565b6001600160a01b038216611e375760405162461bcd60e51b815260206004820152601f60248201527f45524332303a206d696e7420746f20746865207a65726f206164647265737300604482015260640161053c565b8060026000828254611e4991906122db565b90915550506001600160a01b03821660009081526020819052604081208054839290611e769084906122db565b90915550506040518181526001600160a01b038316906000907fddf252ad1be2c89b69c2b068fc378daa952ba7f163c4a11628f55a4df523b3ef9060200160405180910390a35050565b6001600160a01b038216611f205760405162461bcd60e51b815260206004820152602160248201527f45524332303a206275726e2066726f6d20746865207a65726f206164647265736044820152607360f81b606482015260840161053c565b6001600160a01b03821660009081526020819052604090205481811015611f945760405162461bcd60e51b815260206004820152602260248201527f45524332303a206275726e20616d6f756e7420657863656564732062616c616e604482015261636560f01b606482015260840161053c565b6001600160a01b0383166000908152602081905260408120838303905560028054849290611fc390849061228d565b90915550506040518281526000906001600160a01b038516907fddf252ad1be2c89b69c2b068fc378daa952ba7f163c4a11628f55a4df523b3ef90602001611b8c565b80356001600160a01b038116811461201d57600080fd5b919050565b6000806040838503121561203557600080fd5b8235915061204560208401612006565b90509250929050565b600060208083528351808285015260005b8181101561207b5785810183015185820160400152820161205f565b8181111561208d576000604083870101525b50601f01601f1916929092016040019392505050565b600080604083850312156120b657600080fd5b6120bf83612006565b946020939093013593505050565b6000602082840312156120df57600080fd5b5035919050565b6000806000606084860312156120fb57600080fd5b61210484612006565b925061211260208501612006565b9150604084013590509250925092565b60008060006060848603121561213757600080fd5b833592506020840135915061214e60408501612006565b90509250925092565b60006020828403121561216957600080fd5b610b8d82612006565b6000806040838503121561218557600080fd5b61218e83612006565b915061204560208401612006565b6000602082840312156121ae57600080fd5b5051919050565b634e487b7160e01b600052601160045260246000fd5b60008160001904831182151516156121e5576121e56121b5565b500290565b60008261220757634e487b7160e01b600052601260045260246000fd5b500490565b60006020828403121561221e57600080fd5b81518015158114610b8d57600080fd5b6001600160a01b039384168152919092166020820152604081019190915260600190565b600181811c9082168061226657607f821691505b6020821081141561228757634e487b7160e01b600052602260045260246000fd5b50919050565b60008282101561229f5761229f6121b5565b500390565b60208082526017908201527f696e76616c696465207265736572766520616d6f756e74000000000000000000604082015260600190565b600082198211156122ee576122ee6121b5565b50019056fea2646970667358221220466593999632941ff896584e9d5febccfeef755c25ca23854ebb95b99598930064736f6c6343000808003360806040523480156200001157600080fd5b50604080518082018252600281526104c760f41b60208083019182528351808501909452600784526626282a37b5b2b760c91b9084015281519192916200005b916003916200007a565b508051620000719060049060208401906200007a565b5050506200015d565b828054620000889062000120565b90600052602060002090601f016020900481019282620000ac5760008555620000f7565b82601f10620000c757805160ff1916838001178555620000f7565b82800160010185558215620000f7579182015b82811115620000f7578251825591602001919060010190620000da565b506200010592915062000109565b5090565b5b808211156200010557600081556001016200010a565b600181811c908216806200013557607f821691505b602082108114156200015757634e487b7160e01b600052602260045260246000fd5b50919050565b610bf5806200016d6000396000f3fe608060405234801561001057600080fd5b50600436106101005760003560e01c806370a0823111610097578063a457c2d711610066578063a457c2d7146101fc578063a9059cbb1461020f578063cca3e832146101aa578063dd62ed3e1461022257600080fd5b806370a08231146101aa57806394d0851d146101d357806395d89b41146101e15780639dc29fac146101e957600080fd5b8063313ce567116100d3578063313ce5671461016b578063395093511461017a5780633eaaf86b1461018d57806340c10f191461019557600080fd5b806306fdde0314610105578063095ea7b31461012357806318160ddd1461014657806323b872dd14610158575b600080fd5b61010d610235565b60405161011a9190610a13565b60405180910390f35b610136610131366004610a84565b6102c7565b604051901515815260200161011a565b6002545b60405190815260200161011a565b610136610166366004610aae565b6102df565b6040516012815260200161011a565b610136610188366004610a84565b610303565b61014a610325565b6101a86101a3366004610a84565b610335565b005b61014a6101b8366004610aea565b6001600160a01b031660009081526020819052604090205490565b60405130815260200161011a565b61010d610379565b6101a86101f7366004610a84565b610388565b61013661020a366004610a84565b6103c8565b61013661021d366004610a84565b610448565b61014a610230366004610b0c565b610456565b60606003805461024490610b3f565b80601f016020809104026020016040519081016040528092919081815260200182805461027090610b3f565b80156102bd5780601f10610292576101008083540402835291602001916102bd565b820191906000526020600020905b8154815290600101906020018083116102a057829003601f168201915b5050505050905090565b6000336102d5818585610481565b5060019392505050565b6000336102ed8582856105a6565b6102f8858585610620565b506001949350505050565b6000336102d58185856103168383610456565b6103209190610b90565b610481565b600061033060025490565b905090565b60405181906001600160a01b038416907fb7656808f0e04b4af7a20f7ef1caa7669f0d781f1ca4cba31a3ba467880766c990600090a361037582826107ee565b5050565b60606004805461024490610b3f565b60405181906001600160a01b038416907f8b1897d4e7a3b42570088bb1182eb6518c96a754d44bc9edd4669568bfa9832690600090a361037582826108cd565b600033816103d68286610456565b90508381101561043b5760405162461bcd60e51b815260206004820152602560248201527f45524332303a2064656372656173656420616c6c6f77616e63652062656c6f77604482015264207a65726f60d81b60648201526084015b60405180910390fd5b6102f88286868403610481565b6000336102d5818585610620565b6001600160a01b03918216600090815260016020908152604080832093909416825291909152205490565b6001600160a01b0383166104e35760405162461bcd60e51b8152602060048201526024808201527f45524332303a20617070726f76652066726f6d20746865207a65726f206164646044820152637265737360e01b6064820152608401610432565b6001600160a01b0382166105445760405162461bcd60e51b815260206004820152602260248201527f45524332303a20617070726f766520746f20746865207a65726f206164647265604482015261737360f01b6064820152608401610432565b6001600160a01b0383811660008181526001602090815260408083209487168084529482529182902085905590518481527f8c5be1e5ebec7d5bd14f71427d1e84f3dd0314c0f7b2291e5b200ac8c7c3b92591015b60405180910390a3505050565b60006105b28484610456565b9050600019811461061a578181101561060d5760405162461bcd60e51b815260206004820152601d60248201527f45524332303a20696e73756666696369656e7420616c6c6f77616e63650000006044820152606401610432565b61061a8484848403610481565b50505050565b6001600160a01b0383166106845760405162461bcd60e51b815260206004820152602560248201527f45524332303a207472616e736665722066726f6d20746865207a65726f206164604482015264647265737360d81b6064820152608401610432565b6001600160a01b0382166106e65760405162461bcd60e51b815260206004820152602360248201527f45524332303a207472616e7366657220746f20746865207a65726f206164647260448201526265737360e81b6064820152608401610432565b6001600160a01b0383166000908152602081905260409020548181101561075e5760405162461bcd60e51b815260206004820152602660248201527f45524332303a207472616e7366657220616d6f756e7420657863656564732062604482015265616c616e636560d01b6064820152608401610432565b6001600160a01b03808516600090815260208190526040808220858503905591851681529081208054849290610795908490610b90565b92505081905550826001600160a01b0316846001600160a01b03167fddf252ad1be2c89b69c2b068fc378daa952ba7f163c4a11628f55a4df523b3ef846040516107e191815260200190565b60405180910390a361061a565b6001600160a01b0382166108445760405162461bcd60e51b815260206004820152601f60248201527f45524332303a206d696e7420746f20746865207a65726f2061646472657373006044820152606401610432565b80600260008282546108569190610b90565b90915550506001600160a01b03821660009081526020819052604081208054839290610883908490610b90565b90915550506040518181526001600160a01b038316906000907fddf252ad1be2c89b69c2b068fc378daa952ba7f163c4a11628f55a4df523b3ef9060200160405180910390a35050565b6001600160a01b03821661092d5760405162461bcd60e51b815260206004820152602160248201527f45524332303a206275726e2066726f6d20746865207a65726f206164647265736044820152607360f81b6064820152608401610432565b6001600160a01b038216600090815260208190526040902054818110156109a15760405162461bcd60e51b815260206004820152602260248201527f45524332303a206275726e20616d6f756e7420657863656564732062616c616e604482015261636560f01b6064820152608401610432565b6001600160a01b03831660009081526020819052604081208383039055600280548492906109d0908490610ba8565b90915550506040518281526000906001600160a01b038516907fddf252ad1be2c89b69c2b068fc378daa952ba7f163c4a11628f55a4df523b3ef90602001610599565b600060208083528351808285015260005b81811015610a4057858101830151858201604001528201610a24565b81811115610a52576000604083870101525b50601f01601f1916929092016040019392505050565b80356001600160a01b0381168114610a7f57600080fd5b919050565b60008060408385031215610a9757600080fd5b610aa083610a68565b946020939093013593505050565b600080600060608486031215610ac357600080fd5b610acc84610a68565b9250610ada60208501610a68565b9150604084013590509250925092565b600060208284031215610afc57600080fd5b610b0582610a68565b9392505050565b60008060408385031215610b1f57600080fd5b610b2883610a68565b9150610b3660208401610a68565b90509250929050565b600181811c90821680610b5357607f821691505b60208210811415610b7457634e487b7160e01b600052602260045260246000fd5b50919050565b634e487b7160e01b600052601160045260246000fd5b60008219821115610ba357610ba3610b7a565b500190565b600082821015610bba57610bba610b7a565b50039056fea2646970667358221220c1cad5f121f7371680e535ac51af499ee9735c4dcda66ea809a69819c1245be564736f6c634300080800333c997e25e3fcbbf139bd19b21a519faded9566e7faa33e5eda2d70d3edb95250a26469706673582212200baeddb4b2cbb3f497c12a7486c79faac247f8863a77eafb77f157ac5a429c4664736f6c63430008080033",
  "devdoc": {
    "kind": "dev",
    "methods": {},
    "version": 1
  },
  "userdoc": {
    "kind": "user",
    "methods": {},
    "version": 1
  },
  "storageLayout": {
    "storage": [
      {
        "astId": 717,
        "contract": "contracts/Dex.sol:Dex",
        "label": "pool",
        "offset": 0,
        "slot": "0",
        "type": "t_contract(Pool)2261"
      },
      {
        "astId": 786,
        "contract": "contracts/Dex.sol:Dex",
        "label": "PoolMapping",
        "offset": 0,
        "slot": "1",
        "type": "t_mapping(t_uint256,t_contract(Pool)2261)"
      },
      {
        "astId": 790,
        "contract": "contracts/Dex.sol:Dex",
        "label": "PoolMappingAddress",
        "offset": 0,
        "slot": "2",
        "type": "t_mapping(t_uint256,t_address)"
      },
      {
        "astId": 792,
        "contract": "contracts/Dex.sol:Dex",
        "label": "counter",
        "offset": 0,
        "slot": "3",
        "type": "t_uint256"
      }
    ],
    "types": {
      "t_address": {
        "encoding": "inplace",
        "label": "address",
        "numberOfBytes": "20"
      },
      "t_contract(Pool)2261": {
        "encoding": "inplace",
        "label": "contract Pool",
        "numberOfBytes": "20"
      },
      "t_mapping(t_uint256,t_address)": {
        "encoding": "mapping",
        "key": "t_uint256",
        "label": "mapping(uint256 => address)",
        "numberOfBytes": "32",
        "value": "t_address"
      },
      "t_mapping(t_uint256,t_contract(Pool)2261)": {
        "encoding": "mapping",
        "key": "t_uint256",
        "label": "mapping(uint256 => contract Pool)",
        "numberOfBytes": "32",
        "value": "t_contract(Pool)2261"
      },
      "t_uint256": {
        "encoding": "inplace",
        "label": "uint256",
        "numberOfBytes": "32"
      }
    }
  }
}