{
  "address": "0x9fE46736679d2D9a65F0992F2272dE9f3c7fa6e0",
  "abi": [
    {
      "inputs": [],
      "stateMutability": "payable",
      "type": "constructor"
    },
    {
      "anonymous": false,
      "inputs": [
        {
          "indexed": true,
          "internalType": "address",
          "name": "_createBy",
          "type": "address"
        },
        {
          "indexed": true,
          "internalType": "address",
          "name": "_token",
          "type": "address"
        },
        {
          "indexed": true,
          "internalType": "uint256",
          "name": "_id",
          "type": "uint256"
        }
      ],
      "name": "createPoolEvent",
      "type": "event"
    },
    {
      "anonymous": false,
      "inputs": [
        {
          "indexed": true,
          "internalType": "address",
          "name": "_from",
          "type": "address"
        },
        {
          "indexed": true,
          "internalType": "uint256",
          "name": "_lpTokenSupply",
          "type": "uint256"
        },
        {
          "indexed": true,
          "internalType": "uint256",
          "name": "_mintedAmount",
          "type": "uint256"
        },
        {
          "indexed": false,
          "internalType": "uint256",
          "name": "_ethBalance",
          "type": "uint256"
        },
        {
          "indexed": false,
          "internalType": "address",
          "name": "_lpTokenAddress",
          "type": "address"
        },
        {
          "indexed": false,
          "internalType": "uint256",
          "name": "_amount",
          "type": "uint256"
        },
        {
          "indexed": false,
          "internalType": "uint256",
          "name": "_lpTokenBalance",
          "type": "uint256"
        },
        {
          "indexed": false,
          "internalType": "uint256",
          "name": "_tokenReserve",
          "type": "uint256"
        }
      ],
      "name": "liquidity",
      "type": "event"
    },
    {
      "anonymous": false,
      "inputs": [
        {
          "indexed": true,
          "internalType": "address",
          "name": "_from",
          "type": "address"
        },
        {
          "indexed": true,
          "internalType": "uint256",
          "name": "_lpTokenSupply",
          "type": "uint256"
        },
        {
          "indexed": true,
          "internalType": "uint256",
          "name": "_mintedAmount",
          "type": "uint256"
        },
        {
          "indexed": false,
          "internalType": "uint256",
          "name": "_ethBalance",
          "type": "uint256"
        },
        {
          "indexed": false,
          "internalType": "address",
          "name": "_lpTokenAddress",
          "type": "address"
        },
        {
          "indexed": false,
          "internalType": "uint256",
          "name": "_amount",
          "type": "uint256"
        },
        {
          "indexed": false,
          "internalType": "uint256",
          "name": "_lpTokenBalance",
          "type": "uint256"
        },
        {
          "indexed": false,
          "internalType": "uint256",
          "name": "_tokenReserve",
          "type": "uint256"
        }
      ],
      "name": "liquidityRemove",
      "type": "event"
    },
    {
      "anonymous": false,
      "inputs": [
        {
          "indexed": true,
          "internalType": "uint256",
          "name": "_first",
          "type": "uint256"
        },
        {
          "indexed": true,
          "internalType": "uint256",
          "name": "_second",
          "type": "uint256"
        }
      ],
      "name": "test",
      "type": "event"
    },
    {
      "anonymous": false,
      "inputs": [
        {
          "indexed": true,
          "internalType": "address",
          "name": "_useraddress",
          "type": "address"
        }
      ],
      "name": "userAddress",
      "type": "event"
    },
    {
      "inputs": [
        {
          "internalType": "uint256",
          "name": "",
          "type": "uint256"
        }
      ],
      "name": "PoolMapping",
      "outputs": [
        {
          "internalType": "contract Pool",
          "name": "",
          "type": "address"
        }
      ],
      "stateMutability": "view",
      "type": "function"
    },
    {
      "inputs": [
        {
          "internalType": "uint256",
          "name": "",
          "type": "uint256"
        }
      ],
      "name": "PoolMappingAddress",
      "outputs": [
        {
          "internalType": "address",
          "name": "",
          "type": "address"
        }
      ],
      "stateMutability": "view",
      "type": "function"
    },
    {
      "inputs": [
        {
          "internalType": "uint256",
          "name": "_pool",
          "type": "uint256"
        },
        {
          "internalType": "uint256",
          "name": "_amount",
          "type": "uint256"
        }
      ],
      "name": "_addLiquidity",
      "outputs": [],
      "stateMutability": "payable",
      "type": "function"
    },
    {
      "inputs": [
        {
          "internalType": "uint256",
          "name": "_pool",
          "type": "uint256"
        },
        {
          "internalType": "uint256",
          "name": "_amount",
          "type": "uint256"
        }
      ],
      "name": "_getSwapAmount",
      "outputs": [
        {
          "internalType": "uint256",
          "name": "",
          "type": "uint256"
        }
      ],
      "stateMutability": "nonpayable",
      "type": "function"
    },
    {
      "inputs": [
        {
          "internalType": "uint256",
          "name": "_pool",
          "type": "uint256"
        },
        {
          "internalType": "uint256",
          "name": "_amount",
          "type": "uint256"
        }
      ],
      "name": "_getSwapAmountEth",
      "outputs": [
        {
          "internalType": "uint256",
          "name": "",
          "type": "uint256"
        }
      ],
      "stateMutability": "payable",
      "type": "function"
    },
    {
      "inputs": [
        {
          "internalType": "uint256",
          "name": "_pool",
          "type": "uint256"
        },
        {
          "internalType": "uint256",
          "name": "_amount",
          "type": "uint256"
        }
      ],
      "name": "_removeLiquidity",
      "outputs": [],
      "stateMutability": "payable",
      "type": "function"
    },
    {
      "inputs": [
        {
          "internalType": "uint256",
          "name": "_pool",
          "type": "uint256"
        },
        {
          "internalType": "uint256",
          "name": "_amount",
          "type": "uint256"
        }
      ],
      "name": "_swapEthToToken",
      "outputs": [],
      "stateMutability": "payable",
      "type": "function"
    },
    {
      "inputs": [
        {
          "internalType": "uint256",
          "name": "_pool",
          "type": "uint256"
        },
        {
          "internalType": "uint256",
          "name": "_amount",
          "type": "uint256"
        },
        {
          "internalType": "uint256",
          "name": "_estimatedAmount",
          "type": "uint256"
        }
      ],
      "name": "_swapTokenToEth",
      "outputs": [],
      "stateMutability": "payable",
      "type": "function"
    },
    {
      "inputs": [],
      "name": "counter",
      "outputs": [
        {
          "internalType": "uint256",
          "name": "",
          "type": "uint256"
        }
      ],
      "stateMutability": "view",
      "type": "function"
    },
    {
      "inputs": [
        {
          "internalType": "address",
          "name": "tokenA",
          "type": "address"
        }
      ],
      "name": "createPool",
      "outputs": [],
      "stateMutability": "payable",
      "type": "function"
    },
    {
      "inputs": [
        {
          "internalType": "uint256",
          "name": "_pool",
          "type": "uint256"
        }
      ],
      "name": "getPoolAddress",
      "outputs": [
        {
          "internalType": "address",
          "name": "",
          "type": "address"
        }
      ],
      "stateMutability": "view",
      "type": "function"
    },
    {
      "inputs": [],
      "name": "pool",
      "outputs": [
        {
          "internalType": "contract Pool",
          "name": "",
          "type": "address"
        }
      ],
      "stateMutability": "view",
      "type": "function"
    }
  ],
  "transactionHash": "0x9e40c85c3544d4f926acf7f1cf6c5db1d49482ef3cc4c9121d15e8041d4ea32d",
  "args": [],
  "numDeployments": 1,
  "solcInputHash": "e5e0e1f8f4e6aef1f5cd274f856acd5f",
  "bytecode": "0x6080604052613b6a806100136000396000f3fe6080604052600436106100a65760003560e01c80631697b54d116100645780631697b54d146101b357806316f0115b146101c657806361bc221a146101e65780639049f9d2146101fc5780639e8af2af1461020f578063ecc861d01461022257600080fd5b8062a5ae21146100ab57806304c55b92146100fe5780630b6af776146101345780631269e22f1461014957806315f08f2c1461015c57806316095f6c14610192575b600080fd5b3480156100b757600080fd5b506100e16100c636600461083d565b6000908152600160205260409020546001600160a01b031690565b6040516001600160a01b0390911681526020015b60405180910390f35b34801561010a57600080fd5b506100e161011936600461083d565b6001602052600090815260409020546001600160a01b031681565b610147610142366004610856565b610242565b005b610147610157366004610856565b610379565b34801561016857600080fd5b506100e161017736600461083d565b6002602052600090815260409020546001600160a01b031681565b6101a56101a0366004610856565b6103ff565b6040519081526020016100f5565b6101476101c1366004610878565b6104a2565b3480156101d257600080fd5b506000546100e1906001600160a01b031681565b3480156101f257600080fd5b506101a560035481565b61014761020a3660046108bc565b610530565b61014761021d366004610856565b610628565b34801561022e57600080fd5b506101a561023d366004610856565b610795565b6000828152600160205260408082205482546001600160a01b0319166001600160a01b03909116908117835590516305fe138b60e01b8152600481018490523360248201528291829182918291829182916305fe138b9060440160e060405180830381600087803b1580156102b657600080fd5b505af11580156102ca573d6000803e3d6000fd5b505050506040513d601f19601f820116820180604052508101906102ee91906108e0565b96509650965096509650965096508486886001600160a01b03167fba8167b20fb82b32203505d2af31a84cccc310ee858a21f2b99a19b09956840c87878d88886040516103669594939291909485526001600160a01b0393909316602085015260408401919091526060830152608082015260a00190565b60405180910390a4505050505050505050565b6000828152600160205260408082205482546001600160a01b0319166001600160a01b0390911690811790925551636208d8e560e11b81526004810183905233602482015263c411b1ca9034906044016000604051808303818588803b1580156103e257600080fd5b505af11580156103f6573d6000803e3d6000fd5b50505050505050565b6000828152600160205260408082205482546001600160a01b0319166001600160a01b039091169081178355905163582cf78160e01b81526004810184905263582cf7819034906024016020604051808303818588803b15801561046257600080fd5b505af1158015610476573d6000803e3d6000fd5b50505050506040513d601f19601f8201168201806040525081019061049b919061094b565b5092915050565b6000838152600160205260408082205482546001600160a01b0319166001600160a01b0390911690811790925551635e16d9df60e01b81526004810184905260248101839052336044820152635e16d9df9034906064016000604051808303818588803b15801561051257600080fd5b505af1158015610526573d6000803e3d6000fd5b5050505050505050565b8060405161053d9061082f565b6001600160a01b039091168152602001604051809103906000f080158015610569573d6000803e3d6000fd5b50600080546001600160a01b039283166001600160a01b0319918216811783556003805484526001602052604080852080549094169092179092559054825491519093919091169133917ff86e3d2fc794443a042a24aab307e2450c5ea5ddde4894a5db19df1339e0e23b9190a4600080546040516001600160a01b03909116917f360500cc0bb9908acbdda3a2865dcefc4ae2dbe309f4fbedf074eb0a9a9a16ac91a26001600360008282546106209190610964565b909155505050565b3481101561066f5760405162461bcd60e51b815260206004820152601060248201526f1d1bc81b1a5d1d1b1948185b5bdd5b9d60821b604482015260640160405180910390fd5b6000828152600160205260408082205482546001600160a01b0319166001600160a01b03909116908117835590516364afce8760e11b81526004810184905233602482015282918291829182918291829163c95f9d0e90349060440160e0604051808303818588803b1580156106e457600080fd5b505af11580156106f8573d6000803e3d6000fd5b50505050506040513d601f19601f8201168201806040525081019061071d91906108e0565b96509650965096509650965096508486886001600160a01b03167f8df84fafdab28db8aea5e9eb3a42bac9e9dddfddf14d579c198c13489729e1e187878d88886040516103669594939291909485526001600160a01b0393909316602085015260408401919091526060830152608082015260a00190565b6000828152600160205260408082205482546001600160a01b0319166001600160a01b0390911690811783559051630de703e160e41b81526004810184905263de703e1090602401602060405180830381600087803b1580156107f757600080fd5b505af115801561080b573d6000803e3d6000fd5b505050506040513d601f19601f8201168201806040525081019061049b919061094b565b6131aa806200098b83390190565b60006020828403121561084f57600080fd5b5035919050565b6000806040838503121561086957600080fd5b50508035926020909101359150565b60008060006060848603121561088d57600080fd5b505081359360208301359350604090920135919050565b6001600160a01b03811681146108b957600080fd5b50565b6000602082840312156108ce57600080fd5b81356108d9816108a4565b9392505050565b600080600080600080600060e0888a0312156108fb57600080fd5b8751610906816108a4565b80975050602088015195506040880151945060608801519350608088015161092d816108a4565b8093505060a0880151915060c0880151905092959891949750929550565b60006020828403121561095d57600080fd5b5051919050565b6000821982111561098557634e487b7160e01b600052601160045260246000fd5b50019056fe60806040523480156200001157600080fd5b50604051620031aa380380620031aa8339810160408190526200003491620001cc565b604080518082018252600281526104c760f41b60208083019182528351808501909452600784526626282a37b5b2b760c91b9084015281519192916200007d9160039162000118565b5080516200009390600490602084019062000118565b5050506001600160a01b038116620000aa57600080fd5b600680546001600160a01b0319166001600160a01b038316179055604051620000d390620001a7565b604051809103906000f080158015620000f0573d6000803e3d6000fd5b50600580546001600160a01b0319166001600160a01b0392909216919091179055506200023b565b8280546200012690620001fe565b90600052602060002090601f0160209004810192826200014a576000855562000195565b82601f106200016557805160ff191683800117855562000195565b8280016001018555821562000195579182015b828111156200019557825182559160200191906001019062000178565b50620001a3929150620001b5565b5090565b610d62806200244883390190565b5b80821115620001a35760008155600101620001b6565b600060208284031215620001df57600080fd5b81516001600160a01b0381168114620001f757600080fd5b9392505050565b600181811c908216806200021357607f821691505b602082108114156200023557634e487b7160e01b600052602260045260246000fd5b50919050565b6121fd806200024b6000396000f3fe60806040526004361061015b5760003560e01c80635fcbd285116100c8578063a9059cbb11610084578063cca3e83211610061578063cca3e8321461040f578063dd62ed3e1461042f578063de703e101461044f578063f835cd3c1461046f57005b8063a9059cbb146103c9578063c411b1ca146103e9578063c95f9d0e146103fc57005b80635fcbd285146102f357806370a082311461032b57806394d0851d1461036157806395d89b41146103745780639dc29fac14610389578063a457c2d7146103a957005b8063395093511161011757806339509351146102705780633eaaf86b1461029057806340c10f19146102a5578063582cf781146102c557806359bf5d39146102d85780635e16d9df146102e057005b806305fe138b1461016457806306fdde03146101c3578063095ea7b3146101e557806318160ddd1461021557806323b872dd14610234578063313ce5671461025457005b3661016257005b005b610177610172366004611eef565b61048f565b604080516001600160a01b03988916815260208101979097528601949094526060850192909252909316608083015260a082019290925260c081019190915260e0015b60405180910390f35b3480156101cf57600080fd5b506101d8610a35565b6040516101ba9190611f1b565b3480156101f157600080fd5b50610205610200366004611f70565b610ac7565b60405190151581526020016101ba565b34801561022157600080fd5b506002545b6040519081526020016101ba565b34801561024057600080fd5b5061020561024f366004611f9a565b610adf565b34801561026057600080fd5b50604051601281526020016101ba565b34801561027c57600080fd5b5061020561028b366004611f70565b610b03565b34801561029c57600080fd5b50610226610b25565b3480156102b157600080fd5b506101626102c0366004611f70565b610b35565b6102266102d3366004611fd6565b610b79565b610226610c38565b6101626102ee366004611fef565b610cbe565b3480156102ff57600080fd5b50600554610313906001600160a01b031681565b6040516001600160a01b0390911681526020016101ba565b34801561033757600080fd5b50610226610346366004612024565b6001600160a01b031660009081526020819052604090205490565b34801561036d57600080fd5b5030610313565b34801561038057600080fd5b506101d8610fa3565b34801561039557600080fd5b506101626103a4366004611f70565b610fb2565b3480156103b557600080fd5b506102056103c4366004611f70565b610ff2565b3480156103d557600080fd5b506102056103e4366004611f70565b61106d565b6101626103f7366004611eef565b61107b565b61017761040a366004611eef565b6112c7565b34801561041b57600080fd5b5061022661042a366004612024565b611846565b34801561043b57600080fd5b5061022661044a366004612046565b611864565b34801561045b57600080fd5b5061022661046a366004611fd6565b61188f565b34801561047b57600080fd5b50600654610313906001600160a01b031681565b60008080808080806104a5565b60405180910390fd5b600554604051632770a7eb60e21b81526001600160a01b038a81166004830152602482018c905290911690639dc29fac90604401600060405180830381600087803b1580156104f357600080fd5b505af1158015610507573d6000803e3d6000fd5b505060065460055460408051633eaaf86b60e01b815290516001600160a01b03938416955063095ea7b39450309390921691633eaaf86b91600480820192602092909190829003018186803b15801561055f57600080fd5b505afa158015610573573d6000803e3d6000fd5b505050506040513d601f19601f820116820180604052508101906105979190612070565b6006546040516370a0823160e01b81523060048201528e916001600160a01b0316906370a082319060240160206040518083038186803b1580156105da57600080fd5b505afa1580156105ee573d6000803e3d6000fd5b505050506040513d601f19601f820116820180604052508101906106129190612070565b61061c919061209f565b61062691906120be565b6040516001600160e01b031960e085901b1681526001600160a01b0390921660048301526024820152604401602060405180830381600087803b15801561066c57600080fd5b505af1158015610680573d6000803e3d6000fd5b505050506040513d601f19601f820116820180604052508101906106a491906120e0565b5060065460055460408051633eaaf86b60e01b815290516001600160a01b03938416936323b872dd9330938e939190921691633eaaf86b916004808301926020929190829003018186803b1580156106fb57600080fd5b505afa15801561070f573d6000803e3d6000fd5b505050506040513d601f19601f820116820180604052508101906107339190612070565b6006546040516370a0823160e01b81523060048201528f916001600160a01b0316906370a082319060240160206040518083038186803b15801561077657600080fd5b505afa15801561078a573d6000803e3d6000fd5b505050506040513d601f19601f820116820180604052508101906107ae9190612070565b6107b8919061209f565b6107c291906120be565b6040518463ffffffff1660e01b81526004016107e093929190612102565b602060405180830381600087803b1580156107fa57600080fd5b505af115801561080e573d6000803e3d6000fd5b505050506040513d601f19601f8201168201806040525081019061083291906120e0565b5060055460408051633eaaf86b60e01b815290516001600160a01b03808c16931691633eaaf86b916004808301926020929190829003018186803b15801561087957600080fd5b505afa15801561088d573d6000803e3d6000fd5b505050506040513d601f19601f820116820180604052508101906108b19190612070565b6108bb8b4761209f565b6108c591906120be565b604051600081818185875af1925050503d8060008114610901576040519150601f19603f3d011682016040523d82523d6000602084013e610906565b606091505b50505087600560009054906101000a90046001600160a01b03166001600160a01b0316633eaaf86b6040518163ffffffff1660e01b815260040160206040518083038186803b15801561095857600080fd5b505afa15801561096c573d6000803e3d6000fd5b505050506040513d601f19601f820116820180604052508101906109909190612070565b600554604051636651f41960e11b81526001600160a01b038c811660048301528d924792911690819063cca3e8329060240160206040518083038186803b1580156109da57600080fd5b505afa1580156109ee573d6000803e3d6000fd5b505050506040513d601f19601f82011682018060405250810190610a129190612070565b610a1a610c38565b96509650965096509650965096505b92959891949750929550565b606060038054610a4490612126565b80601f0160208091040260200160405190810160405280929190818152602001828054610a7090612126565b8015610abd5780601f10610a9257610100808354040283529160200191610abd565b820191906000526020600020905b815481529060010190602001808311610aa057829003601f168201915b5050505050905090565b600033610ad5818585611941565b5060019392505050565b600033610aed858285611a66565b610af8858585611ae0565b506001949350505050565b600033610ad5818585610b168383611864565b610b209190612161565b611941565b6000610b3060025490565b905090565b60405181906001600160a01b038416907fb7656808f0e04b4af7a20f7ef1caa7669f0d781f1ca4cba31a3ba467880766c990600090a3610b758282611cae565b5050565b600080610b84610c38565b90506000610b928447612179565b90506000610ba185606361209f565b90506000610bb083606461209f565b9050600083118015610bc25750600084115b610bde5760405162461bcd60e51b815260040161049c90612190565b6000610bea8288612161565b610bf4868561209f565b610bfe91906120be565b905080877fcfaa9fe844caafbeed42965f22ddbb67532fa515e7284d5c317af5c8ab8d3e9e60405160405180910390a39695505050505050565b6006546040516370a0823160e01b815230600482015260009182916001600160a01b03909116906370a082319060240160206040518083038186803b158015610c8057600080fd5b505afa158015610c94573d6000803e3d6000fd5b505050506040513d601f19601f82011682018060405250810190610cb89190612070565b92915050565b6000610cc8610c38565b9050476000610cd886606361209f565b90506000610ce784606461209f565b9050600084118015610cf95750600083115b610d155760405162461bcd60e51b815260040161049c90612190565b6000610d218289612161565b610d2b858561209f565b610d3591906120be565b905086811015610d875760405162461bcd60e51b815260206004820152601d60248201527f746f206c6974746c6520616d6f756e7420666f72207377617070696e67000000604482015260640161049c565b60065460405163095ea7b360e01b81526001600160a01b038881166004830152602482018490529091169063095ea7b390604401602060405180830381600087803b158015610dd557600080fd5b505af1158015610de9573d6000803e3d6000fd5b505050506040513d601f19601f82011682018060405250810190610e0d91906120e0565b506006546040516323b872dd60e01b81526001600160a01b03909116906323b872dd90610e4290899030908690600401612102565b602060405180830381600087803b158015610e5c57600080fd5b505af1158015610e70573d6000803e3d6000fd5b505050506040513d601f19601f82011682018060405250810190610e9491906120e0565b50600080876001600160a01b03168360405160006040518083038185875af1925050503d8060008114610ee3576040519150601f19603f3d011682016040523d82523d6000602084013e610ee8565b606091505b50604051680e8ded6cadc5ecae8d60bb1b8152919350915060090160405190819003812060065485835290916001600160a01b038b81169216907fce9f99712c8bc2e049d7626ab6410b1a43910ca5354c5de77a14024599156ba89060200160405180910390a4604080516001600160a01b038a168152602081018590528691869189917f442eeca641ffac06d7005f2ef6bc3f115b4e51a3324d56430545e2561f174f75910160405180910390a450505050505050505050565b606060048054610a4490612126565b60405181906001600160a01b038416907f8b1897d4e7a3b42570088bb1182eb6518c96a754d44bc9edd4669568bfa9832690600090a3610b758282611d8d565b600033816110008286611864565b9050838110156110605760405162461bcd60e51b815260206004820152602560248201527f45524332303a2064656372656173656420616c6c6f77616e63652062656c6f77604482015264207a65726f60d81b606482015260840161049c565b610af88286868403611941565b600033610ad5818585611ae0565b6000611085610c38565b905060006110933447612179565b905060006110a234606361209f565b905060006110b183606461209f565b90506000831180156110c35750600084115b6110df5760405162461bcd60e51b815260040161049c90612190565b60006110eb8234612161565b6110f5868561209f565b6110ff91906120be565b9050868110156111515760405162461bcd60e51b815260206004820152601d60248201527f746f206c6974746c6520616d6f756e7420666f72207377617070696e67000000604482015260640161049c565b60065460405163095ea7b360e01b8152306004820152602481018390526001600160a01b039091169063095ea7b390604401602060405180830381600087803b15801561119d57600080fd5b505af11580156111b1573d6000803e3d6000fd5b505050506040513d601f19601f820116820180604052508101906111d591906120e0565b506006546040516323b872dd60e01b81526001600160a01b03909116906323b872dd9061120a9030908a908690600401612102565b602060405180830381600087803b15801561122457600080fd5b505af1158015611238573d6000803e3d6000fd5b505050506040513d601f19601f8201168201806040525081019061125c91906120e0565b506040516832ba3417ba37b5b2b760b91b815260090160405190819003812060065483835290916001600160a01b038981169216907fce9f99712c8bc2e049d7626ab6410b1a43910ca5354c5de77a14024599156ba89060200160405180910390a450505050505050565b6000808080808080806112da3447612179565b90506112e4610c38565b6114f4576005546040516340c10f1960e01b81526001600160a01b038b81166004830152602482018d9052909116906340c10f1990604401600060405180830381600087803b15801561133657600080fd5b505af115801561134a573d6000803e3d6000fd5b50506006546040516323b872dd60e01b81526001600160a01b0390911692506323b872dd9150611382908c9030908f90600401612102565b602060405180830381600087803b15801561139c57600080fd5b505af11580156113b0573d6000803e3d6000fd5b505050506040513d601f19601f820116820180604052508101906113d491906120e0565b5060055460408051633eaaf86b60e01b815290518b926001600160a01b031691633eaaf86b916004808301926020929190829003018186803b15801561141957600080fd5b505afa15801561142d573d6000803e3d6000fd5b505050506040513d601f19601f820116820180604052508101906114519190612070565b611459610c38565b600554604051636651f41960e11b81526001600160a01b038e8116600483015247921690819063cca3e8329060240160206040518083038186803b1580156114a057600080fd5b505afa1580156114b4573d6000803e3d6000fd5b505050506040513d601f19601f820116820180604052508101906114d89190612070565b6114e0610c38565b975097509750975097509750975050610a29565b806114fd610c38565b611507903461209f565b61151191906120be565b8a10156115865760405162461bcd60e51b815260206004820152603c60248201527f6e6f74206163636570746564206c6971756964697479206c657373207468656e60448201527f20746865206d696e696d756d20616d6f756e7420616363657074656400000000606482015260840161049c565b6006546001600160a01b03166323b872dd8a30846115a2610c38565b6115ac903461209f565b6115b691906120be565b6040518463ffffffff1660e01b81526004016115d493929190612102565b602060405180830381600087803b1580156115ee57600080fd5b505af1158015611602573d6000803e3d6000fd5b505050506040513d601f19601f8201168201806040525081019061162691906120e0565b5060055460408051633eaaf86b60e01b815290516001600160a01b03909216916340c10f19918c91859134918691633eaaf86b916004808301926020929190829003018186803b15801561167957600080fd5b505afa15801561168d573d6000803e3d6000fd5b505050506040513d601f19601f820116820180604052508101906116b19190612070565b6116bb919061209f565b6116c591906120be565b6040516001600160e01b031960e085901b1681526001600160a01b0390921660048301526024820152604401600060405180830381600087803b15801561170b57600080fd5b505af115801561171f573d6000803e3d6000fd5b5050505088600560009054906101000a90046001600160a01b03166001600160a01b0316633eaaf86b6040518163ffffffff1660e01b815260040160206040518083038186803b15801561177257600080fd5b505afa158015611786573d6000803e3d6000fd5b505050506040513d601f19601f820116820180604052508101906117aa9190612070565b8234600560009054906101000a90046001600160a01b03166001600160a01b0316633eaaf86b6040518163ffffffff1660e01b815260040160206040518083038186803b1580156117fa57600080fd5b505afa15801561180e573d6000803e3d6000fd5b505050506040513d601f19601f820116820180604052508101906118329190612070565b61183c919061209f565b61145991906120be565b6001600160a01b038116600090815260208190526040812054610cb8565b6001600160a01b03918216600090815260016020908152604080832093909416825291909152205490565b60008061189a610c38565b90504760006118aa85606361209f565b905060006118b984606461209f565b90506000841180156118cb5750600083115b6118e75760405162461bcd60e51b815260040161049c90612190565b60006118f38288612161565b6118fd858561209f565b61190791906120be565b905081817fcfaa9fe844caafbeed42965f22ddbb67532fa515e7284d5c317af5c8ab8d3e9e60405160405180910390a39695505050505050565b6001600160a01b0383166119a35760405162461bcd60e51b8152602060048201526024808201527f45524332303a20617070726f76652066726f6d20746865207a65726f206164646044820152637265737360e01b606482015260840161049c565b6001600160a01b038216611a045760405162461bcd60e51b815260206004820152602260248201527f45524332303a20617070726f766520746f20746865207a65726f206164647265604482015261737360f01b606482015260840161049c565b6001600160a01b0383811660008181526001602090815260408083209487168084529482529182902085905590518481527f8c5be1e5ebec7d5bd14f71427d1e84f3dd0314c0f7b2291e5b200ac8c7c3b92591015b60405180910390a3505050565b6000611a728484611864565b90506000198114611ada5781811015611acd5760405162461bcd60e51b815260206004820152601d60248201527f45524332303a20696e73756666696369656e7420616c6c6f77616e6365000000604482015260640161049c565b611ada8484848403611941565b50505050565b6001600160a01b038316611b445760405162461bcd60e51b815260206004820152602560248201527f45524332303a207472616e736665722066726f6d20746865207a65726f206164604482015264647265737360d81b606482015260840161049c565b6001600160a01b038216611ba65760405162461bcd60e51b815260206004820152602360248201527f45524332303a207472616e7366657220746f20746865207a65726f206164647260448201526265737360e81b606482015260840161049c565b6001600160a01b03831660009081526020819052604090205481811015611c1e5760405162461bcd60e51b815260206004820152602660248201527f45524332303a207472616e7366657220616d6f756e7420657863656564732062604482015265616c616e636560d01b606482015260840161049c565b6001600160a01b03808516600090815260208190526040808220858503905591851681529081208054849290611c55908490612161565b92505081905550826001600160a01b0316846001600160a01b03167fddf252ad1be2c89b69c2b068fc378daa952ba7f163c4a11628f55a4df523b3ef84604051611ca191815260200190565b60405180910390a3611ada565b6001600160a01b038216611d045760405162461bcd60e51b815260206004820152601f60248201527f45524332303a206d696e7420746f20746865207a65726f206164647265737300604482015260640161049c565b8060026000828254611d169190612161565b90915550506001600160a01b03821660009081526020819052604081208054839290611d43908490612161565b90915550506040518181526001600160a01b038316906000907fddf252ad1be2c89b69c2b068fc378daa952ba7f163c4a11628f55a4df523b3ef9060200160405180910390a35050565b6001600160a01b038216611ded5760405162461bcd60e51b815260206004820152602160248201527f45524332303a206275726e2066726f6d20746865207a65726f206164647265736044820152607360f81b606482015260840161049c565b6001600160a01b03821660009081526020819052604090205481811015611e615760405162461bcd60e51b815260206004820152602260248201527f45524332303a206275726e20616d6f756e7420657863656564732062616c616e604482015261636560f01b606482015260840161049c565b6001600160a01b0383166000908152602081905260408120838303905560028054849290611e90908490612179565b90915550506040518281526000906001600160a01b038516907fddf252ad1be2c89b69c2b068fc378daa952ba7f163c4a11628f55a4df523b3ef90602001611a59565b80356001600160a01b0381168114611eea57600080fd5b919050565b60008060408385031215611f0257600080fd5b82359150611f1260208401611ed3565b90509250929050565b600060208083528351808285015260005b81811015611f4857858101830151858201604001528201611f2c565b81811115611f5a576000604083870101525b50601f01601f1916929092016040019392505050565b60008060408385031215611f8357600080fd5b611f8c83611ed3565b946020939093013593505050565b600080600060608486031215611faf57600080fd5b611fb884611ed3565b9250611fc660208501611ed3565b9150604084013590509250925092565b600060208284031215611fe857600080fd5b5035919050565b60008060006060848603121561200457600080fd5b833592506020840135915061201b60408501611ed3565b90509250925092565b60006020828403121561203657600080fd5b61203f82611ed3565b9392505050565b6000806040838503121561205957600080fd5b61206283611ed3565b9150611f1260208401611ed3565b60006020828403121561208257600080fd5b5051919050565b634e487b7160e01b600052601160045260246000fd5b60008160001904831182151516156120b9576120b9612089565b500290565b6000826120db57634e487b7160e01b600052601260045260246000fd5b500490565b6000602082840312156120f257600080fd5b8151801515811461203f57600080fd5b6001600160a01b039384168152919092166020820152604081019190915260600190565b600181811c9082168061213a57607f821691505b6020821081141561215b57634e487b7160e01b600052602260045260246000fd5b50919050565b6000821982111561217457612174612089565b500190565b60008282101561218b5761218b612089565b500390565b60208082526017908201527f696e76616c696465207265736572766520616d6f756e7400000000000000000060408201526060019056fea2646970667358221220285316eb01939ebaa0aeeddc11c55e76229ce84ac2922802cacd685b9547106a64736f6c6343000808003360806040523480156200001157600080fd5b50604080518082018252600281526104c760f41b60208083019182528351808501909452600784526626282a37b5b2b760c91b9084015281519192916200005b916003916200007a565b508051620000719060049060208401906200007a565b5050506200015d565b828054620000889062000120565b90600052602060002090601f016020900481019282620000ac5760008555620000f7565b82601f10620000c757805160ff1916838001178555620000f7565b82800160010185558215620000f7579182015b82811115620000f7578251825591602001919060010190620000da565b506200010592915062000109565b5090565b5b808211156200010557600081556001016200010a565b600181811c908216806200013557607f821691505b602082108114156200015757634e487b7160e01b600052602260045260246000fd5b50919050565b610bf5806200016d6000396000f3fe608060405234801561001057600080fd5b50600436106101005760003560e01c806370a0823111610097578063a457c2d711610066578063a457c2d7146101fc578063a9059cbb1461020f578063cca3e832146101aa578063dd62ed3e1461022257600080fd5b806370a08231146101aa57806394d0851d146101d357806395d89b41146101e15780639dc29fac146101e957600080fd5b8063313ce567116100d3578063313ce5671461016b578063395093511461017a5780633eaaf86b1461018d57806340c10f191461019557600080fd5b806306fdde0314610105578063095ea7b31461012357806318160ddd1461014657806323b872dd14610158575b600080fd5b61010d610235565b60405161011a9190610a13565b60405180910390f35b610136610131366004610a84565b6102c7565b604051901515815260200161011a565b6002545b60405190815260200161011a565b610136610166366004610aae565b6102df565b6040516012815260200161011a565b610136610188366004610a84565b610303565b61014a610325565b6101a86101a3366004610a84565b610335565b005b61014a6101b8366004610aea565b6001600160a01b031660009081526020819052604090205490565b60405130815260200161011a565b61010d610379565b6101a86101f7366004610a84565b610388565b61013661020a366004610a84565b6103c8565b61013661021d366004610a84565b610448565b61014a610230366004610b0c565b610456565b60606003805461024490610b3f565b80601f016020809104026020016040519081016040528092919081815260200182805461027090610b3f565b80156102bd5780601f10610292576101008083540402835291602001916102bd565b820191906000526020600020905b8154815290600101906020018083116102a057829003601f168201915b5050505050905090565b6000336102d5818585610481565b5060019392505050565b6000336102ed8582856105a6565b6102f8858585610620565b506001949350505050565b6000336102d58185856103168383610456565b6103209190610b90565b610481565b600061033060025490565b905090565b60405181906001600160a01b038416907fb7656808f0e04b4af7a20f7ef1caa7669f0d781f1ca4cba31a3ba467880766c990600090a361037582826107ee565b5050565b60606004805461024490610b3f565b60405181906001600160a01b038416907f8b1897d4e7a3b42570088bb1182eb6518c96a754d44bc9edd4669568bfa9832690600090a361037582826108cd565b600033816103d68286610456565b90508381101561043b5760405162461bcd60e51b815260206004820152602560248201527f45524332303a2064656372656173656420616c6c6f77616e63652062656c6f77604482015264207a65726f60d81b60648201526084015b60405180910390fd5b6102f88286868403610481565b6000336102d5818585610620565b6001600160a01b03918216600090815260016020908152604080832093909416825291909152205490565b6001600160a01b0383166104e35760405162461bcd60e51b8152602060048201526024808201527f45524332303a20617070726f76652066726f6d20746865207a65726f206164646044820152637265737360e01b6064820152608401610432565b6001600160a01b0382166105445760405162461bcd60e51b815260206004820152602260248201527f45524332303a20617070726f766520746f20746865207a65726f206164647265604482015261737360f01b6064820152608401610432565b6001600160a01b0383811660008181526001602090815260408083209487168084529482529182902085905590518481527f8c5be1e5ebec7d5bd14f71427d1e84f3dd0314c0f7b2291e5b200ac8c7c3b92591015b60405180910390a3505050565b60006105b28484610456565b9050600019811461061a578181101561060d5760405162461bcd60e51b815260206004820152601d60248201527f45524332303a20696e73756666696369656e7420616c6c6f77616e63650000006044820152606401610432565b61061a8484848403610481565b50505050565b6001600160a01b0383166106845760405162461bcd60e51b815260206004820152602560248201527f45524332303a207472616e736665722066726f6d20746865207a65726f206164604482015264647265737360d81b6064820152608401610432565b6001600160a01b0382166106e65760405162461bcd60e51b815260206004820152602360248201527f45524332303a207472616e7366657220746f20746865207a65726f206164647260448201526265737360e81b6064820152608401610432565b6001600160a01b0383166000908152602081905260409020548181101561075e5760405162461bcd60e51b815260206004820152602660248201527f45524332303a207472616e7366657220616d6f756e7420657863656564732062604482015265616c616e636560d01b6064820152608401610432565b6001600160a01b03808516600090815260208190526040808220858503905591851681529081208054849290610795908490610b90565b92505081905550826001600160a01b0316846001600160a01b03167fddf252ad1be2c89b69c2b068fc378daa952ba7f163c4a11628f55a4df523b3ef846040516107e191815260200190565b60405180910390a361061a565b6001600160a01b0382166108445760405162461bcd60e51b815260206004820152601f60248201527f45524332303a206d696e7420746f20746865207a65726f2061646472657373006044820152606401610432565b80600260008282546108569190610b90565b90915550506001600160a01b03821660009081526020819052604081208054839290610883908490610b90565b90915550506040518181526001600160a01b038316906000907fddf252ad1be2c89b69c2b068fc378daa952ba7f163c4a11628f55a4df523b3ef9060200160405180910390a35050565b6001600160a01b03821661092d5760405162461bcd60e51b815260206004820152602160248201527f45524332303a206275726e2066726f6d20746865207a65726f206164647265736044820152607360f81b6064820152608401610432565b6001600160a01b038216600090815260208190526040902054818110156109a15760405162461bcd60e51b815260206004820152602260248201527f45524332303a206275726e20616d6f756e7420657863656564732062616c616e604482015261636560f01b6064820152608401610432565b6001600160a01b03831660009081526020819052604081208383039055600280548492906109d0908490610ba8565b90915550506040518281526000906001600160a01b038516907fddf252ad1be2c89b69c2b068fc378daa952ba7f163c4a11628f55a4df523b3ef90602001610599565b600060208083528351808285015260005b81811015610a4057858101830151858201604001528201610a24565b81811115610a52576000604083870101525b50601f01601f1916929092016040019392505050565b80356001600160a01b0381168114610a7f57600080fd5b919050565b60008060408385031215610a9757600080fd5b610aa083610a68565b946020939093013593505050565b600080600060608486031215610ac357600080fd5b610acc84610a68565b9250610ada60208501610a68565b9150604084013590509250925092565b600060208284031215610afc57600080fd5b610b0582610a68565b9392505050565b60008060408385031215610b1f57600080fd5b610b2883610a68565b9150610b3660208401610a68565b90509250929050565b600181811c90821680610b5357607f821691505b60208210811415610b7457634e487b7160e01b600052602260045260246000fd5b50919050565b634e487b7160e01b600052601160045260246000fd5b60008219821115610ba357610ba3610b7a565b500190565b600082821015610bba57610bba610b7a565b50039056fea2646970667358221220c1cad5f121f7371680e535ac51af499ee9735c4dcda66ea809a69819c1245be564736f6c63430008080033a2646970667358221220cbde400ece441df402e0cc0236a583c20299918265bd8af2a8dc0724ec77304864736f6c63430008080033",
  "devdoc": {
    "kind": "dev",
    "methods": {},
    "version": 1
  },
  "userdoc": {
    "kind": "user",
    "methods": {},
    "version": 1
  },
  "storageLayout": {
    "storage": [
      {
        "astId": 717,
        "contract": "contracts/Dex.sol:Dex",
        "label": "pool",
        "offset": 0,
        "slot": "0",
        "type": "t_contract(Pool)1927"
      },
      {
        "astId": 776,
        "contract": "contracts/Dex.sol:Dex",
        "label": "PoolMapping",
        "offset": 0,
        "slot": "1",
        "type": "t_mapping(t_uint256,t_contract(Pool)1927)"
      },
      {
        "astId": 780,
        "contract": "contracts/Dex.sol:Dex",
        "label": "PoolMappingAddress",
        "offset": 0,
        "slot": "2",
        "type": "t_mapping(t_uint256,t_address)"
      },
      {
        "astId": 782,
        "contract": "contracts/Dex.sol:Dex",
        "label": "counter",
        "offset": 0,
        "slot": "3",
        "type": "t_uint256"
      }
    ],
    "types": {
      "t_address": {
        "encoding": "inplace",
        "label": "address",
        "numberOfBytes": "20"
      },
      "t_contract(Pool)1927": {
        "encoding": "inplace",
        "label": "contract Pool",
        "numberOfBytes": "20"
      },
      "t_mapping(t_uint256,t_address)": {
        "encoding": "mapping",
        "key": "t_uint256",
        "label": "mapping(uint256 => address)",
        "numberOfBytes": "32",
        "value": "t_address"
      },
      "t_mapping(t_uint256,t_contract(Pool)1927)": {
        "encoding": "mapping",
        "key": "t_uint256",
        "label": "mapping(uint256 => contract Pool)",
        "numberOfBytes": "32",
        "value": "t_contract(Pool)1927"
      },
      "t_uint256": {
        "encoding": "inplace",
        "label": "uint256",
        "numberOfBytes": "32"
      }
    }
  }
}